:100000000C9448050C94A7190C9480190C94700555
:100010000C9470050C9470050C9470050C9470058C
:100020000C9470050C9470050C9470050C941D0BC9
:100030000C9470050C9470050C9470050C9470056C
:100040000C9436190C9470050C94F5170C94CF177A
:100050000C9470050C9470050C9470050C9470054C
:100060000C9470050C9470050C9470050C9470053C
:100070000C9470050C9470050C9470050C9470052C
:100080000C9470050C9470050C9470050C9470051C
:100090000C9470050C9470050C9470050C9470050C
:1000A0000C9470050C9470050C9470050C947005FC
:1000B0000C947005C229C529F829222A532A742ACA
:1000C000952ABE2AEC2A1A2B482B552B652B3B1858
:1000D0003E18311835185F185F18421846184C182A
:1000E00050185F1856185A18000000002300260008
:1000F00029002C0004040404040404040202020283
:1001000002020303030303030202030505050501BD
:10011000020408102040800102040810200102049B
:10012000081020408040010204080A0D0E09000357
:1001300002000004050800000000000000000000AC
:100140000000000000202042697474652065696E1B
:10015000656E2041744D65676133323850422050DE
:10016000726F7A6573736F722076657277656E64ED
:10017000656E210050726F7A6573736F7266656881
:100180006C65723A2000202044617565723A200047
:10019000426C696E6B656E204C45442D4E6F2E008F
:1001A000417573736368616C74656E204C45442DB2
:1001B0004E6F2E00202048656C6C69676B65697412
:1001C0003A2000416E736368616C74656E204C4523
:1001D000442D4E6F2E0046616C7363686520536931
:1001E000676E616C6E756D6D657200416C6C65203B
:1001F0004C454473206175662D20756E64207769C7
:1002000065646572206162626C656E64656E004152
:100210006D70656C7A656974205A757374616E646B
:1002200020004E6963687420756E7465727374750E
:1002300065747A7400202042656665686C200053FE
:1002400069676E616C200049676E6F7269657265DF
:1002500020646F7070656C7465204443432D426563
:100260006665686C6520696E6E657268616C622097
:10027000766F6E20005265736574206175736765D3
:100280006675656872740020426C696E6B656E20DD
:1002900047727570706520320020426C696E6B6524
:1002A0006E20477275707065203100204C65756353
:1002B0006874656E00206665737467656C65677445
:1002C00020616C73204C4544732066756572004153
:1002D0007573202D3E20420056720048700053690D
:1002E000676E616C7479702000556E62656B616E2B
:1002F0006E7465722042656665686C005369676E4E
:10030000616C74797020003A20426C656E647A6585
:100310006974202D3E20005369676E616C7479709A
:1003200020003A2044756E6B656C7A656974202DE7
:100330003E20005369676E616C74797020003A202A
:100340002D3E205369676E616C6C6F67696B20008E
:100350005369676E616C74797020003A20416E7A3F
:1003600061686C204C454473206D6178202D3E20DF
:10037000005369676E616C74797020003A20416E99
:100380007A61686C204C45447320616E202D3E20BC
:10039000005369676E616C74797020003A20426C7A
:1003A000696E6B6672657175656E7A202D3E2000F0
:1003B0005369676E616C7479702000207374656C8A
:1003C0006C74206175746F6D61746973636820610A
:1003D00075636820566F727369676E616C200020C8
:1003E0007374656C6C74206B65696E20566F7273E4
:1003F00069676E616C0048617570747369676E61DE
:100400006C2000202D3E205369676E616C747970FA
:1004100020005369676E616C200046616C736368ED
:1004200065205369676E616C6E756D6D657200480D
:100430006175736C6963687420004175746F3A2D3F
:100440002F67656C625F626C696E6B2020202020D4
:1004500020467573733A202D2F2D004175746F3A25
:1004600067656C625F626C696E6B2F2D20202020A7
:10047000202020467573733A2D2F2D004175746F1F
:100480003A726F742F67656C622020202020202034
:1004900020467573733A726F742F726F74004175D2
:1004A000746F3A726F742F677275656E202020200A
:1004B000202020467573733A726F742F726F740028
:1004C0004175746F3A726F742F677275656E202074
:1004D000202020467573733A677275656E2F726FB0
:1004E00074004175746F3A726F742F726F742B675A
:1004F000656C622020467573733A726F742F726F49
:1005000074004175746F3A726F742F726F7420208B
:1005100020202020202020467573733A726F742F9C
:10052000726F74004175746F3A67656C622F726FF9
:10053000742020202020202020467573733A726F8B
:10054000742F726F74004175746F3A677275656EBF
:100550002F726F7420202020202020467573733A5C
:10056000726F742F726F74004175746F3A67727591
:10057000656E2F726F742020202020467573733AA9
:10058000726F742F677275656E004175746F3A7281
:100590006F742B67656C622F726F742020467573C1
:1005A000733A726F742F726F74004175746F3A7280
:1005B0006F742F726F74202020202020202020466E
:1005C0007573733A726F742F726F7400416D70653A
:1005D0006C20004443432D53746172742D41647246
:1005E00065737365206665737467656C65677420F1
:1005F0006175663A20004765776165686C7465725D
:1006000020416E7363686C75737320697374206B1B
:1006100065696E205369676E616C00202D3E204C29
:100620006175666C6963687420005369676E616CFC
:1006300020005369676E616C2061757300566F729C
:100640007369676E616C206E69636874206D6F6595
:10065000676C6963682C206461204870302F536890
:100660003121005369676E616C200020676C6569F9
:1006700063687A656974696720616E004C454473EC
:100680002C206461766F6E206D61782E0048617554
:10069000736C69636874206D6974200020676C65F1
:1006A0006963687A656974696720616E004C4544C6
:1006B000732C206461766F6E206D61782E004C6122
:1006C00075666C69636874206D69742000416D7093
:1006D000656C206D6974206175746F6D61746973E8
:1006E0006368656D20556D736368616C74656E0039
:1006F000206D6974205369676E616C6C6F67696BFC
:10070000004D756C7469706C65787369676E616CA7
:1007100000416E7363686C75737320202020204144
:100720002020202020422020202020432020202084
:100730002044004C45442D48656C6C69676B6569C5
:1007400074205B255D0020202020416D70656C20A9
:10075000322067656C6220426C696E6B002020203D
:1007600020416D70656C20312067656C6220426CA1
:10077000696E6B0020202020416D70656C20322056
:10078000677275656E0020202020416D70656C20B9
:10079000322067656C620020202020416D70656CFE
:1007A000203220726F740020202020416D70656C13
:1007B000203120677275656E0020202020416D7009
:1007C000656C20312067656C620020202020416D1F
:1007D00070656C203120726F740020202020203141
:1007E0003039383736353433323130203D2020200F
:1007F00044454320202031303938373635343332C0
:100800003130203D20202044454320202031303904
:10081000383736353433323130203D2020204445BE
:1008200043002020202020202020426C656E647A26
:100830006569743A200020202020202044756E6BCA
:10084000656C7A6569743A002020202020706572FA
:100850006D616E656E7420202020202020202020D5
:1008600020202020626C696E6B656E204772757067
:100870007065203120202020202020626C696E6B62
:10088000656E204772757070652032202020202010
:100890002020204672657175656E7A3A002020200E
:1008A00020204C616D70656E20312D382020202075
:1008B0002020202020202020204C616D70656E209B
:1008C000392D3132202020202020202020202020DF
:1008D0006E2E612E2020202020202020202020206D
:1008E0002020202020202020476573636877696ED0
:1008F0006469676B6569743A002020202020417587
:10090000746F7665726B656872202020202020202D
:100910002020202020467573736761656E676572BD
:10092000202020202020202020202020626C696EA2
:100930006B656E20202020202020202020202020D9
:10094000202020204672657175656E7A3A005369E1
:10095000676E616C7479702000416D70656C7A65AA
:100960006974205A757374616E64200049676E6FF4
:10097000726965726520646F7070656C746520447F
:1009800043432D42656665686C6520696E6E6572CD
:1009900068616C6220766F6E20005369676E616CCF
:1009A0002061757300206772C3BC6E3A20006569D0
:1009B0006E6520416D70656C7374656C6C756E67E7
:1009C0002077656974657200677275656E2053746F
:1009D0007261737365203100426C696E6B20320066
:1009E000426C696E6B20310065696E20416E7A61E0
:1009F000686C204C4544732067656D616573732096
:100A0000566F7265696E7374656C6C756E67205392
:100A100069676E616C7479700044696573657320F1
:100A200048617570747369676E616C207374656C6E
:100A30006C74206175746F6D617469736368206193
:100A400075636820566F727369676E616C20002051
:100A500020285369676E616C7479703A20004443B2
:100A600043202D20416472657373656E205369675E
:100A70006E616C200000000000240027002A002D79
:100A80000000000000250028002B002E000043334A
:100A900011241FBECFEFD8E0DEBFCDBF13E0A0E032
:100AA000B1E0E8E0F0E702C005900D92AA39B10785
:100AB000D9F727E0AAE9B3E001C01D92AC36B2072E
:100AC000E1F715E0C8E4D5E004C02197FE010E94DB
:100AD000F934C734D107C9F70E940F1E0C940238AD
:100AE0000C94000082E080931D0608950F931F93DD
:100AF000CF938C01C62F83E492E00E94161D6AE01A
:100B000070E0C8010E94091D8CE20E94041D60E192
:100B100070E08C2FCF911F910F910C94F61CEF92E7
:100B2000FF921F93CF93DF937C01162FD42FC22FF8
:100B30008DE592E00E94161D6AE070E0C7010E94F8
:100B4000091D8CE20E94041D6AE070E0812F0E9462
:100B5000E81C8CE20E94041D6AE070E08D2F0E9468
:100B6000E81C8CE20E94041D60E170E08C2FDF9194
:100B7000CF911F91FF90EF900C94F61C88E792E0C4
:100B80000E94991C61E08CE00E94601866E070E0B1
:100B900080E090E00E94F01860E08CE00C94601817
:100BA0006F927F928F929F92AF92BF92CF92DF927D
:100BB000EF92FF920F931F93CF93DF93182F17702D
:100BC000782E769476947694E0902506F12CC72DB5
:100BD000D0E06E01CC0CDD1CA7010C2C02C0559599
:100BE00047950A94E2F7042F017041FB222720F970
:100BF00030E0F901E15EF94F208130E0402F50E014
:100C0000440F551F440F551F02C0359527954A952F
:100C1000E2F72770213009F055C0FE01EE0FFF1FEB
:100C2000EE0FFF1FE851FA4F1082118212821382D9
:100C3000FE01EC51FA4F143080F11082143071F43F
:100C4000C452DA4F8881823011F08F77888388818F
:100C50008F778A3008F42CC182E80FC0153079F400
:100C6000C452DA4F8881873011F08F77888388816A
:100C70008F778A3008F41CC187E8888319C1163041
:100C800009F016C1C452DA4F888180688F5F982FAF
:100C90009F779A3090F328830BC12083C452DA4F98
:100CA000111102C08CE0E9CF113031F488818F77C7
:100CB0008A3018F31883FCC0123011F48AE0DDCFBB
:100CC0008BE0DBCF682E223009F062C0BE01645297
:100CD0007A4F5B01111104C08CE0FB01808303C0DB
:100CE0001150FB011083FE01EE0FFF1FEE0FFF1FDF
:100CF000E851FA4F10821182128213828AE296E042
:100D00000E94271DCE018F5B9F4F0E94821C8BE1AA
:100D100096E00E94271DF50180818C3039F588ED21
:100D200091E00E94991CFFEFCF1ADF0AC70102C0B1
:100D300095958795CA94E2F781709927880F991F36
:100D4000802B082E000C990BCE53DB4FFC01EE0FCD
:100D5000FF1FE654FB4FDC01A250BB4F6C9170E0CB
:100D6000808191810E94E5346883A2C084ED91E086
:100D7000DF91CF911F910F91FF90EF90DF90CF9077
:100D8000BF90AF909F908F907F906F900C94991C24
:100D90002330A9F4FE01E452FA4F111103C08CE094
:100DA000808302C011501083CC0FDD1FCC0FDD1FDC
:100DB000C851DA4F188219821A821B8279C00E94A8
:100DC0006115143008F074C0862D82958F70E82F5D
:100DD000F0E0E853FC4F808190E070FA882480F8BE
:100DE000912C880C991C880C991C02C095958795AC
:100DF0008A94E2F7482F4F7009F45AC020912506D3
:100E000030E0C6010196B90102C0759567958A95D3
:100E1000E2F7CB0181709927880F991F02C03595A1
:100E20002795CA94E2F72170822BE82FE695F0E02F
:100E3000E15EF94F208130E080FBAA24A0F8B12CBC
:100E4000AA0CBB1CAA0CBB1CC90102C095958795B6
:100E5000AA94E2F787708130C9F4133009F410E0E6
:100E6000812F78E0479F800D11248450DF91CF912E
:100E70001F910F91FF90EF90DF90CF90BF90AF90B8
:100E80009F908F907F906F900C94611586EF95E006
:100E9000DF91CF911F910F91FF90EF90DF90CF9056
:100EA000BF90AF909F908F907F906F900C94421D59
:100EB000DF91CF911F910F91FF90EF90DF90CF9036
:100EC000BF90AF909F908F907F906F9008958F927A
:100ED0009F92AF92BF92EF92FF920F931F93CF9387
:100EE000DF937C01C62FD42F84E892E00E94161D68
:100EF0006AE070E0C7010E94091D8CE20E94041D97
:100F00006AE070E08C2F0E94E81C8CE20E94041DB5
:100F100060E170E08D2F0E94F61C80911E0680FF1C
:100F200027C00E94201B9093C5038093C403809127
:100F30001E068E7F80931E0681E08093C30361E0CE
:100F40008EED90E00E94181D83ED95E00E94271D14
:100F50008091C4039091C503DF91CF911F910F91B0
:100F6000FF90EF90BF90AF909F908F900C948C1D4E
:100F7000826080931E060E942A192091C40330913A
:100F8000C5038701021B130B000F111F0C0F111D4E
:100F9000209191063091920602171307E9F42091EF
:100FA000C60380908D0690908E06A0908F06B0901C
:100FB0009006AB01BC01481959096A097B093AE05E
:100FC000239FC0011124092E000CAA0BBB0B841710
:100FD0009507A607B70780F50E942A1960938D062A
:100FE00070938E0680938F069093900610939206CE
:100FF000009391068091C303882369F0802FDF91CD
:10100000CF911F910F91FF90EF90BF90AF909F9065
:101010008F900C94D00503EA13E0D0E2DC0FF801C6
:10102000819191918F01E816F90619F48C2F0E9495
:10103000D005CE5FCD13F3CFDF91CF911F910F91EC
:10104000FF90EF90BF90AF909F908F9008950F9377
:101050001F93CF93DF93ABE9B6E0E2E8F5E003E955
:1010600016E0AF0180E090E020E030E0EA01699115
:101070007991AE01862B972B2F5F3F4F243031059E
:10108000A9F78D939D932085318582859385822B49
:10109000932B24853585822B932BE8018993999393
:1010A0008E017096D6E0A33ABD07D9F6DF91CF91B5
:1010B0001F910F9108952F923F924F925F926F92DE
:1010C0007F928F929F92AF92BF92CF92DF92EF92D8
:1010D000FF920F931F93CF93DF93CDB7DEB7E697C1
:1010E0000FB6F894DEBF0FBECDBFA82EB62EE82EE9
:1010F000E694F12C67012FE0C20ED11CC6010E94BC
:101100006A1A0A2D017010E0000F111F000F111F45
:101110002FE030E0002E01C0220F0A94EAF720955C
:1011200082239B2D9F70292F01C0220F0A95EAF779
:10113000182F122B612FC6010E94181DF701E15EC6
:10114000F94F10830A2D10E0C80182509B4F7C019B
:101150008AE0F70180836801CC0CDD1C98012F5DCB
:10116000394F490131E0B3120AC0F601E654FB4F92
:1011700011821082F401808384E6F70130C09EEF73
:101180009B0D923018F524E630E0F601E654FB4F53
:1011900031832083F401808385E0F801E653FB4F1F
:1011A00080838CE0F801EA53FB4F808388E2F701EB
:1011B000808365E0C801895F9E4F0E94181D6CE026
:1011C000C801855F9E4F0E94181D0AC08EE190E005
:1011D000F601E654FB4F9183808389E1F40180831B
:1011E000F601E654FB4F6081C8018D5F9E4F0E945F
:1011F000181DF4016081C80181509F4F0E94181D85
:10120000A11005C0F701608185E090E017C0F1E012
:10121000AF1205C0F701608186E090E00FC0F2E0F8
:10122000AF1205C0F70160818AE090E007C0F3E0EB
:10123000AF1206C0F70160818BE090E00E94181D9C
:10124000F1E0BF1249C080E091E09A83898320E0F9
:1012500038E03C832B8384E090E09E838D8388E09C
:1012600090E098878F8380E092E09A87898740E4B6
:1012700050E05C874B871E861D86188A1F8640E8D3
:1012800050E05A8B498B1C8A1B8A40E150E05E8BF0
:101290004D8B41E050E0588F4F8B1A8E198E40E2F3
:1012A00050E05C8F4B8F1E8E1D8E18A21F8E1AA2CF
:1012B00019A23CA32BA31EA21DA218A61FA29AA787
:1012C00089A71CA61BA682E090E09EA78DA780E0C0
:1012D00094E098AB8FA773C08EEF8B0D823088F5AA
:1012E00080E098E09A83898380E094E09C838B83FC
:1012F00080E092E09E838D8380E091E098878F83E9
:1013000080E890E09A87898780E490E09C878B87CB
:1013100080E290E09E878D8780E190E0988B8F87B8
:1013200088E090E09A8B898B84E090E09C8B8B8B9B
:1013300082E090E09E8B8D8B81E090E0988F8F8B88
:1013400026C088E890E09A83898381E090E09C83BE
:101350008B8381E190E09E838D8388E096E098877F
:101360008F8382E098E09A87898784E091E09C8768
:101370008B8782E091E09E878D87188A1F861A8A64
:10138000198A1C8A1B8A1E8A1D8A188E1F8A1A8E29
:10139000198E1C8E1B8E1E8E1D8E18A21F8E1AA2D9
:1013A00019A21CA21BA21EA21DA218A61FA21AA649
:1013B00019A61CA61BA61EA61DA618AA1FA6000FCE
:1013C000111F000F111F98012C5F3F4F3AAB29AB43
:1013D0007801EE0CFF1C2701400E511E62013EE118
:1013E000C30ED11CC801880F991F880F991F9EAB8F
:1013F0008DAB8E579A4F3C0157014801E9A9FAA9D4
:101400008E169F060CF04DC0F501E770FF27EE0F1A
:10141000FF1F21E030E02C0F3D1FE20FF31F808102
:1014200091819CAB8BAB6BA9C6010E94181DF50185
:101430003196E770FF27EE0FFF1F21E030E02C0F01
:101440003D1FE20FF31F208031808BA99CA98827C4
:101450009F70622D6295607F692BC60101960E9484
:10146000181DB101607F7F70E4E076956795EA957D
:10147000E1F7C60102960E94181D2BA93CA9F301B1
:1014800031832083338222823FEF831A930A82E0E2
:10149000A80EB11C93E0C90ED11CE4E06E0E711CC5
:1014A000ADCF6201FEE7CF0ED11C2DA93EA92E5B68
:1014B0003A4F39015701480189A99AA98816990616
:1014C0000CF04DC0F501E770FF27EE0FFF1F21E084
:1014D00030E02C0F3D1FE20FF31F808991899CABF8
:1014E0008BAB6BA9C6010E94181DF5013196E77000
:1014F000FF27EE0FFF1F21E030E02C0F3D1FE20F12
:10150000F31F208831888BA99CA988279F70622DA2
:101510006295607F692BC60101960E94181DB1017A
:10152000607F7F7054E0769567955A95E1F7C60124
:1015300002960E94181D2BA93CA9F3013183208338
:10154000338222823FEF831A930A82E0A80EB11CF5
:1015500093E0C90ED11CE4E06E0E711CADCFFEEA23
:101560004F0E511C2DA93EA92E5F3A4F190189A992
:101570009AA9081719070CF047C0F701E770FF2771
:10158000EE0FFF1F21E030E02C0F3D1FE20FF31F95
:10159000C0A0D1A06C2DC2010E94181DF701319688
:1015A000E770FF27EE0FFF1F81E090E08C0F9D1F7B
:1015B000E80FF91FA0A0B1A0C60188279F706A2D6F
:1015C0006295607F692BC20101960E94181DB501CA
:1015D000607F7F7024E0769567952A95E1F7C201D8
:1015E00002960E94181DF101D182C082B382A282AC
:1015F0000F5F1F4FF2E0EF0EF11C23E0420E511C73
:1016000034E0230E311CB3CFE6960FB6F894DEBF5C
:101610000FBECDBFDF91CF911F910F91FF90EF9043
:10162000DF90CF90BF90AF909F908F907F906F9002
:101630005F904F903F902F9008951F920F920FB69A
:101640000F9211242F933F938F939F93EF93FF93C8
:1016500080918800909189000696909389008093EC
:101660008800809184009091850020918B063091B4
:101670008C06821B930B2091890630918A062817CD
:10168000390708F07CC08091840090918500909388
:101690008C0680938B069091880681E08927809341
:1016A000880680918806882309F450C08091A103A0
:1016B0008F5F8093A1038091A103883119F48CE09E
:1016C0008093A10384B1847F84B985B1847F85B977
:1016D00053985B98E091A103F0E0E657FB4F8081BF
:1016E000882361F1E091A10394B1F0E0EE0FFF1FB8
:1016F000E259FE4F8081892B84B9E091A10395B115
:10170000F0E0EE0FFF1FE259FE4F8181892B85B972
:10171000E091A1039AB1F0E0EE0FFF1FEA5AFE4FED
:101720008081892B8AB9E091A1039BB1F0E0EE0F93
:10173000FF1FEA5AFE4F8181892B8BB9E091A103EB
:10174000F0E0E657FB4F808190E012C084B1847FC7
:1017500084B985B1847F85B953985B98E091A103E2
:10176000F0E0E657FB4F208184E690E0821B910970
:10177000880F991F059690938A0680938906809119
:101780008400909185002091860630918706821B07
:10179000930B20918406309185062817390708F0AD
:1017A00084C08091840090918500909387068093F7
:1017B00086069091830681E0892780938306809135
:1017C0008306882309F454C080919F038F5F809320
:1017D0009F0380919F03803319F484E280939F03D9
:1017E00087B18F7C87B988B18F7C88B98DB1837FB1
:1017F0008DB98EB1837F8EB9E0919F03F0E0E657FB
:10180000FB4F8081882361F1E0919F0397B1F0E065
:10181000EE0FFF1FE25FFE4F8081892B87B9E091B9
:101820009F0398B1F0E0EE0FFF1FE25FFE4F818152
:10183000892B88B9E0919F039DB1F0E0EE0FFF1F67
:10184000EA50FF4F8081892B8DB9E0919F039EB1B3
:10185000F0E0EE0FFF1FEA50FF4F8181892B8EB918
:10186000E0919F03F0E0E657FB4F808190E016C0C7
:1018700087B18F7C87B988B18F7C88B98DB1837F20
:101880008DB98EB1837F8EB9E0919F03F0E0E6576A
:10189000FB4F208184E690E0821B9109880F991FFD
:1018A000059690938506809384068091840090919C
:1018B00085002091810630918206821B930B209136
:1018C0007F06309180062817390708F060C08091A4
:1018D0008400909185009093820680938106909178
:1018E0007E0681E0892780937E0680917E0688238C
:1018F000B9F18091A2038F5F8093A2038091A2032C
:101900008C3011F41092A20387B1807F87B988B11F
:10191000807F88B9E091A203F0E0E657FB4F808119
:101920008823B1F0E091A20397B1F0E0EE0FFF1F22
:10193000EA5DFE4F8081892B87B9E091A20398B1BF
:10194000F0E0EE0FFF1FEA5DFE4F8181892B88B921
:10195000E091A203F0E0E657FB4F808190E010C0D9
:1019600087B1807F87B988B1807F88B9E091A20371
:10197000F0E0E657FB4F208184E690E0821B91095E
:10198000880F991F05969093800680937F0680911B
:1019900084009091850020917C0630917D06821B09
:1019A000930B20917A0630917B062817390708F0AF
:1019B00061C0809184009091850090937D06809312
:1019C0007C069091790681E0892780937906809141
:1019D00079068823C1F18091A0038F5F8093A003D3
:1019E0008091A003843219F488E18093A0038AB126
:1019F0008F708AB98BB18F708BB9E091A003F0E042
:101A0000E657FB4F80818823B1F0E091A0039AB1A3
:101A1000F0E0EE0FFF1FE252FF4F8081892B8AB961
:101A2000E091A0039BB1F0E0EE0FFF1FE252FF4FE9
:101A30008181892B8BB9E091A003F0E0E657FB4F41
:101A4000808190E010C08AB18F708AB98BB18F709D
:101A50008BB9E091A003F0E0E657FB4F208184E6CC
:101A600090E0821B9109880F991F059690937B0641
:101A700080937A06FF91EF919F918F913F912F91E3
:101A80000F900FBE0F901F9018958091A70681119F
:101A90004BC10E94CB182091A5063091A606FB01F0
:101AA000E21BF30B20919A0330919B03E217F3079B
:101AB00008F43AC120919C0330919D037093A606CF
:101AC0006093A50661E06093A706789440910806AC
:101AD000509109064130510589F148F042305105D5
:101AE00009F4B4C04330510509F4E9C01BC1E21741
:101AF000F30708F0D0C080910B068F5F80930B0630
:101B00008B3008F40FC181E090E090930906809338
:101B1000080661E070E08091C2060E94ED1D1092FF
:101B2000A40682E590E090939D0380939C0383E25A
:101B300090E090939B0380939A03F4C04091A40695
:101B4000413081F028F0433069F14430C9F1EAC0F6
:101B5000E217F30728F46093A406E093A306E2C01B
:101B600084E01DC0E217F307C8F41092A406909118
:101B70000B069F5F90930B068E2FEE0F990B209113
:101B8000A306821B910927FD939597FF03C09195AA
:101B90008195910943970CF4C5C015C083E08093EB
:101BA000A406C0C0E217F30770F080919E03833053
:101BB00021F482E080939E0319C040939E0316C0D7
:101BC000E217F30798F4109209061092080682E9CA
:101BD00090E090939D0380939C0382E590E0909326
:101BE0009B0380939A0310920B0628C082E090E03A
:101BF000909309068093080682E990E090939D03F4
:101C000080939C0382E590E090939B0380939A03DA
:101C100010920D0610920F061092100610921106E7
:101C200010921206109213061092140680910B0661
:101C300080930E0610920B0610920C0660919E0384
:101C400070E08091C2060E94ED1D6CC050910B06A1
:101C50005F5F50930B0640910C06440FE217F307A9
:101C600008F4416040930C06583009F05BC0E091E5
:101C70000D06E63099F4109209061092080682E9E2
:101C800090E090939D0380939C0382E590E0909375
:101C90009B0380939A0310920B0644C083E090E06C
:101CA000909309068093080681E08E0F80930D06BD
:101CB000F0E0E85FF94F80910C06878333C04091D4
:101CC0000B064F5F40930B06E217F307E0F4109208
:101CD00009061092080682E990E090939D03809394
:101CE0009C0382E590E090939B0380939A0388E0A5
:101CF000EDE0F6E0A5E1B6E001900D928A95E1F7FE
:101D000060930A060FC080910D06863009F4B3CFA8
:101D100082E090E0909309068093080610920B06EB
:101D200010920C061092A7060895CF93DF93EC0152
:101D3000CC0FDD1FFE01EE57FA4F808191810E948A
:101D40009C1D81E192E00E94161DFE01EE5BFA4FA0
:101D5000808191810E949C1D81E192E00E94161D6C
:101D6000CE5FDA4F88819981DF91CF910C949C1DD1
:101D70008830910559F46623F9F022E020931D067E
:101D800020E030E0232B79F00C94000020E030E0DC
:101D9000232BD1F741E0811524E0920708F040E0C1
:101DA000611102C00EC041E09C0127503109223070
:101DB000310538F440E005C020E030E0232B21F766
:101DC00041E0842F08952F923F925F926F927F920D
:101DD0008F929F92AF92BF92CF92DF92EF92FF923B
:101DE0000F931F93CF93DF93CDB7DEB72B970FB62B
:101DF000F894DEBF0FBECDBFF3EACF2EF3E0DF2EA7
:101E0000A12CB12C66246394712C812C912C9E0101
:101E10002F5F3F4F790102EA12E08EE59AE00E94BF
:101E2000271DC4018F5B9F4F0E94821C8FE49AE0A4
:101E30000E94271D2091250630E0C401880F991FBC
:101E4000A90102C0559547958A95E2F7CA018170AC
:101E5000062C02C0359527950A94E2F721703327A6
:101E6000220F331F582E522A6AE070E0852D0E94FF
:101E7000E81C80EA92E00E94991C140151E025229E
:101E80003324220C331C220C331CC40195958795F6
:101E9000FC01E853FC4FF987E887808190E0022C31
:101EA00002C0959587950A94E2F78F709927892B40
:101EB000B9F089E19AE00E94271DE885F9858081C3
:101EC00090E002C0959587952A94E2F78F70992744
:101ED000805C9F4F0E94821C83ED91E00E94991CC0
:101EE000E52DE695F0E0E15EF94F808190E0F52D7B
:101EF000F170FA871B862A853B85220F331F220F3C
:101F0000331F02C0959587952A95E2F7282F2770F1
:101F1000522E8091C303882341F08091C403909195
:101F2000C5038A0D9B1D9F9304C0F60181818F9389
:101F300080818F931F930F93FF92EF920E94183529
:101F40000F900F900F900F900F900F90C7010E946D
:101F5000161D89EA92E00E94161DF1E05F1203C08F
:101F600081EB92E009C08EEF850D823018F488ED88
:101F700091E002C085EB92E00E94991C8091C3031E
:101F8000882341F08091C4039091C5038A0D9B1D65
:101F90009F9304C0F60181818F9380818F931F935B
:101FA0000F93FF92EF920E9418350F900F900F90B1
:101FB0000F900F900F90C7010E94161D89EB92E0C1
:101FC0000E94161DF1E05F1203C082EC92E010C087
:101FD00022E0521205C088EE99E00E94421D0AC01C
:101FE00033E0531203C084ED91E002C085EC92E02F
:101FF0000E94991C8091C303882349F08091C403F7
:102000009091C50301968A0D9B1D9F9304C0F60114
:1020100083818F9382818F931F930F93FF92EF920F
:102020000E9418350F900F900F900F900F900F9007
:10203000C7010E94161D89EA92E00E94161DF1E078
:102040005F1205C080EE99E00E94421D10C022E0A0
:10205000521203C084ED91E008C033E0531203C074
:1020600089EC92E002C087ED92E00E94991C809179
:10207000C303882349F08091C4039091C50301965E
:102080008A0D9B1D9F9304C0F60183818F938281EB
:102090008F931F930F93FF92EF920E9418350F902A
:1020A0000F900F900F900F900F90C7010E94161D78
:1020B00089EB92E00E94161DF1E05F1205C088EDE9
:1020C00099E00E94421D10C022E0521203C084ED2C
:1020D00091E008C033E0531203C08BED92E002C0E0
:1020E0008AEE92E00E94991C8091C303882349F0F4
:1020F0008091C4039091C50302968A0D9B1D9F9306
:1021000004C0F60185818F9384818F931F930F9371
:10211000FF92EF920E9418350F900F900F900F9042
:102120000F900F90C7010E94161D89EA92E00E944D
:10213000161DF1E05F1205C088EC99E00E94421D77
:1021400010C022E0521203C084ED91E008C033E0D9
:10215000531203C08EEE92E002C08DEF92E00E9417
:10216000991C8091C303882349F08091C403909106
:10217000C50302968A0D9B1D9F9304C0F6018581BD
:102180008F9384818F931F930F93FF92EF920E94FE
:1021900018350F900F900F900F900F900F90C70170
:1021A0000E94161D89EB92E00E94161DF1E05F125D
:1021B00003C081E093E00EC022E0521203C084ED20
:1021C00091E008C033E0531203C081E193E002C004
:1021D00080E293E00E94991C8091C303882349F018
:1021E0008091C4039091C50303968A0D9B1D9F9314
:1021F00004C0F60187818F9386818F931F930F937D
:10220000FF92EF920E9418350F900F900F900F9051
:102210000F900F90C7010E94161D89EA92E00E945C
:10222000161DF1E05F1205C08EEA99E00E94421D82
:1022300010C022E0521203C084ED91E008C033E0E8
:10224000531203C084E293E002C083E393E00E9450
:10225000991C8091C303882349F08091C403909115
:10226000C50303968A0D9B1D9F9304C0F6018781C9
:102270008F9386818F931F930F93FF92EF920E940B
:1022800018350F900F900F900F900F900F90C7017F
:102290000E94161D85EA99E00E94271DF1E05F1259
:1022A00003C087E393E005C022E0521205C084ED2D
:1022B00091E00E94991C0AC033E0531203C08CE3E2
:1022C00093E0F7CF8AE999E00E94421D83ED91E007
:1022D0000E94991C4FEF841A940A52E0650E711CFB
:1022E00084E0A80EB11C98E0C90ED11CE4E08E1663
:1022F000910409F092CD2B960FB6F894DEBF0FBE75
:10230000CDBFDF91CF911F910F91FF90EF90DF90A4
:10231000CF90BF90AF909F908F907F906F905F9085
:102320003F902F9008950F931F93CF93DF93D82F53
:1023300082E292E00E94161DED2FE695F0E0E15E4C
:10234000F94F808190E00D2F017010E0000F111FF8
:10235000000F111F02C0959587950A95E2F7C82FC7
:10236000C7706AE070E08C2F0E94E81C85E292E062
:102370000E94161DC11119C081E097E00E94271D1F
:102380008091C70390E002C095958795DA95E2F7B2
:1023900080FF03C080EF96E048C083ED91E0DF91BD
:1023A000CF911F910F910C94991CC13019F48DECB1
:1023B00096E03BC0C230E1F48EEB96E00E94271D10
:1023C000CD2FD0E0FE01EA53FB4F6AE070E0808140
:1023D0000E94E81C8DEA96E00E94271DC653DB4F41
:1023E0006AE070E088810E94E81C8CE996E01DC0DC
:1023F000C33009F58DE896E00E94271DCD2FD0E06F
:10240000FE01EA53FB4F6AE070E080810E94E81C05
:102410008CE796E00E94271DC653DB4F6AE070E010
:1024200088810E94E81C8BE696E0DF91CF911F9196
:102430000F910C94421DDF91CF911F910F91089540
:102440006F927F928F929F92AF92BF92CF92DF92C4
:10245000EF92FF920F931F93CF93DF9300D000D0A2
:102460001F92CDB7DEB783ED91E00E94991C8CE6F8
:1024700099E00E94271D8091C6032AE0829FC00137
:1024800011240E94501D85EE91E00E94991CF2ECEF
:10249000EF2EF5E0FF2E00E010E089E599E00E94C4
:1024A000271D0F5F1F4FC8010E94501D8BEF91E049
:1024B0000E94161D6AE070E0F701819191917F0101
:1024C0000E94091D85EE91E00E94991C0D301105B6
:1024D00021F783ED91E00E94991C5EEFC52E54E038
:1024E000D52E6AEBA62E64E0B62E71E2872E76E03A
:1024F000972E07E010E0E12CF12CEAE06E2E8EE43E
:1025000099E00E94271DC7010E94501D8BE493E0B3
:102510000E94161D8E2D0E949311F701F595E795E7
:10252000E15EF94F808190E0970121703327220FFF
:10253000331F220F331F02C0959587952A95E2F726
:10254000F82FF7707F2E21E0F21303C089EF98E097
:1025500009C08EEF8F0F823018F48DE998E002C029
:1025600088E498E00E94271D6AE070E0F6018191FE
:102570006F010E94E81C86E398E00E94271DF50188
:10258000819191915F019C01629EC001639E900DBB
:1025900011240E94501D82E298E00E94271D6AE0EB
:1025A00070E0F40181914F010E94E81C85EE91E0FA
:1025B0000E94991C8AED97E00E94421D8DE493E0F1
:1025C0000E94161DC80107970E94950EF1E07F1228
:1025D00005C08AEC97E00E94421D04C083ED91E0A3
:1025E0000E94991C83E593E00E94161DC80106977E
:1025F0000E94950E21E0721205C089EB97E00E94BF
:10260000421D04C083ED91E00E94991C89E593E08E
:102610000E94161DC80105970E94950E31E07312A5
:1026200005C087EA97E00E94421D04C083ED91E057
:102630000E94991C8FE593E00E94161DC801049723
:102640000E94950E81E0781205C087E997E00E940C
:10265000421D04C083ED91E00E94991C85E693E041
:102660000E94161DC80103970E94950E91E07912F1
:1026700005C086E897E00E94421D04C083ED91E00A
:102680000E94991C8BE693E00E94161DC8010297D8
:102690000E94950EE1E07E1205C084E797E00E945B
:1026A000421D04C083ED91E00E94991C81E793E0F4
:1026B0000E94161DC80101970E94950EF1E07F123D
:1026C00005C08DE597E00E94421D04C083ED91E0B6
:1026D0000E94991C87E793E00E94161DC8010E9482
:1026E000950E21E0721205C086E497E00E94421D1B
:1026F00004C083ED91E00E94991C83ED91E00E945B
:10270000991C3FEFE31AF30A085F1F4F84E0E816B5
:10271000F10409F0F4CE83E397E00E94421D81E1C9
:1027200097E00E94421D00E010E095E8692E93E0DA
:10273000792EFE0131967F0129E8822E23E0922E28
:102740008DE793E00E94161D1F930F937F926F9267
:10275000FF92EF920E941835C7010E94161D81E179
:1027600092E00E94161D9801265A3B4F59010F9086
:102770000F900F900F900F900F9084E0C82ED12CE7
:10278000F50180811F928F939F928F92FF92EF921B
:102790000E941835C7010E94161D81E192E00E9437
:1027A000161DF1E0CF1AD1082CE0A20EB11C0F903B
:1027B0000F900F900F900F900F90C114D10401F75C
:1027C00083ED91E00E94991C0F5F1F4F0C301105A3
:1027D00009F0B6CF83ED91E00E94991C0F900F9005
:1027E0000F900F900F90DF91CF911F910F91FF905D
:1027F000EF90DF90CF90BF90AF909F908F907F90A1
:102800006F9008952F923F924F925F926F927F92B6
:102810008F929F92AF92BF92CF92DF92EF92FF92F0
:102820000F931F93CF93DF93CDB7DEB72C970FB6DF
:10283000F894DEBF0FBECDBF762E5E834D83290197
:102840002091250630E0482F50E0440F551FBA0173
:102850006F5F7F4FD90102C0B595A7956A95E2F7E2
:10286000BD0161707727660F771F02C035952795E8
:102870004A95E2F7422F4170462B042E000C550B6F
:10288000FA01E250FB4F608026EF3FEFF901E619B5
:10289000F109FC83EB832CE0829FF00111247F017E
:1028A000EE0CFF1C970126533C4F3C872B872224BC
:1028B00033242E183F08690180E090E01A821982C3
:1028C0009201082E02C0369527950A94E2F720FF60
:1028D00014C09C012E0F3F1F265D3B4FD9012C9148
:1028E000222359F09601220D331D2E0D3F1DD901D3
:1028F0000D90BC91A02DBA83A9839801082E02C027
:10290000369527950A94E2F720FF0FC09C012E0F01
:102910003F1F265D3B4FD9012C91222331F0D60178
:102920000D90BC91A02DBC83AB830196B2E0CB0E81
:10293000D11C8C30910521F69F01265D3B4F49014A
:102940005901690120E030E0CA01880F991FBC01DC
:1029500066547B4F78876F83CA018F5D994F9A8742
:102960008987CF01820F931FA201022E02C05695C4
:1029700047950A94E2F740FF13C0D6014C914111EC
:1029800076C0DC01A253BB4F1C92DC01A657BB4FA3
:102990001C92D6016C9269817A81AB85BC851FC07F
:1029A000A801022E02C0569547950A94E2F740FF0F
:1029B00019C0D5014C9141115AC0DC01A253BB4F43
:1029C0001C92DC01A657BB4F1C92D5016C92AB85C3
:1029D000BC85A20DB31DAE0DBF1D6B817C816D93B7
:1029E0007C9345C04D815E81022E02C0569547956D
:1029F0000A94E2F740FF2BC0772051F0AC0142531C
:102A00005B4F865A9B4FDC018C91DA018C931AC084
:102A1000AF81B8854D915C91BAE0B49FC001B59F7C
:102A2000900D1124A985BA856C9170E00E94E5345F
:102A30006C59653608F465E6D901AE0FBF1FA25385
:102A4000BB4F6C93D401A20FB31F1C9210C0DC01CA
:102A5000A253BB4F1C92D401A20FB31F1C92AB8593
:102A6000BC85A20DB31DAE0DBF1D1D921C922F5F24
:102A70003F4FBFEFAB1ABB0A6FEFC61AD60A8B8562
:102A80009C8502969C878B872C30310509F069CF95
:102A90002C960FB6F894DEBF0FBECDBFDF91CF915D
:102AA0001F910F91FF90EF90DF90CF90BF90AF906C
:102AB0009F908F907F906F905F904F903F902F905E
:102AC00008952F923F924F925F926F927F928F92D2
:102AD0009F92AF92BF92CF92DF92EF92FF920F93AD
:102AE0001F93CF93DF9300D01F92CDB7DEB7782E20
:102AF0007694769476948770682E8091250690E07F
:102B0000472C512C9201220F331FA9014F5F5F4FB9
:102B1000BC0102C0759567954A95E2F76170772709
:102B2000660F771F02C0959587952A95E2F7817009
:102B3000682B6983262C312C862F082E000C990BCC
:102B40009B838A835C0163E0AA0CBB1C6A95E1F756
:102B500081010A0D1B1D000F111FF801EE5BFA4FDA
:102B600060817181F801EE5FFA4FA081B1819CE034
:102B7000799EF0011124E253FB4F80E090E0C12CDC
:102B8000D12CE12CF12C812C912C41E050E02191B1
:102B9000222349F09A01082E02C0220F331F0A9403
:102BA000E2F7822A932AE62AF72ACA2ADB2A019622
:102BB0008C30910561F7EA81FB81EE0FFF1FFB83EB
:102BC000EA83E556F94F8081918188219921F1E0CE
:102BD000F983892B09F01982EA81FB81ED56F94FBF
:102BE0008081918188219921892B19F42981226082
:102BF000298383E696E00E94271DC2018F5B9F4FC9
:102C00000E94821C8BEF91E00E94161D8091C703E9
:102C100033E03615F0F1EA81FB81E556F94F20816A
:102C20003181209530958222932290E0072C02C0BA
:102C3000959587950A94E2F780FF10C0662019F0F9
:102C400043E064120BC06A817B816D56794FFB01B2
:102C5000808191818095909588229922F801EE5784
:102C6000FA4F20813181282939293B832A8333E097
:102C7000631651F08DE893E00E94161D6AE070E043
:102C8000862D0E94F61C5AC08AEE92E00E94991C82
:102C900055C04A815B814D56594FFA010190F08130
:102CA000E02DE095F095E821F921FB83EA8390E09F
:102CB000072C02C0959587950A94E2F780FF20C003
:102CC000F501EE0FFF1FEE57FA4F808191812A81A7
:102CD0003B8182239323892B59F4F501EE0FFF1FCB
:102CE000E857FA4F8081918182239323892B41F009
:102CF00037E06316E1F08DE396E00E94421D3DC08F
:102D000047E06416A1F0F801EE57FA4F80819181F7
:102D10006A817B81682B792B7B836A8380E993E0CE
:102D20000E94161DC10104970E947E1D26C082E3E9
:102D300096E00E94421D1B821A821FC06981617049
:102D4000860197014A815B81872D0E9402140F90B2
:102D50000F900F90DF91CF911F910F91FF90EF9007
:102D6000DF90CF90BF90AF909F908F907F906F90AB
:102D70005F904F903F902F900895698166956170A4
:102D8000DFCFCF92DF92EF92FF920F931F93CF93FB
:102D9000DF936C017A018B01C0E0D0E0CE15DF0536
:102DA00081F0D8016D918D01D601ED91FC910190DA
:102DB000F081E02DC6010995892B11F02196EECF07
:102DC0007E01C701DF91CF911F910F91FF90EF908E
:102DD000DF90CF900895FC01918D828D981761F05E
:102DE000828DDF01A80FB11D5D968C91928D9F5F42
:102DF0009F73928F90E008958FEF9FEF0895FC01ED
:102E0000918D828D981731F0828DE80FF11D858D9F
:102E100090E008958FEF9FEF0895FC01918D228D32
:102E2000892F90E0805C9F4F821B91098F739927B7
:102E3000089587EC96E00E940D1721E0892B09F494
:102E400020E0822F0895FC01848DDF01A80FB11DC1
:102E5000A35ABF4F2C91848D90E001968F739927D0
:102E6000848FA689B7892C93A089B1898C918064BD
:102E70008C93938D848D981306C00288F389E02D7E
:102E800080818F7D80830895EF92FF920F931F932F
:102E9000CF93DF93EC0181E0888F9B8D8C8D98130D
:102EA00005C0E889F989808185FD24C0F62E0B8D47
:102EB00010E00F5F1F4F0F731127E02E8C8DE8126B
:102EC0000CC00FB607FCFACFE889F989808185FF2D
:102ED000F5CFCE010E942317F1CF8B8DFE01E80FB5
:102EE000F11DE35AFF4FF0820B8FEA89FB89808145
:102EF000806207C0EE89FF896083E889F989808153
:102F00008064808381E090E0DF91CF911F910F91E9
:102F1000FF90EF900895CF93DF93EC01888D882385
:102F2000C9F0EA89FB89808185FD05C0A889B98936
:102F30008C9186FD0FC00FB607FCF5CF808185FF11
:102F4000F2CFA889B9898C9185FFEDCFCE010E947F
:102F50002317E7CFDF91CF91089580E090E0892B90
:102F600021F00E94191781110DC080E090E0892B9B
:102F700071F080E090E0892B51F00E9400008111F7
:102F800004C008950E940000F0CF0C940000089542
:102F900008950E94FF340C9444340C943C341F92E6
:102FA0000F920FB60F9211242F933F934F935F937D
:102FB0006F937F938F939F93AF93BF93EF93FF9301
:102FC00087EC96E00E942317FF91EF91BF91AF919C
:102FD0009F918F917F916F915F914F913F912F9131
:102FE0000F900FBE0F901F9018951F920F920FB663
:102FF0000F9211242F938F939F93EF93FF93E09160
:10300000D706F091D8068081E091DD06F091DE06CA
:1030100082FD12C090818091E0068F5F8F732091B6
:10302000E106821751F0E091E006F0E0E953F94F34
:10303000958F8093E00601C08081FF91EF919F9171
:103040008F912F910F900FBE0F901F90189590E0C9
:10305000FC013297ED30F10590F5E959FF4F0C94E2
:10306000F934809180008F7703C0809180008F7D3C
:1030700080938000089584B58F7702C084B58F7DDA
:1030800084BD08958091B0008F7703C08091B00017
:103090008F7D8093B0000895809190008F7703C05A
:1030A000809190008F7D8093900008958091A00082
:1030B0008F7703C08091A0008F7D8093A00008953A
:1030C0001F93CF93DF93282F30E0F901E65DFE4F89
:1030D0008491F901E15FFE4FD491F901EC50FF4F6B
:1030E000C491CC23C1F0162F81110E942718EC2F18
:1030F000F0E0EE0FFF1FEF57F54FA591B4919FB78A
:10310000F894111104C08C91D095D82302C0EC9191
:10311000DE2BDC939FBFDF91CF911F910895CF935A
:10312000DF9390E0FC01E15FFE4F2491FC01EC5045
:10313000FF4F8491882361F190E0880F991FFC0173
:10314000EB58F54FC591D491FC01EF57F54FA59180
:10315000B491611109C09FB7F894888120958223AA
:103160008883EC912E230BC0623061F49FB7F894F2
:103170008881322F309583238883EC912E2B2C93DA
:103180009FBF06C08FB7F894E8812E2B28838FBF8E
:10319000DF91CF9108953FB7F8948091AD0690915B
:1031A000AE06A091AF06B091B00626B5A89B05C0AB
:1031B0002F3F19F00196A11DB11D3FBFBA2FA92FB6
:1031C000982F8827820F911DA11DB11DBC01CD0133
:1031D00042E0660F771F881F991F4A95D1F708951F
:1031E0008F929F92AF92BF92CF92DF92EF92FF9217
:1031F0006B017C010E94CB184B015C01C114D1040E
:10320000E104F104F1F00E94CB18DC01CB01881934
:103210009909AA09BB09883E9340A105B10570F33D
:1032200021E0C21AD108E108F10888EE880E83E097
:10323000981EA11CB11CC114D104E104F10419F7BA
:10324000DDCFFF90EF90DF90CF90BF90AF909F9039
:103250008F9008952FB7F8946091A9067091AA06EF
:103260008091AB069091AC062FBF08951F920F92EC
:103270000FB60F9211242F933F938F939F93AF9389
:10328000BF938091A9069091AA06A091AB06B09138
:10329000AC063091A80623E0230F2D3720F40196C9
:1032A000A11DB11D05C026E8230F0296A11DB11D69
:1032B0002093A8068093A9069093AA06A093AB0634
:1032C000B093AC068091AD069091AE06A091AF068A
:1032D000B091B0060196A11DB11D8093AD069093EB
:1032E000AE06A093AF06B093B006BF91AF919F9189
:1032F0008F913F912F910F900FBE0F901F901895B7
:103300001F920F920FB60F9211242F933F934F935A
:103310005F936F937F938F939F93AF93BF93EF933D
:10332000FF93E0910201F09103010995FF91EF9164
:10333000BF91AF919F918F917F916F915F914F91CD
:103340003F912F910F900FBE0F901F9018951F92D5
:103350000F920FB60F9211242F933F934F935F93C9
:103360006F937F938F939F93AF93BF93EF93FF934D
:10337000E0910001F09101010995FF91EF91BF915A
:10338000AF919F918F917F916F915F914F913F91FD
:103390002F910F900FBE0F901F901895CF93C82FAD
:1033A00080E090E0892B51F08091B3068C1731F0CA
:1033B00081E0C11101C080E00E940000C093B3060B
:1033C000CC2319F00E942A1903C060E070E0CB0101
:1033D0006093B4067093B5068093B6069093B706D3
:1033E00080E090E0892B59F08091B306C81739F03E
:1033F00081E0C11101C080E0CF910C940000CF9119
:1034000008950E94CE19E1EBF6E081E087831086F3
:1034100088E0EAEBF6E0DF011D928A95E9F708956E
:103420001F93CF93DF938331910550F48131910540
:1034300090F48130910579F08930910591F40BC0B9
:103440008D31910571F42091B1062F73362F307CA8
:10345000232B2093B1062FEF3FEF3093C506209327
:10346000C40620E030E0232B29F0DF91CF911F919B
:103470000C940000162FEC010E94CD17181721F1B3
:10348000612FCE010E94CB17612FCE018C5A9E4F27
:103490000E94CB17612FCE0188559D4F0E94CB17FC
:1034A00080E090E0892B21F0612FCE010E94000086
:1034B00080E090E0892B41F08091B10684FD04C04A
:1034C000612FCE010E940000CE01DF91CF911F91AC
:1034D0000C94CD17CF92DF92EF92FF920F931F9330
:1034E000CF93DF9320E030E0232B51F0DF91CF9199
:1034F0001F910F91FF90EF90DF90CF900C94000000
:103500008C010E94CD17C82F68018CEAC81A8EEF73
:10351000D80AC6010E94CD17D82F780188E5E81A8D
:103520008DEFF80AC7010E94CD17CD1769F0D813A7
:1035300006C06D2FC8010E94CB17CD2F0BC0C8133A
:1035400009C06C2FC60104C0C81721F06C2FC70139
:103550000E94CB178C2FDF91CF911F910F91FF907D
:10356000EF90DF90CF900895DF92EF92FF920F934C
:103570001F93CF93DF938B01E42E82FF24C083FF40
:1035800016C061E0C8010E94B80E882309F450C03B
:103590006E2DC8010E94101AE8124AC0DF91CF9127
:1035A0001F910F91FF90EF90DF900C94BE0560E0AB
:1035B000C8010E94B80E8823D9F1C8010E946A1A76
:1035C0008E1136C0EBCF842F8770C1E0D0E001C0F0
:1035D000CC0F8A95EAF7842F8870D82ECB010E94F1
:1035E0006A1AF82EE4FE15C061E0C8010E94B80E08
:1035F0008823F1F0DD2011F0CF2904C08C2F8095B5
:10360000C82FCF216C2FC8010E94101AC81310C0F8
:10361000C5CF60E0C8010E94B80E882349F0CF21D1
:10362000DD2019F0C111BACF03C0CC2309F4B6CF05
:10363000DF91CF911F910F91FF90EF90DF90089550
:10364000CF932091C4063091C5062F3F8FEF3807E6
:1036500011F0C90148C08DE190E00E946A1A87FF0D
:1036600023C086FF0CC089E090E00E946A1AC82F30
:1036700081E090E00E946A1A2C2F30E024C089E09B
:1036800090E00E946A1AC82F81E090E00E946A1AB6
:10369000C77090E4C99F900111248F73282B309339
:1036A000C5062093C4061BC085FF10C081E190E0D1
:1036B0000E946A1AC82F82E190E00E946A1A2C2F99
:1036C00030E0205C3109322F2227E8CF81E090E002
:1036D0000E946A1A90E09093C5068093C406809178
:1036E000C4069091C506CF910895CF92DF92EF92D4
:1036F000FF920F931F93CF93DF937C016B01C42F35
:10370000122FD42FD07E8091B10687FF1CC0D03EEF
:1037100009F0EFC08091B206882309F4EAC090E076
:103720000E946A1AD82F8091B20690E001960E94FA
:103730006A1A4D2F50E0582B8FE3F8224E155F0583
:1037400009F0D7C019C080FF09C00E94201BE816ED
:10375000F90621F0E114F10409F0CBC0D03621F1D3
:10376000F0F0D03A09F48BC008F4A2C0D03C09F4C0
:10377000AAC0D03E09F0BDC08C2F8370612F70E0CD
:10378000782B6F5F7F4F402F8C2FDF91CF911F9150
:103790000F91FF90EF90DF90CF900C94B41AD0323D
:1037A000C1F1D03409F053C080E090E0892BF9F0EA
:1037B0008C2F8F71813029F078F0803169F0813160
:1037C00011F440E00AC04C2F4F70440FC4FB88270F
:1037D00080F9482B425001C041E0C5FB222720F967
:1037E0000DE110E030E0B601C7010E94000080E06A
:1037F00090E0892B09F47DC04C2FB601C701DF9101
:10380000CF911F910F91FF90EF90DF90CF900C948C
:103810000000CF71CF3109F06CC080E090E0892BBF
:1038200009F467C0412F4F7721F0413019F440E08F
:1038300001C041E0612F661F6627661F262F30E01A
:103840000FE710E0B601C7010E94000052C0D1117D
:1038500050C08C2F8E7009F04CC080E090E0892B16
:1038600009F447C0C0FF45C081E0DF91CF911F91AF
:103870000F91FF90EF90DF90CF900C94000080E0CC
:1038800090E0892BB1F12C2F2F70C4FF0EC042E0C5
:1038900050E0B601C701DF91CF911F910F91FF90CA
:1038A000EF90DF90CF900C94000043E050E0F1CF18
:1038B000D038F9F480E090E0892BD9F02C2F2F71CB
:1038C00041E050E0E6CFCF71CE3119F0CF3149F071
:1038D00010C080E090E0892B61F0212F44E050E09F
:1038E000D8CF80E090E0892B21F0212F45E050E0F7
:1038F000D0CFDF91CF911F910F91FF90EF90DF908C
:10390000CF900895682F87EC96E00C9444170097A9
:1039100069F0FC0101900020E9F73197AF01481BE5
:10392000590BBC0187EC96E00C94C11680E090E046
:103930000895CF93DF930E94871CEC0181ED91E005
:103940000E94871C8C0F9D1FDF91CF9108958F924D
:103950009F92AF92BF920F931F93CF93DF93CDB7F8
:10396000DEB7A1970FB6F894DEBF0FBECDBF19A288
:10397000423008F44AE08E010F5D1F4F842E912CD7
:10398000A12CB12CA50194010E948434E62FB90129
:10399000CA0101501109EA3014F4E05D01C0E95C8C
:1039A000D801EC93232B242B252B61F7C8010E940F
:1039B000871CA1960FB6F894DEBF0FBECDBFDF9176
:1039C000CF911F910F91BF90AF909F908F900895CE
:1039D000AB01682F4115510521F487EC96E00C945A
:1039E000441770E080E090E00C94A71CCF93DF9325
:1039F0000E94E81CEC0181ED91E00E94871C8C0F75
:103A00009D1FDF91CF910895682F87EC96E00C946D
:103A10004417AB01672B29F4682F87EC96E00C94D0
:103A20004417BC0180E090E00C94A71C0C94871C08
:103A3000CF93DF93C1EBD6E02881206128830E94D9
:103A4000101A98819F7E9883DF91CF9108950F93EC
:103A50001F93CF93DF938C01C0E0D0E0F801EC0F0F
:103A6000FD1F6491662341F087EC96E00E944417A5
:103A7000892B11F02196F2CFCE01DF91CF911F91CA
:103A80000F910895CF93DF930E94271DEC0181EDE4
:103A900091E00E94871C8C0F9D1FDF91CF910895AC
:103AA000CF92DF92EF92FF92CF93DF936C01990F49
:103AB000EE08FF08F7FE17C08DE20E94041DEC011E
:103AC00066277727CB016C197D098E099F094AE08B
:103AD0000E94A71C8C0F9D1FDF91CF91FF90EF904C
:103AE000DF90CF9008954AE0C701B601DF91CF91F2
:103AF000FF90EF90DF90CF900C94A71CCF93DF93B3
:103B00000E94501DEC0181ED91E00E94871C8C0FFA
:103B10009D1FDF91CF910895CF93DF936AE070E00E
:103B20000E94091DEC0181ED91E00E94871C8C0F21
:103B30009D1FDF91CF910895CF92DF92EF92FF9278
:103B40000F931F93CF93DF93CDB7DEB764970FB674
:103B5000F894DEBF0FBECDBFD82EC92E42E0CE01F5
:103B600001967C01BC018D2D9C2D0E941234F70121
:103B700001900020E9F731978F010E191F090C30D1
:103B8000110534F480E30E94041D0F5F1F4FF7CF2F
:103B9000C7010E94161DCF92DF9283E993E09F93A5
:103BA0008F93FF92EF920E941835C7010E94161D55
:103BB0000F900F900F900F900F900F9064960FB68C
:103BC000F894DEBF0FBECDBFDF91CF911F910F9153
:103BD000FF90EF90DF90CF9008958230F8F4E82FB7
:103BE000F0E0EE0FFF1FE050FF4F25E43DE0318392
:103BF0002083813041F0809169008C7F682B609335
:103C00006900E89A089580916900837F660F771FA5
:103C1000660F771F682B60936900E99A0895CF9328
:103C2000DF93CDB7DEB76E970FB6F894DEBF0FBE49
:103C3000CDBF789484B5826084BD84B5816084BD35
:103C400085B5826085BD85B5816085BD80916E003A
:103C5000816080936E00109281008091810082606B
:103C600080938100809181008160809381008091A8
:103C700080008160809380008091B1008460809397
:103C8000B1008091B00081608093B000809191007C
:103C90008260809391008091910081608093910077
:103CA000809190008160809390008091A10082605B
:103CB0008093A1008091A10081608093A1008091F8
:103CC000A00081608093A00080917A00846080933E
:103CD0007A0080917A00826080937A0080917A00E5
:103CE000816080937A0080917A00806880937A0066
:103CF0001092C100E091D706F091D80602E000834F
:103D0000E091D306F091D4061082E091D506F091AF
:103D1000D60680E180831092DF06E091DB06F09109
:103D2000DC0686E08083E091D906F091DA06808196
:103D300080618083E091D906F091DA068081886005
:103D40008083E091D906F091DA06808180688083D3
:103D5000E091D906F091DA0680818F7D808361E061
:103D60008DE00E948F1881E2E0E0F0E08093570040
:103D70001491E2E0F0E080935700E490EB82E4E0FD
:103D8000F0E080935700F490F9822E2D253931F41C
:103D90003F2D363119F41E3109F455C097E3E92E51
:103DA00091E0F92E2CE1C22E21E0D22E31E0A32E9B
:103DB00031E0B32EF7018491F6010491F50194905E
:103DC0009920A1F081110E942718E92DF0E0EE0F53
:103DD000FF1FE851FF4FA591B4918C91082391E00A
:103DE00080E009F490E0692F782F02C060E070E075
:103DF000F1E06F278DE00E94601884E791E00E9457
:103E0000271D60E170E0812F0E94E81C83E192E0B1
:103E10000E94161D60E170E08B810E94E81C83E126
:103E200092E00E94161D60E170E089810E94E81C0A
:103E300085E491E00E94421D68EE73E080E090E02E
:103E40000E94F018B7CF61E08CE00E948F1862E00A
:103E50008AE00E948F183E98469A8EEA91E00E946E
:103E6000161D80E090E00E947E1D1092C206009315
:103E7000C30660E082E00E948F1861E082E00E9449
:103E8000601885E1E8E0F6E0DF011D928A95E9F728
:103E900083E080939E0382E990E090939D0380935A
:103EA0009C0382E590E090939B0380939A0363E0E8
:103EB00070E08091C2060E94ED1D80EC8093B106F7
:103EC0001092B2068FEF9FEF9093C5068093C406C1
:103ED0001092C6068DE190E00E946A1A682F606C0D
:103EE0008DE190E00E94101A6AE087E090E00E9465
:103EF000101A6DE088E090E00E94101A80E00E94A5
:103F0000011A0E94C8310E9420120E94E30E83ED24
:103F100091E00E94991C84E690E090938900809340
:103F20008800F894109280001092810080918100A6
:103F300083608093810080916F00826080936F0026
:103F40001092A2038CE08093A10388E18093A003E8
:103F500084E280939F037894F7E22F2EF6E03F2EC1
:103F6000AAE07A2EBAEF4B2E512C87EC96E00E94F5
:103F70000D17181619060CF0AEC787EC96E00E94D4
:103F8000EB168C3349F463ED71E087E296E00E9412
:103F9000113510922606E9CF8E3309F077C78FECE2
:103FA00091E00E94161D87E296E00E94161D8EED9C
:103FB00091E00E94991C909128069A3309F0A3C4BD
:103FC000809129068335D1F480912A068836B1F490
:103FD00080912B06803339F498E49093290690E77A
:103FE00090932A060BC0813349F488E48093290614
:103FF00080E780932A0683E380932B06909127061F
:10400000892F8F7D8154843008F03AC1E92E990FB1
:10401000FF089701215431092530310544F0205221
:104020003109253031051CF08AE194E09AC680916F
:10403000250690E08901000F111FA8014F5F5F4F17
:10404000FC0102C0F595E7954A95E2F7AF01417092
:104050005527440F551F002E02C0959587950A9449
:10406000E2F78170842BE82FE695F0E0E15EF94FEE
:10407000408150E081708F8B188E8F89988D880FCA
:10408000991F880F991F02C0559547958A95E2F7A9
:1040900047707901E3E0EE0CFF1CEA95E1F7FA8244
:1040A000E98260912B0680ED860F90912906509150
:1040B0002A06983439F45037F9F4843008F0DFC612
:1040C0008E0D52C0963549F45237B1F4833008F062
:1040D000D6C609810C5F800F47C0913469F455370B
:1040E00059F4633749F441504330E0F5F901E452A3
:1040F000FA4F8CE08083C3C650ED590F5430B8F5A9
:1041000082E194E00E94271D809127060E94041DF1
:1041100083E094E00E94271D80912906082E000C60
:10412000990BC0970E947E1D63E070E0002E01C0D5
:10413000660F0A94EAF760958091250668238091BE
:104140002906082E000C990BC09701C0880F0A950C
:10415000EAF7682B6093250684E090E00E94181D22
:104160000E9427088981895F0E94D00588C6592F3F
:104170005F7D5154543008F05BC0892F990F990B23
:104180008C01015411090530110514F00052110978
:104190000F5F1F4F49815A8157FF04C0415F5F4F36
:1041A0005A834983E981FA81B4E0F595E795BA9598
:1041B000E1F7FA83E983C90162E070E00E94E53427
:1041C000880F991F880F991F2FE030E0082E01C03B
:1041D000220F0A94EAF72095E853FC4F608162238E
:1041E00098012F70332701C0220F8A95EAF7622BBE
:1041F000608389819A810C960E94181D86EF93E056
:104200000E94271D809127060E94041D012B19F48E
:104210008FED93E0A6C58BEB93E00E94271D809164
:1042200029060E94041D81ED91E00E94871C27C68B
:10423000442309F424C69D3249F09B3249F09F364D
:1042400061F09F3479F09F3299F004C080E015C08E
:1042500081E013C09C3771F002C082E00EC093323F
:1042600059F002C083E009C09A3239F487E005C0F2
:1042700084E003C085E001C086E0F9818F0F74CF30
:1042800080ED890F843008F0FAC5E92E990FFF08F8
:104290008701005311091C830B838091260690E04F
:1042A000EAE2F6E000E010E09F01275236402817CE
:1042B000390794F4419120ED240F2A30A8F7709E1D
:1042C0009001719E300D1124890100531109040FD2
:1042D000111D47FD1A95E8CF209129062F7D223424
:1042E00009F054C00F3F110519F010F00AE010E07A
:1042F00080EB93E00E94271D8B819C810E94501DC2
:104300008CE993E00E94271DC8010E948C1D2B811F
:104310003C8122503B4F7901D9010C93EB81FC8108
:10432000EF2B21F4602F85E090E011C02B813C81C0
:104330002130310521F4602F86E090E008C04B81E8
:104340005C81602F4230510589F48AE090E00E9440
:10435000181D8CE00B811C81809FF001819FF00D66
:104360001124E65DFB4F80E090E009C08BE090E017
:10437000EECF019631968C30910509F480C52081ED
:104380002223B9F3D7012C912083F3CF2C3409F0E9
:104390009BC080912A06853609F05EC080912B066D
:1043A000982F9F7D943441F590912C069F7D9134F8
:1043B00019F590912D069F7D9E34F1F40D30110575
:1043C00010F005E010E081E993E00E94271D8B8149
:1043D0009C810E94501D8CE793E00E94271DC8011C
:1043E0000E948C1DEB81FC81E653FB4F0083602F04
:1043F000C70189529F4F32C38F7D843469F5809104
:104400002C068F7D8D3441F580912D06813621F566
:1044100080912E068F7D8835F9F40D30110510F04E
:104420000CE010E081E793E00E94271D8B819C81C6
:104430000E94501D8BE593E00E94271DC8010E9439
:104440008C1D2B813C812A533B4FD9010C93602F4B
:10445000C70185529F4F02C32091C703012B11F45E
:104460000C94043141E050E060E070E00B8004C047
:10447000440F551F661F771F0A94D2F7422B4093B3
:10448000C7036091C7038EE090E00E94181D80E58D
:1044900093E00E94271D8B819C810E94501D8EE31A
:1044A00093E00E94271D8091C70390E00B8002C01B
:1044B000959587950A94E2F780FF03C084ED91E01B
:1044C0002FC488ED91E02CC42434B9F520912A063C
:1044D0002F7D2A3509F05BC0C8016AE070E00E94B8
:1044E000D1346F3F710519F010F06EE170E00B816F
:1044F0001C81000F111F06541B4FF801718360834C
:1045000083E393E00E94271D8B819C810E94501DB4
:1045100082E293E00E94271DD8018D919C91FC01BD
:104520007E9EC0017F9E900D11240E947E1DD801A9
:104530006C91C7018D529F4F91C2263431F5209165
:104540002A062F7D243519F50F3F110519F010F0BB
:1045500009E110E0EB81FC81EF5DF94F6F01008311
:1045600087E193E00E94271D8B819C810E94501D52
:1045700087E093E00E94271DC8010E948C1DD60190
:104580006C91C70181539F4F69C2243529F0EDE238
:10459000F6E000E010E06AC0602F6F708B810E942F
:1045A0005B088CEF92E00E94271D809127060E94F5
:1045B000041D8CED91E00E94161D8B810E949311C9
:1045C0000E9420127CEDC72E75E0D72EE8EEEE2E6D
:1045D000E5E0FE2EB7E0B983812C912C5801E2E092
:1045E000AE1AB108FCE06F2E8091250690E0082CF1
:1045F00002C0959587950A94E2F7837099272B81DD
:104600003C812817390791F40130110521F0F2E0BF
:10461000AF16B10440F4D6016C92F70110821182FA
:104620001282138203C089810E94D005F2E08F0EAE
:10463000911C2FEFC21AD20A34E0E30EF11C49811B
:10464000485F4983473281F61AC4219130ED320F19
:104650003A3060F4709EB001719E700D11248B0190
:1046600000531109020F111D27FD1A959F012752B2
:104670003640281739074CF3011550E1150708F0AB
:10468000FEC380912C068D3331F08852823018F0B1
:1046900089EE92E066C38EED92E00E94271D8B8129
:1046A0009C810E94501D80E593E00E94161D809120
:1046B0002B0690912906983491F490912A06903710
:1046C00009F0DDC360EDF62EF80E8BED92E00E944E
:1046D000271D6AE070E08F2D0E94E81C13C09635FC
:1046E00021F590912A06923709F0C9C354EDF52EB1
:1046F000F80E88ED92E00E94271D8F2D90E0049720
:104700000E94501D80EE91E00E94161D62E070E054
:10471000C8010E94091D82E192E00E94161D6AE014
:1047200070E0C8010E94091D1FC0913409F0A7C3A1
:1047300090912A06953709F0A2C3833709F09FC3E9
:104740008FEC92E00E94271D62E070E0C8010E9499
:10475000091D82E192E00E94161D6AE070E0C80126
:104760000E94091D47E0F42E85EB92E00E94271D70
:1047700080912C068D33D1F48BEA92E00E94421D89
:10478000EB81FC8123E0EE0FFF1F2A95E1F7EF0D8F
:10479000F11DEE0FFF1FEE57FA4F118300830E94A9
:1047A00027086EE170E07C8B6B8B33C08832C1F4DC
:1047B00089E992E00E94421DEB81FC8183E0EE0FCB
:1047C000FF1F8A95E1F7EF0DF11DEE0FFF1FEE5B66
:1047D000FA4F118300838EE790E09C8B8B8B19C07E
:1047E0008932B9F487E892E00E94421DEB81FC8196
:1047F000A3E0EE0FFF1FAA95E1F7EF0DF11DEE0FFD
:10480000FF1FEE5FFA4F11830083AEEAB0E0BC8B6E
:10481000AB8B8CE0EB81FC818E9F60018F9FD00C75
:1048200011248F2D8695F3E08F9FC00CD11C11248D
:104830002B893C89C20ED31EF0FC16C0602FC60126
:104840000E94181D3FEFC31AD30AC6010E946A1ABC
:1048500000271F70807F682F612BC6010E94181DE2
:10486000E12C00E010E02EC056014FEFA41AB40A6C
:10487000C5010E946A1A8F70902F9295907F682FC1
:10488000692BC5010E94181DB801607F7F70E4E0AC
:1048900076956795EA95E1F7C6010296DFCFB7E016
:1048A000FB1621F087E08E0D0E94D0058F2D8E0D16
:1048B0000E94D0050E5F1F4FE8E0EE0EF0E2EF160B
:1048C00009F4DDC28091250690E098012F5F3F4FEB
:1048D000BC0102C0759567952A95E2F79B0121708E
:1048E0003327220F331F002E02C0959587950A9417
:1048F000E2F781709927822B932BAB81BC81A8179B
:10490000B907C1F6CCCF30912606A8E2B6E0FD018A
:1049100061E070E0432F50E06417750744F4819123
:104920008A3311F4262F04C06F5F7F4FF5CF232FFA
:1049300000E010E0E22FF0E0BD01675276406E1714
:104940007F0794F48D9160ED680F6A30A8F7709E30
:10495000B001719E700D1124082F880F110B0053A8
:104960001109060F171FE8CFE85DF94F1A82198267
:10497000BF016752764064177507B4F4819160ED0A
:10498000680F6A30A8F7E980FA807E9CD0017F9C8E
:10499000B00D1124682F880F770B605371096A0FCF
:1049A0007B1F7A836983E4CF50912706452F4F7D83
:1049B0004235D9F4953609F032C180912906833702
:1049C00009F02DC180912A06853609F028C1809111
:1049D0002B06843709F023C185E792E00E94421D2F
:1049E0000E942E310E94C8314AC2443409F0B6C038
:1049F000892F8F7D833409F012C180912906682F99
:104A00006F7D633471F560912A066F7D643449F5DA
:104A100060912B066F7D6A3521F587E492E00E9454
:104A2000271DC8016AE070E00E94D134CB010197D4
:104A30008E3F910510F062E370E06093C603769EAE
:104A4000C001779E900D11240E94501D85EE91E0CB
:104A50000E94991C6091C6038FE091E00E94181D8E
:104A60000EC28F7D833409F0DAC0321318C0109360
:104A7000C5030093C403602F81E090E00E94181DDD
:104A80006091C50389E090E00E94181D81E0809349
:104A9000C30361E08EED90E00E94181DA3C08981E0
:104AA0009A8101979A8389838032910508F053C0D7
:104AB0007C01F694E7941092C30360E08EED90E0E1
:104AC0000E94181D6701CC0CDD1C612FC6018152AC
:104AD0009F4F0E94181D602FC60180529F4F0E9459
:104AE000181DF601ED55FC4F118300838FE392E012
:104AF0000E94271DA981BA8153E0B695A7955A95C2
:104B0000E1F7BD016F5B7F4F87EC96E00E94441791
:104B100085E392E00E94271DB3E0EB22FF24F7011A
:104B2000EE0FFF1FFA83E9836AE070E0CF01019680
:104B30000E94091D88EE91E00E94161D6AE070E057
:104B400089819A8102960E94091D8AEE91E00E9455
:104B5000161DC80192C182E292E003C14A35F1F507
:104B60009801215031092D30310508F088C1898123
:104B70009A8183589F4FB2010E94D1344AEF469FD9
:104B8000C001479F900D11247901EE0CFF1C970185
:104B90002E533A4F3A832983D9018D939C93B201C6
:104BA0000E94D134C80140960E94181D8FE092E007
:104BB0000E94271D6AE070E0C8010E94091D8BEF6A
:104BC00091E00E94161D6AE070E0E981FA8180811F
:104BD00091810E94091D85EE91E0A2C0493429F41B
:104BE0000E9420120E94E30E4AC14435C1F48BEEAC
:104BF00091E00E94421DEAE5F4E080E090E021911E
:104C0000DC01A657BB4F2C93019680339105B9F771
:104C100064EF71E080E090E00E94F01830C15335FD
:104C200009F081C080E092E00E94161D1A8219826C
:104C300089819A816CE070E00E94E534892B21F42F
:104C400088E092E00E94161DE981FA81E657FB4F49
:104C500080816AE070E00E94E81C83E192E00E949B
:104C6000161D09811A810F5F1F4F1A8309830033B4
:104C70001105F1F68BE092E00E94991C8DE092E024
:104C80000E94161D0EEC14E01A82198289819A8105
:104C90006CE070E00E94E534892B21F488E092E01A
:104CA0000E94161D6AE070E0D8018D918D010E946E
:104CB000E81C83E192E00E94161DE981FA81319699
:104CC000FA83E983F09711F78BE092E00E94991C38
:104CD00085E192E00E94161D0AE214E01A82198210
:104CE00089819A816CE070E00E94E534892B21F47F
:104CF00088E092E00E94161D6AE070E0D8018D9174
:104D00008D010E94E81C83E192E00E94161DE9815A
:104D1000FA813196FA83E983F09711F78BE092E0FC
:104D20000E94991CACC0892F8F7D8154843008F07B
:104D3000A6C0892F990F990B7C01F1E4EF1AF108B5
:104D400025E0E216F10444F07C0131E6E31AF108B3
:104D500065E0E616F1041CF40C3011052CF086ED2C
:104D600091E00E94421D8BC02CE02E9DC0012F9D22
:104D7000900D1124080F191F5B3209F03FC0C801C4
:104D8000865A9B4F6C01A981BA81AB2B19F02981FE
:104D9000FC012083D6018C91853610F084E68C933B
:104DA000F6016081C801825B9F4F0E94181DF801C7
:104DB000E253FB4FD6018C918083F801E65DFB4FF7
:104DC000108283EC91E00E94271DC7018F5B9F4FEB
:104DD0000E94821CC8016CE070E00E94D1346AE03D
:104DE00070E00E94091D84EB91E00E94271D6AE09B
:104DF00070E0F60180810E94F61C41C05D32B9F47A
:104E0000F801E253FB4F1082F801E65DFB4F108280
:104E100080EA91E00E94271DC7018F5B9F4F0E948F
:104E2000821CC8016CE070E00E94D13426C042347C
:104E300031F5F801E65DFB4F29812083F801EE0F83
:104E4000FF1FE653FC4F1182108280E991E00E941F
:104E5000271DC7018F5B9F4F0E94821CC8016CE019
:104E600070E00E94D1346AE070E00E94091D86E87B
:104E700091E00E94271D89819A810E948C1D63ED1B
:104E800071E087E296E00E9411356FC8F101019050
:104E90000020E9F73197E752F6403F9708F065C8E0
:104EA000282F082E000C330B3F938F933F922F92A5
:104EB0004DE152E05F934F933F922F920E9418353D
:104EC000809126068F5F809326060FB6F894DEBF8A
:104ED0000FBECDBF4AC80E942A194B015C016093E6
:104EE0007506709376068093770690937806809186
:104EF0002506E82FF0E0FA87E98705E616E01C832F
:104F00000B832EEC34E03A8B298B0AE514E04AEC53
:104F100053E058874F833E832D83E12CF12C212CC5
:104F2000312CEB81FC8180819181A281B381A5012B
:104F30009401281B390B4A0B5B0BDA01C901E98587
:104F4000FA85022C02C0F595E7950A94E2F7E37022
:104F5000F0E0EF5DF94F408150E060E070E048170D
:104F600059076A077B0708F0F4C0EB81FC81808257
:104F70009182A282B382EF866D807E8068012F814C
:104F800038853C8F2B8F412C512C19829701240D91
:104F9000351D4CE04416510409F492C0F901E6575E
:104FA000FB4F5081D3014C91541709F45AC08081B2
:104FB000481708F58081D6012C9130E0B4E68B9F2C
:104FC000C0011124B9010E94E5346A507109629F41
:104FD000C001639F900D729F900D112464E670E0F4
:104FE0000E94E53460838081841708F44083E9815E
:104FF000E260E98355C0453620F0F981F460F98319
:105000004FC08081D6019C91692F70E07C876B87AF
:1050100074E6879FC00111246B857C850E94E5346E
:10502000665F7F4FAB85BC856A9FC0016B9F900D0B
:105030007A9F900D112464E670E00E94E53480812F
:1050400090E06817790721F480818F5F808301C029
:105050006083F901E657FB4F8081481708F54083CC
:105060001FC0F901E65DFB4F80818823C9F0EB8DFD
:10507000FC8D208131812F5F3F4F3183208390E071
:10508000281739076CF0511105C0D6018C91F30136
:10509000808302C0D3011C92EB8DFC8D11821082A3
:1050A000FFEF4F1A5F0A2B8D3C8D2E5F3F4F3C8FD9
:1050B0002B8F3FEFC31AD30A4FEF641A740A66CFDF
:1050C000E981E1FD46C0E2FF44C08F856CE00E94AB
:1050D000C534880F29853A8502C0359527958A956C
:1050E000E2F721FB332730F93D8B1E8AB801ED81B1
:1050F000FE814DE050E08D899E89815E994F6C0163
:105100009F012E5C34404150510919F1808186364F
:10511000B8F0D6018C9190E021703327220F331F15
:10512000220F331F02C0959587952A95E2F7877065
:10513000813019F4DB018C9180838081815004C01F
:10514000853619F4DB018C91808331966F5F7F4F38
:10515000D7CFB2E02B0E311CEB81FC813496FC835F
:10516000EB832D813E81245F3F4F3E832D833CE0C6
:10517000E30EF11C045F1F4F4F815885485E5F4F5F
:1051800058874F8358E02516310409F0CACE809124
:105190001F0681110AC080912006811106C08091EE
:1051A000B306882309F434C51CC56BE376E07A8323
:1051B000698308EE202E05E0302E8CEDE82E85E088
:1051C000F82E82EC94E09E838D83A7E3B6E0BC8347
:1051D000AB83E4EEF5E0F88BEF8701E410E01C8789
:1051E0000B871F821A8619868091250690E02985F3
:1051F0003A852F5F3F4FAC0102C0559547952A95E0
:10520000E2F79A0121703327A901440F551F9C0131
:10521000098402C0359527950A94E2F72170242B62
:105220002B8FE22FE695F0E0E15EF94F808190E070
:105230002170298F1A8E298D3A8D220F331F220F4C
:10524000331F02C0959587952A95E2F787708130C4
:1052500009F047C28091750690917606A091770675
:10526000B0917806E981FA81408151816281738130
:105270008C019D01041B150B260B370BF10140819E
:10528000518162817381401751076207730708F0EB
:1052900071C4E981FA8180839183A283B383AF854E
:1052A000B8893C9131110FC0F701808187FF0BC095
:1052B00006E019EF20E030E0D1010D931D932D930E
:1052C0003C9313972FC0F701808191E0980F292F0D
:1052D0002F772A3011F0908302C089508083F70124
:1052E0008081982F9F779B3010F081508083D70169
:1052F0002C91E22FEF77F0E0EE0FFF1FEE53FA4F05
:1053000080819181A0E0B0E0F10180839183A2834C
:10531000B383311107C0223011F0273019F420680F
:10532000D7012C938CEC95E00E94271D8B859C85E2
:105330000E94821C8BEF91E00E94161D6AE070E0D3
:10534000F70180810E94E81C82E292E00E94161D13
:10535000D1016D917D918D919C914AE00E94A71C95
:1053600085E292E00E94161DD701EC91EF778E2F17
:1053700090E08D30910508F0ACC1FC01E65AFF4F7A
:105380000C94F9348AEA95E0B1C08AE895E00E946D
:10539000421D0B8D18E0010290011124C9010396F2
:1053A000A901440F551FFA01EE57FA4FDA01AE5B1F
:1053B000BA4F408151816D917C91462B572B880FBC
:1053C000991FFC01EE57FA4F60817181462B572BD4
:1053D000220F331FB9016C577A4FDB016D917C911D
:1053E000462B572BFC01EE5BFA4F608171814BC15C
:1053F00088E695E00E94421D0B8D18E001029001A5
:105400001124D901AA0FBB1FAA57BA4FF901EE0FF9
:10541000FF1FE857FA4F8D919C9140815181482B95
:10542000592BF901EE0FFF1FEE5BFA4F608171817E
:10543000462B572BF901EE0FFF1FE45BFA4F6081FB
:10544000718129C086E495E00E94421D0B8D18E011
:10545000010290011124C9010396F901EE0FFF1F0B
:10546000EA57FA4F880F991FDC01AE57BA4F4081B7
:1054700051816D917C91462B572BF901EE0FFF1F47
:10548000EE5BFA4F60817181642B752BFC01EE5B42
:10549000FA4F40815181462B572B220F331FB90100
:1054A000605F7A4FC3C084E295E00E94421D0B8D7D
:1054B00018E0010290011124C9010396D901AA0F35
:1054C000BB1FAC57BA4F880F991FFC01EE57FA4F1C
:1054D0006D917C9140815181462B572B220F331FB8
:1054E000B9016E5B7A4F79CF82E095E00E94421D50
:1054F0000B8D18E0010290011124C9010396220FBF
:10550000331FF901EE57FA4FD901AE5BBA4F408114
:1055100051816D917C91462B572B880F991FFC016F
:10552000EE57FA4F608171815BCF82EE94E00E946A
:10553000421D0B8D18E0010290011124C901039650
:10554000A901440F551FFA01EE57FA4FDA01AE5B7D
:10555000BA4F408151816D917C91462B572B880F1A
:10556000991FFC01EE57FA4F60817181462B572B32
:10557000220F331FB90166577A4F2FCF80EC94E08A
:105580000E94421D0B8D18E0010290011124D901E7
:10559000AA0FBB1FA457BA4FF901EE0FFF1FE85B1C
:1055A000FA4F8D919C9140815181482B592BF901E3
:1055B000EE0FFF1FEE57FA4F60817181462B572B7C
:1055C000F901EE0FFF1FEA5BFA4F60817181462BF4
:1055D000572B220F331F27C08EE994E00E94421DF3
:1055E0000B8D18E0010290011124C901880F991F49
:1055F000FC01EE57FA4FDC01AE5BBA4F408151819E
:105600006D917C91462B572BFC01E457FA4F60813A
:105610007181462B572BFC01E85BFA4F6081718149
:10562000462B572B9C01B901625F7A4FDB012D910C
:105630003C9153C08CE794E00E94421D0B8D18E012
:10564000010290011124C901880F991FFC01EE5736
:10565000FA4FDC01AE5BBA4F808191814D915C9134
:10566000482B592BF901EE0FFF1FE657FA4F8081A7
:105670009181482B592B220F331FB901685B7A4F58
:10568000DB016D917C91462B572B20E030E025C04B
:105690008BE594E00E94421D0B8D10E10102900108
:1056A0001124A9014C5F5A4F0CC08AE394E00E9478
:1056B000421D0B8D10E1010290011124A901465FEA
:1056C0005A4FDA012D913C9106C088ED91E00E947D
:1056D000991C20E030E040E050E000E010E060E0A5
:1056E00046C2823009F0F2C080917506909176062C
:1056F000A0917706B0917806E981FA8140815181C5
:10570000628173818C019D01041B150B260B370BE5
:10571000F101408151816281738140175107620715
:10572000730708F027C2E981FA8180839183A283FD
:10573000B383D7014C914C3069F406E019EF2FEF99
:105740003FEFD1010D931D932D933C931397E0E010
:10575000F0E0B6C00B8D202F000F330BF901E250A3
:10576000FB4F8081A82EB12C15E0819FC001112430
:10577000092E000CAA0BBB0BF10180839183A2833D
:10578000B383A989BA89E0E0F0E080E090E05D9120
:10579000552351F061E070E0082E02C0660F771FBC
:1057A0000A94E2F7E62BF72B01968C30910579F7F6
:1057B000D901A653BB4F8C900BE00815E8F0AB81E4
:1057C000BC815C91852F90E0B901A3E0660F771F43
:1057D000AA95E1F7DB01A80FB91FAA0FBB1F58302C
:1057E00018F4AE57BA4F02C0AE5CBA4F8D919C917F
:1057F00080959095E823F923D901AA53BB4F0C91CA
:105800000B8F10E0AB81BC818C9190E00196B801C8
:105810000E94E534982EAB81BC818C93AD81BE8112
:10582000BC91BD8FCB2ED12CD901AA0FBB1FA65482
:10583000BB4F8D919C91B5010E94E534C616D706E9
:1058400054F40D8D0F5FAD81BE810C9391102CC06F
:105850008B8D815026C0542F5F77852F90E063E0B9
:10586000220F331F6A95E1F7280F391FD901AA0FBC
:10587000BB1F583018F4AE57BA4F02C0AE5CBA4FD7
:105880008D919C91E82BF92B4F5FD7014C93C80168
:10589000840F911D88199109B8010E94E53498166A
:1058A00018F4AB81BC818C93D7018C91982F9F7792
:1058B0000B8D091305C0801B8C93AD81BE811C929A
:1058C00000E010E020E030E0AF0150C1833009F08B
:1058D00051C18091750690917606A0917706B0919E
:1058E0007806E981FA8140815181628173818C015E
:1058F0009D01041B150B260B370BF10140815181D3
:1059000062817381401751076207730708F032C143
:10591000E981FA8180839183A283B383D7018C913B
:105920008C3069F406E019EF2FEF3FEFD1010D93B2
:105930001D932D933C9313971C8E1B8E11C10E94B7
:105940002A192FEF3FEF40E050E00E9484346115A8
:1059500071058105910511F00E9409340B8D002E0F
:10596000000C110B1C8F0B8FF801E653FB4FD080FE
:10597000D7014C91442371F0F801EA53FB4FD080DA
:105980002D2D30E0842F90E08217930714F0DA94E5
:1059900001C0D42EEB8DFC8DE250FB4F8080912C0A
:1059A000A12CB12C0E94BB3328E730E040E050E04E
:1059B0000E9452349B01AC0128583F4F4F4F5F4F1C
:1059C000C501B4010E94B534F10160837183828303
:1059D00093838D2C912CA12CB12C81149104A104C2
:1059E000B10441F00E94BB33A50194010E945234DE
:1059F000862F01C080E0E989FA8900E010E0C12C1F
:105A000020E030E09191992381F08C1561F041E024
:105A100050E0022E02C0440F551F0A94E2F7042BF7
:105A2000152BC39402C0C82E80582F5F3F4F2C30D7
:105A3000310541F762E10E94C534892EEB8DFC8D62
:105A4000EA53FB4F9080492C512C612C712C41144E
:105A500051046104710441F00E94BB33A30192011F
:105A60000E945234862F01C080E0AB8CBC8C43E096
:105A7000AA0CBB1C4A95E1F72B8D3C8D2A533B4F5A
:105A80003C8F2B8F992009F450C0CD1408F04DC0E5
:105A9000282F30E0883060F4F901EA0DFB1DEE0F8D
:105AA000FF1FEE57FA4F408151815E874D870BC033
:105AB000F501E20FF31FEE0FFF1FEE5CFA4F60815E
:105AC00071817E876D872D853E8520233123AD85AD
:105AD000BE85A217B30711F088120AC090E00196A4
