:100000000C943D050C94CF190C94A8190C9465051B
:100010000C9465050C9465050C9465050C946505B8
:100020000C9465050C9465050C9465050C94310BD6
:100030000C9465050C9465050C9465050C94650598
:100040000C945E190C9465050C941D180C94F7170C
:100050000C9465050C9465050C9465050C94650578
:100060000C9465050C9465050C9465050C94650568
:100070000C9465050C9465050C9465050C94650558
:100080000C9465050C9465050C9465050C94650548
:100090000C9465050C9465050C9465050C94650538
:1000A0000C9465050C9465050C9465050C94650528
:1000B0000C946505A629A929DF290C2A402A642A5F
:1000C0008B2ABA2AED2A1C2B4E2B5C2B6B2B631828
:1000D000661859185D18871887186A186E187418EA
:1000E000781887187E188218000000002300260068
:1000F00029002C0004040404040404040202020283
:1001000002020303030303030202030505050501BD
:10011000020408102040800102040810200102049B
:10012000081020408040010204080A0D0E09000357
:1001300002000004050800000000000000000000AC
:100140000000000000202042697474652065696E1B
:10015000656E2041744D65676133323850422050DE
:10016000726F7A6573736F722076657277656E64ED
:10017000656E210050726F7A6573736F7266656881
:100180006C65723A2000202044617565723A200047
:10019000426C696E6B656E204C45442D4E6F2E008F
:1001A000417573736368616C74656E204C45442DB2
:1001B0004E6F2E00202048656C6C69676B65697412
:1001C0003A2000416E736368616C74656E204C4523
:1001D000442D4E6F2E0046616C7363686520536931
:1001E000676E616C6E756D6D657200416C6C65203B
:1001F0004C454473206175662D20756E64207769C7
:1002000065646572206162626C656E64656E004152
:100210006D70656C7A656974205A757374616E646B
:1002200020004E6963687420756E7465727374750E
:1002300065747A7400202042656665686C200053FE
:1002400069676E616C200049676E6F7269657265DF
:1002500020646F7070656C7465204443432D426563
:100260006665686C6520696E6E657268616C622097
:10027000766F6E20005265736574206175736765D3
:100280006675656872740020426C696E6B656E20DD
:1002900047727570706520320020426C696E6B6524
:1002A0006E20477275707065203100204C65756353
:1002B0006874656E00206665737467656C65677445
:1002C00020005672004870005369676E616C747943
:1002D000702000556E62656B616E6E7465722042AF
:1002E000656665686C005369676E616C747970202F
:1002F000003A20426C656E647A656974202D3E2058
:10030000005369676E616C74797020003A204475FF
:100310006E6B656C7A656974202D3E2000536967A9
:100320006E616C74797020003A202D3E205369670D
:100330006E616C6C6F67696B20005369676E616CEE
:1003400074797020003A20416E7A61686C204C45C7
:100350004473206D6178202D3E20005369676E61E3
:100360006C74797020003A20416E7A61686C204C80
:1003700045447320616E202D3E20005369676E61F5
:100380006C74797020003A20426C696E6B667265FD
:100390007175656E7A202D3E20005369676E616C21
:1003A0007479702000207374656C6C7420617574AE
:1003B0006F6D617469736368206175636820566F3F
:1003C000727369676E616C2000207374656C6C7465
:1003D000206B65696E20566F727369676E616C0081
:1003E00048617570747369676E616C2000202D3EE2
:1003F000205369676E616C74797020005369676E71
:10040000616C200046616C73636865205369676E98
:10041000616C6E756D6D657200486175736C6963B2
:10042000687420004175746F3A2D2F67656C625FA8
:10043000626C696E6B202020202020467573733A11
:10044000202D2F2D004175746F3A67656C625F62D5
:100450006C696E6B2F2D2020202020202046757384
:10046000733A2D2F2D004175746F3A726F742F6798
:10047000656C622020202020202020467573733A6E
:10048000726F742F726F74004175746F3A726F746B
:100490002F677275656E20202020202020467573FE
:1004A000733A726F742F726F74004175746F3A7281
:1004B0006F742F677275656E20202020204675733B
:1004C000733A677275656E2F726F74004175746F41
:1004D0003A726F742F726F742B67656C62202046BE
:1004E0007573733A726F742F726F74004175746F05
:1004F0003A726F742F726F742020202020202020E9
:1005000020467573733A726F742F726F7400417561
:10051000746F3A67656C622F726F74202020202000
:10052000202020467573733A726F742F726F7400B7
:100530004175746F3A677275656E2F726F74202003
:100540002020202020467573733A726F742F726FCB
:1005500074004175746F3A677275656E2F726F74AF
:100560002020202020467573733A726F742F6772B3
:1005700075656E004175746F3A726F742B67656CA8
:10058000622F726F742020467573733A726F742FE6
:10059000726F74004175746F3A726F742F726F745A
:1005A000202020202020202020467573733A726F6F
:1005B000742F726F7400416D70656C20004443436A
:1005C0002D53746172742D41647265737365206676
:1005D00065737467656C656774206175663A2000A1
:1005E0004765776165686C74657220416E736368F6
:1005F0006C75737320697374206B65696E20536921
:10060000676E616C00202D3E204C6175666C6963DD
:10061000687420005369676E616C20005369676ECF
:10062000616C2061757300566F727369676E616CDF
:10063000206E69636874206D6F65676C6963682CF0
:10064000206461204870302F53683121005369675E
:100650006E616C200020676C656963687A656974F7
:10066000696720616E004C4544732C206461766F8D
:100670006E206D61782E00486175736C69636874D3
:10068000206D6974200020676C656963687A65690C
:1006900074696720616E004C4544732C2064617658
:1006A0006F6E206D61782E004C6175666C696368B1
:1006B00074206D69742000416D70656C206D6974E3
:1006C000206175746F6D617469736368656D205521
:1006D0006D736368616C74656E00206D697420537E
:1006E00069676E616C6C6F67696B004D756C7469DE
:1006F000706C65787369676E616C00416E736368D6
:100700006C7573732020202020412020202020425F
:10071000202020202043202020202044004C45443D
:100720002D48656C6C69676B656974205B255D009D
:1007300020202020416D70656C20322067656C623E
:1007400020426C696E6B0020202020416D70656C2A
:1007500020312067656C6220426C696E6B0020203E
:100760002020416D70656C203220677275656E00C7
:1007700020202020416D70656C20322067656C62FE
:100780000020202020416D70656C203220726F7433
:100790000020202020416D70656C2031206772752B
:1007A000656E0020202020416D70656C203120672F
:1007B000656C620020202020416D70656C20312026
:1007C000726F7400202020202031303938373635C0
:1007D0003433323130203D20202044454320202036
:1007E000313039383736353433323130203D2020FE
:1007F00020444543202020313039383736353433D2
:10080000323130203D20202044454300202020204C
:1008100020202020426C656E647A6569743A20005D
:1008200020202020202044756E6B656C7A656974E9
:100830003A0020202020207065726D616E656E7414
:100840002020202020202020202020202020626C1A
:10085000696E6B656E20477275707065203120205F
:100860002020202020626C696E6B656E20477275B7
:1008700070706520322020202020202020467265C4
:100880007175656E7A3A0020202020204C616D70D1
:10089000656E20312D38202020202020202020208F
:1008A0002020204C616D70656E20392D3132202062
:1008B000202020202020202020206E2E612E20208D
:1008C0002020202020202020202020202020202028
:1008D0002020476573636877696E6469676B656933
:1008E000743A0020202020204175746F7665726B69
:1008F00065687220202020202020202020202046F3
:100900007573736761656E676572202020202020F3
:10091000202020202020626C696E6B656E202020D4
:10092000202020202020202020202020202046724F
:10093000657175656E7A3A005369676E616C74799A
:10094000702000416D70656C7A656974205A75730A
:1009500074616E64200049676E6F7269657265200C
:10096000646F7070656C7465204443432D42656606
:1009700065686C6520696E6E657268616C62207670
:100980006F6E20005369676E616C20617573002083
:100990006772C3BC6E3A200065696E6520416D7058
:1009A000656C7374656C6C756E67207765697465CA
:1009B0007200677275656E2053747261737365207F
:1009C0003100426C696E6B203200426C696E6B20A4
:1009D000310065696E20416E7A61686C204C454437
:1009E000732067656D6165737320566F7265696EFC
:1009F0007374656C6C756E67205369676E616C7497
:100A0000797000446965736573204861757074730B
:100A100069676E616C207374656C6C7420617574A9
:100A20006F6D617469736368206175636820566FC8
:100A3000727369676E616C20002020285369676EAD
:100A4000616C7479703A2000444343202D20416446
:100A500072657373656E205369676E616C20000068
:100A6000000000240027002A002D000000000025BF
:100A70000028002B002E0000633311241FBECFEF8F
:100A8000D8E0DEBFCDBF13E0A0E0B1E0E8E4F0E7DE
:100A900002C005900D92A839B107D9F727E0A8E95F
:100AA000B3E001C01D92A236B207E1F715E0CDE335
:100AB000D5E004C02197FE010E941935CC33D1073F
:100AC000C9F70E94371E0C9422380C94000082E073
:100AD0008093170608950F931F93CF938C01C62F11
:100AE00081E492E00E943E1D6AE070E0C8010E942D
:100AF000311D8CE20E942C1D60E170E08C2FCF91A3
:100B00001F910F910C941E1DEF92FF921F93CF9394
:100B1000DF937C01162FD42FC22F8BE592E00E9429
:100B20003E1D6AE070E0C7010E94311D8CE20E9408
:100B30002C1D6AE070E0812F0E94101D8CE20E9443
:100B40002C1D6AE070E08D2F0E94101D8CE20E9427
:100B50002C1D60E170E08C2FDF91CF911F91FF90F1
:100B6000EF900C941E1D86E792E00E94C11C61E08C
:100B70008CE00E94881866E070E080E090E00E94BF
:100B8000181960E08CE00C9488186F927F928F9215
:100B90009F92AF92BF92CF92DF92EF92FF920F930C
:100BA0001F93CF93DF93182F1770682E6694669467
:100BB000669480901F06912CC62DD0E07E01EE0C2D
:100BC000FF1CA4010E2C02C0559547950A94E2F72C
:100BD000042F017041FB222720F930E0F901E75E84
:100BE000F94F208130E0402F50E0440F551F440F53
:100BF000551F02C0359527954A95E2F72770213099
:100C000009F074C0FE01EE0FFF1FEE0FFF1FEE5143
:100C1000FA4F1082118212821382E82FE295EF7050
:100C2000862D8170F0E0E75EF94F90E0880F991F04
:100C3000880F991F039641E050E060E070E06A0180
:100C40007B0104C0CC0CDD1CEE1CFF1C8A95D2F786
:100C5000D701C601143098F1809590818923808353
:100C6000143071F4C652DA4F8881823011F08F77D8
:100C7000888388818F778A3008F42EC182E80FC07C
:100C8000153079F4C652DA4F8881873011F08F77AA
:100C9000888388818F778A3008F41EC187E888832B
:100CA0001BC1163009F018C1C652DA4F888180681E
:100CB0008F5F982F9F779A3090F328830DC1208102
:100CC000822B8083C652DA4F111102C08CE0E7CF2D
:100CD000113031F488818F778A3008F31883FCC093
:100CE000123011F48AE0DBCF8BE0D9CF782E22309E
:100CF00009F062C0BE0166527A4F6B01111104C047
:100D00008CE0FB01808303C01150FB011083FE01C6
:100D1000EE0FFF1FEE0FFF1FEE51FA4F10821182F0
:100D20001282138284E196E00E944F1DCE018F5BF8
:100D30009F4F0E94AA1C85E096E00E944F1DF6017D
:100D400080818C3039F586ED91E00E94C11CFFEF67
:100D5000EF1AFF0AC40102C095958795EA94E2F75D
:100D600081709927880F991F802B082E000C990BF2
:100D7000CC53DB4FFC01EE0FFF1FE454FB4FDC01B3
:100D8000A450BB4F6C9170E0808191810E94053529
:100D90006883A2C082ED91E0DF91CF911F910F9106
:100DA000FF90EF90DF90CF90BF90AF909F908F908B
:100DB0007F906F900C94C11C2330A9F4FE01E65281
:100DC000FA4F111103C08CE0808302C011501083D0
:100DD000CC0FDD1FCC0FDD1FCE51DA4F18821982E8
:100DE0001A821B8279C00E948915143008F074C0E1
:100DF00072947FE07722E72DF0E0EA53FC4F808188
:100E000090E060FAAA24A0F8B12CAA0CBB1CAA0C92
:100E1000BB1C02C095958795AA94E2F7482F4F70A6
:100E200009F45AC020911F0630E0C70101966901FC
:100E300002C0D594C7948A95E2F7C60181709927BC
:100E4000880F991F02C035952795EA94E2F7217023
:100E5000822BE82FE695F0E0E75EF94F208130E045
:100E600080FBCC24C0F8D12CCC0CDD1CCC0CDD1CC0
:100E7000C90102C095958795CA94E2F787708130C1
:100E8000C9F4133009F410E0812F68E0469F800D0B
:100E900011248450DF91CF911F910F91FF90EF901B
:100EA000DF90CF90BF90AF909F908F907F906F908A
:100EB0000C94891580EE95E0DF91CF911F910F91F1
:100EC000FF90EF90DF90CF90BF90AF909F908F906A
:100ED0007F906F900C946A1DDF91CF911F910F91BD
:100EE000FF90EF90DF90CF90BF90AF909F908F904A
:100EF0007F906F9008958F929F92AF92BF92EF92E2
:100F0000FF920F931F93CF93DF937C01C62FD42FB3
:100F100082E892E00E943E1D6AE070E0C7010E94F4
:100F2000311D8CE20E942C1D6AE070E08C2F0E9423
:100F3000101D8CE20E942C1D60E170E08D2F0E943C
:100F40001E1D8091180680FF27C00E94481B9093A9
:100F5000C3038093C203809118068E7F8093180686
:100F600081E08093C10361E08EED90E00E94401D1E
:100F70008DEB95E00E944F1D8091C2039091C303B9
:100F8000DF91CF911F910F91FF90EF90BF90AF90A5
:100F90009F908F900C94B41D8260809318060E94DD
:100FA00052192091C2033091C3038701021B130B16
:100FB000000F111F0C0F111D20918706309188061C
:100FC00002171307E9F42091C403809083069090E0
:100FD0008406A0908506B0908606AB01BC01481936
:100FE00059096A097B093AE0239FC0011124092E9F
:100FF000000CAA0BBB0B84179507A607B70780F553
:101000000E9452196093830670938406809385062C
:101010009093860610938806009387068091C103FB
:10102000882369F0802FDF91CF911F910F91FF905E
:10103000EF90BF90AF909F908F900C94C50501EA00
:1010400013E0D0E2DC0FF801819191918F01E81655
:10105000F90619F48C2F0E94C505CE5FCD13F3CF8E
:10106000DF91CF911F910F91FF90EF90BF90AF90C4
:101070009F908F9008950F931F93CF93DF93A1E9D3
:10108000B6E0E0E8F5E009E816E0AF0180E090E0C6
:1010900020E030E0EA0169917991AE01862B972B2F
:1010A0002F5F3F4F24303105A9F78D939D93208505
:1010B000318582859385822B932B24853585822BE0
:1010C000932BE801899399938E017096D6E0A93904
:1010D000BD07D9F6DF91CF911F910F9108952F92FF
:1010E0003F924F925F926F927F928F929F92AF92B8
:1010F000BF92CF92DF92EF92FF920F931F93CF9305
:10110000DF93CDB7DEB7E6970FB6F894DEBF0FBE1C
:10111000CDBFA82EB62EE82EE694F12C67012FE065
:10112000C20ED11CC6010E94921A0A2D017010E055
:10113000000F111F000F111F2FE030E0002E01C023
:10114000220F0A94EAF7209582239B2D9F70292F66
:1011500001C0220F0A95EAF7182F122B612FC60142
:101160000E94401DF701E75EF94F10830A2D10E041
:10117000C80184509B4F7C018AE0F701808368019D
:10118000CC0CDD1C9801255E394F490131E0B312CA
:101190000AC0F601E454FB4F11821082F4018083EF
:1011A00084E6F70130C09EEF9B0D923018F524E6DF
:1011B00030E0F601E454FB4F31832083F401808357
:1011C00085E0F801E853FB4F80838CE0F801E85498
:1011D000FB4F808388E2F701808365E0C801895F67
:1011E0009E4F0E94401D6CE0C801855F9E4F0E948B
:1011F000401D0AC08EE190E0F601E454FB4F91835C
:10120000808389E1F4018083F601E454FB4F60811F
:10121000C8018D5F9E4F0E94401DF4016081C8018E
:1012200081509F4F0E94401DA11005C0F7016081B1
:1012300085E090E017C0F1E0AF1205C0F7016081D2
:1012400086E090E00FC0F2E0AF1205C0F7016081C8
:101250008AE090E007C0F3E0AF1206C0F7016081BA
:101260008BE090E00E94401DF1E0BF1249C080E099
:1012700091E09A83898320E038E03C832B8384E0EB
:1012800090E09E838D8388E090E098878F8380E054
:1012900092E09A87898740E450E05C874B871E86FE
:1012A0001D86188A1F8640E850E05A8B498B1C8A9D
:1012B0001B8A40E150E05E8B4D8B41E050E0588F3F
:1012C0004F8B1A8E198E40E250E05C8F4B8F1E8E32
:1012D0001D8E18A21F8E1AA219A23CA32BA31EA218
:1012E0001DA218A61FA29AA789A71CA61BA682E06A
:1012F00090E09EA78DA780E094E098AB8FA773C085
:101300008EEF8B0D823088F580E098E09A83898398
:1013100080E094E09C838B8380E092E09E838D83C9
:1013200080E091E098878F8380E890E09A878987B2
:1013300080E490E09C878B8780E290E09E878D8799
:1013400080E190E0988B8F8788E090E09A8B898B82
:1013500084E090E09C8B8B8B82E090E09E8B8D8B69
:1013600081E090E0988F8F8B26C088E890E09A8388
:10137000898381E090E09C838B8381E190E09E8370
:101380008D8388E096E098878F8382E098E09A8743
:10139000898784E091E09C878B8782E091E09E873B
:1013A0008D87188A1F861A8A198A1C8A1B8A1E8AA8
:1013B0001D8A188E1F8A1A8E198E1C8E1B8E1E8EE9
:1013C0001D8E18A21F8E1AA219A21CA21BA21EA259
:1013D0001DA218A61FA21AA619A61CA61BA61EA609
:1013E0001DA618AA1FA6000F111F000F111F98019C
:1013F0002C5F3F4F3AAB29AB7801EE0CFF1C270165
:10140000400E511E62013EE1C30ED11CC801880F7F
:10141000991F880F991F9EAB8DAB80589A4F3C0146
:1014200057014801E9A9FAA98E169F060CF04DC094
:10143000F501E770FF27EE0FFF1F21E030E02C0FD2
:101440003D1FE20FF31F808191819CAB8BAB6BA999
:10145000C6010E94401DF5013196E770FF27EE0F8F
:10146000FF1F21E030E02C0F3D1FE20FF31F208013
:1014700031808BA99CA988279F70622D6295607F1F
:10148000692BC60101960E94401DB101607F7F70EB
:10149000E4E076956795EA95E1F7C60102960E9429
:1014A000401D2BA93CA9F301318320833382228282
:1014B0003FEF831A930A82E0A80EB11C93E0C90E95
:1014C000D11CE4E06E0E711CADCF6201FEE7CF0EC1
:1014D000D11C2DA93EA9205C3A4F39015701480182
:1014E00089A99AA9881699060CF04DC0F501E770F4
:1014F000FF27EE0FFF1F21E030E02C0F3D1FE20F12
:10150000F31F808991899CAB8BAB6BA9C6010E94AC
:10151000401DF5013196E770FF27EE0FFF1F21E018
:1015200030E02C0F3D1FE20FF31F208831888BA97C
:101530009CA988279F70622D6295607F692BC601E8
:1015400001960E94401DB101607F7F7054E0769546
:1015500067955A95E1F7C60102960E94401D2BA996
:101560003CA9F30131832083338222823FEF831A27
:10157000930A82E0A80EB11C93E0C90ED11CE4E0EE
:101580006E0E711CADCFFEEA4F0E511C2DA93EA967
:1015900020503B4F190189A99AA9081719070CF087
:1015A00047C0F701E770FF27EE0FFF1F21E030E093
:1015B0002C0F3D1FE20FF31FC0A0D1A06C2DC20164
:1015C0000E94401DF7013196E770FF27EE0FFF1FC5
:1015D00081E090E08C0F9D1FE80FF91FA0A0B1A043
:1015E000C60188279F706A2D6295607F692BC201B2
:1015F00001960E94401DB501607F7F7024E07695C2
:1016000067952A95E1F7C20102960E94401DF101FB
:10161000D182C082B382A2820F5F1F4FF2E0EF0E31
:10162000F11C23E0420E511C34E0230E311CB3CFD9
:10163000E6960FB6F894DEBF0FBECDBFDF91CF9117
:101640001F910F91FF90EF90DF90CF90BF90AF90E0
:101650009F908F907F906F905F904F903F902F90D2
:1016600008951F920F920FB60F9211242F933F935C
:101670008F939F93EF93FF938091880090918900BF
:1016800006969093890080938800809184009091C1
:1016900085002091810630918206821B930B209158
:1016A0007F06309180062817390708F07CC08091AA
:1016B000840090918500909382068093810690919A
:1016C0007E0681E0892780937E0680917E068823AE
:1016D00009F450C080919F038F5F80939F03809196
:1016E0009F03883119F48CE080939F0384B1847F39
:1016F00084B985B1847F85B953985B98E0919F0345
:10170000F0E0E857FB4F8081882361F1E0919F036F
:1017100094B1F0E0EE0FFF1FE259FE4F8081892B5C
:1017200084B9E0919F0395B1F0E0EE0FFF1FE259FD
:10173000FE4F8181892B85B9E0919F039AB1F0E03A
:10174000EE0FFF1FEA5AFE4F8081892B8AB9E09184
:101750009F039BB1F0E0EE0FFF1FEA5AFE4F81811D
:10176000892B8BB9E0919F03F0E0E857FB4F808114
:1017700090E012C084B1847F84B985B1847F85B93B
:1017800053985B98E0919F03F0E0E857FB4F20816E
:1017900084E690E0821B9109880F991F059690932B
:1017A000800680937F06809184009091850020912F
:1017B0007C0630917D06821B930B20917A06309136
:1017C0007B062817390708F084C080918400909127
:1017D000850090937D0680937C069091790681E048
:1017E00089278093790680917906882309F454C06B
:1017F00080919D038F5F80939D0380919D03803333
:1018000019F484E280939D0387B18F7C87B988B1F6
:101810008F7C88B98DB1837F8DB98EB1837F8EB96E
:10182000E0919D03F0E0E857FB4F8081882361F150
:10183000E0919D0397B1F0E0EE0FFF1FE25FFE4FD6
:101840008081892B87B9E0919D0398B1F0E0EE0F7C
:10185000FF1FE25FFE4F8181892B88B9E0919D03D4
:101860009DB1F0E0EE0FFF1FEA50FF4F8081892B02
:101870008DB9E0919D039EB1F0E0EE0FFF1FEA509D
:10188000FF4F8181892B8EB9E0919D03F0E0E857ED
:10189000FB4F808190E016C087B18F7C87B988B1FB
:1018A0008F7C88B98DB1837F8DB98EB1837F8EB9DE
:1018B000E0919D03F0E0E857FB4F208184E690E043
:1018C000821B9109880F991F059690937B06809340
:1018D0007A0680918400909185002091770630915E
:1018E0007806821B930B2091750630917606281797
:1018F000390708F060C08091840090918500909332
:101900007806809377069091740681E0892780930A
:101910007406809174068823B9F18091A0038F5FCB
:101920008093A0038091A0038C3011F41092A00347
:1019300087B1807F87B988B1807F88B9E091A003A3
:10194000F0E0E857FB4F80818823B1F0E091A003DD
:1019500097B1F0E0EE0FFF1FEA5DFE4F8081892B0B
:1019600087B9E091A00398B1F0E0EE0FFF1FEA5DA8
:10197000FE4F8181892B88B9E091A003F0E0E85700
:10198000FB4F808190E010C087B1807F87B988B11C
:10199000807F88B9E091A003F0E0E857FB4F2081F9
:1019A00084E690E0821B9109880F991F0596909319
:1019B0007606809375068091840090918500209131
:1019C000720630917306821B930B20917006309142
:1019D00071062817390708F061C080918400909142
:1019E0008500909373068093720690916F0681E054
:1019F000892780936F0680916F068823C1F18091BB
:101A00009E038F5F80939E0380919E03843219F41E
:101A100088E180939E038AB18F708AB98BB18F70F1
:101A20008BB9E0919E03F0E0E857FB4F808188235B
:101A3000B1F0E0919E039AB1F0E0EE0FFF1FE25289
:101A4000FF4F8081892B8AB9E0919E039BB1F0E022
:101A5000EE0FFF1FE252FF4F8181892B8BB9E0917E
:101A60009E03F0E0E857FB4F808190E010C08AB100
:101A70008F708AB98BB18F708BB9E0919E03F0E0C3
:101A8000E857FB4F208184E690E0821B9109880F84
:101A9000991F05969093710680937006FF91EF91C0
:101AA0009F918F913F912F910F900FBE0F901F909C
:101AB000189580919D0681114BC10E94F3182091C9
:101AC0009B0630919C06FB01E21BF30B20919803CF
:101AD00030919903E217F30708F43AC120919A0371
:101AE00030919B0370939C0660939B0661E060932A
:101AF0009D067894409102065091030641305105AD
:101B000089F148F04230510509F4B4C04330510521
:101B100009F4E9C01BC1E217F30708F0D0C08091B7
:101B200005068F5F809305068B3008F40FC181E0B6
:101B300090E0909303068093020661E070E080914C
:101B4000B8060E94151E10929A0682E590E09093C6
:101B50009B0380939A0383E290E090939903809390
:101B60009803F4C040919A06413081F028F0433048
:101B700069F14430C9F1EAC0E217F30728F4609331
:101B80009A06E0939906E2C084E01DC0E217F307CD
:101B9000C8F410929A06909105069F5F90930506EF
:101BA0008E2FEE0F990B20919906821B910927FD2C
:101BB000939597FF03C091958195910943970CF4F4
:101BC000C5C015C083E080939A06C0C0E217F30732
:101BD00070F080919C03833021F482E080939C0319
:101BE00019C040939C0316C0E217F30798F41092B3
:101BF00003061092020682E990E090939B03809383
:101C00009A0382E590E09093990380939803109251
:101C1000050628C082E090E09093030680930206B8
:101C200082E990E090939B0380939A0382E590E091
:101C300090939903809398031092070610920906D7
:101C400010920A0610920B0610920C0610920D06C6
:101C500010920E06809105068093080610920506E4
:101C60001092060660919C0370E08091B8060E9475
:101C7000151E6CC0509105065F5F5093050640919C
:101C80000606440FE217F30708F441604093060686
:101C9000583009F05BC0E0910706E63099F41092E5
:101CA00003061092020682E990E090939B038093D2
:101CB0009A0382E590E090939903809398031092A1
:101CC000050644C083E090E09093030680930206EB
:101CD00081E08E0F80930706F0E0EE5FF94F809170
:101CE0000606878333C0409105064F5F4093050683
:101CF000E217F307E0F4109203061092020682E95D
:101D000090E090939B0380939A0382E590E09093F8
:101D100099038093980388E0E7E0F6E0AFE0B6E04F
:101D200001900D928A95E1F7609304060FC08091AF
:101D30000706863009F4B3CF82E090E09093030663
:101D400080930206109205061092060610929D06D8
:101D50000895CF93DF93EC01CC0FDD1FFE01E05817
:101D6000FA4F808191810E94C41D8FE092E00E9411
:101D70003E1DFE01E05CFA4F808191810E94C41DEE
:101D80008FE092E00E943E1DC050DB4F8881998118
:101D9000DF91CF910C94C41D8830910559F46623CE
:101DA000F9F022E02093170620E030E0232B79F0B1
:101DB0000C94000020E030E0232BD1F741E08115A6
:101DC00024E0920708F040E0611102C00EC041E03B
:101DD0009C01275031092230310538F440E005C01C
:101DE00020E030E0232B21F741E0842F08952F924B
:101DF0003F925F926F927F928F929F92AF92BF922B
:101E0000CF92DF92EF92FF920F931F93CF93DF93C6
:101E1000CDB7DEB72B970FB6F894DEBF0FBECDBFA0
:101E2000F1EACF2EF3E0DF2EA12CB12C66246394CF
:101E3000712C812C912C9E012F5F3F4F790100EA7C
:101E400012E088E49AE00E944F1DC4018F5B9F4F0F
:101E50000E94AA1C89E39AE00E944F1D20911F0650
:101E600030E0C401880F991FA90102C0559547951C
:101E70008A95E2F7CA018170062C02C03595279534
:101E80000A94E2F721703327220F331F582E522A6B
:101E90006AE070E0852D0E94101D8EE992E00E949C
:101EA000C11C140151E025223324220C331C220CC6
:101EB000331CC40195958795FC01EA53FC4FF987C3
:101EC000E887808190E0022C02C0959587950A945E
:101ED000E2F78F709927892BB9F083E09AE00E948E
:101EE0004F1DE885F985808190E002C09595879522
:101EF0002A94E2F78F709927805C9F4F0E94AA1C5A
:101F000081ED91E00E94C11CE52DE695F0E0E75ED1
:101F1000F94F808190E0F52DF170FA871B862A85B4
:101F20003B85220F331F220F331F02C095958795E3
:101F30002A95E2F7282F2770522E8091C10388231B
:101F400041F08091C2039091C3038A0D9B1D9F9322
:101F500004C0F60181818F9380818F931F930F932B
:101F6000FF92EF920E9438350F900F900F900F90D4
:101F70000F900F90C7010E943E1D87EA92E00E94D9
:101F80003E1DF1E05F1203C08FEA92E009C08EEFC0
:101F9000850D823018F486ED91E002C083EB92E06B
:101FA0000E94C11C8091C103882341F08091C2032B
:101FB0009091C3038A0D9B1D9F9304C0F6018181FC
:101FC0008F9380818F931F930F93FF92EF920E94C4
:101FD00038350F900F900F900F900F900F90C70112
:101FE0000E943E1D87EB92E00E943E1DF1E05F12D1
:101FF00003C080EC92E010C022E0521205C082EDD6
:1020000099E00E946A1D0AC033E0531203C082EDBA
:1020100091E002C083EC92E00E94C11C8091C10358
:10202000882349F08091C2039091C30301968A0DE1
:102030009B1D9F9304C0F60183818F9382818F93B0
:102040001F930F93FF92EF920E9438350F900F90DD
:102050000F900F900F900F90C7010E943E1D87EACE
:1020600092E00E943E1DF1E05F1205C08AEC99E00B
:102070000E946A1D10C022E0521203C082ED91E05E
:1020800008C033E0531203C087EC92E002C085ED34
:1020900092E00E94C11C8091C103882349F0809185
:1020A000C2039091C30301968A0D9B1D9F9304C0A8
:1020B000F60183818F9382818F931F930F93FF92F9
:1020C000EF920E9438350F900F900F900F900F9065
:1020D0000F90C7010E943E1D87EB92E00E943E1DBB
:1020E000F1E05F1205C082EC99E00E946A1D10C009
:1020F00022E0521203C082ED91E008C033E0531297
:1021000003C089ED92E002C088EE92E00E94C11CFB
:102110008091C103882349F08091C2039091C30349
:1021200002968A0D9B1D9F9304C0F60185818F93B3
:1021300084818F931F930F93FF92EF920E94383503
:102140000F900F900F900F900F900F90C7010E946B
:102150003E1D87EA92E00E943E1DF1E05F1205C03D
:1021600082EB99E00E946A1D10C022E0521203C067
:1021700082ED91E008C033E0531203C08CEE92E090
:1021800002C08BEF92E00E94C11C8091C1038823A2
:1021900049F08091C2039091C30302968A0D9B1D62
:1021A0009F9304C0F60185818F9384818F931F9341
:1021B0000F93FF92EF920E9438350F900F900F907F
:1021C0000F900F900F90C7010E943E1D87EB92E089
:1021D0000E943E1DF1E05F1203C08FEF92E00EC03F
:1021E00022E0521203C082ED91E008C033E05312A6
:1021F00003C08FE093E002C08EE193E00E94C11C17
:102200008091C103882349F08091C2039091C30358
:1022100003968A0D9B1D9F9304C0F60187818F93BF
:1022200086818F931F930F93FF92EF920E94383510
:102230000F900F900F900F900F900F90C7010E947A
:102240003E1D87EA92E00E943E1DF1E05F1205C04C
:1022500088E999E00E946A1D10C022E0521203C072
:1022600082ED91E008C033E0531203C082E293E0B4
:1022700002C081E393E00E94C11C8091C1038823C6
:1022800049F08091C2039091C30303968A0D9B1D70
:102290009F9304C0F60187818F9386818F931F934C
:1022A0000F93FF92EF920E9438350F900F900F908E
:1022B0000F900F900F90C7010E943E1D8FE899E08C
:1022C0000E944F1DF1E05F1203C085E393E005C05B
:1022D00022E0521205C082ED91E00E94C11C0AC0AA
:1022E00033E0531203C08AE393E0F7CF84E899E028
:1022F0000E946A1D81ED91E00E94C11C4FEF841A7B
:10230000940A52E0650E711C84E0A80EB11C98E09E
:10231000C90ED11CE4E08E16910409F092CD2B96E3
:102320000FB6F894DEBF0FBECDBFDF91CF911F91E6
:102330000F91FF90EF90DF90CF90BF90AF909F9064
:102340008F907F906F905F903F902F9008950F93A4
:102350001F93CF93DF93D82F80E292E00E943E1D1F
:10236000ED2FE695F0E0E75EF94F808190E00D2FCC
:10237000017010E0000F111F000F111F02C0959592
:1023800087950A95E2F7C82FC7706AE070E08C2F36
:102390000E94101D83E292E00E943E1DC11119C0EF
:1023A0008BEE96E00E944F1D8091C50390E002C025
:1023B00095958795DA95E2F780FF03C08AED96E060
:1023C00048C081ED91E0DF91CF911F910F910C9466
:1023D000C11CC13019F487EB96E03BC0C230E1F478
:1023E00088EA96E00E944F1DCD2FD0E0FE01E85410
:1023F000FB4F6AE070E080810E94101D87E996E043
:102400000E944F1DC853DB4F6AE070E088810E9434
:10241000101D86E896E01DC0C33009F587E796E0F9
:102420000E944F1DCD2FD0E0FE01E854FB4F6AE023
:1024300070E080810E94101D86E696E00E944F1D8C
:10244000C853DB4F6AE070E088810E94101D85E56B
:1024500096E0DF91CF911F910F910C946A1DDF914F
:10246000CF911F910F9108956F927F928F929F92BB
:10247000AF92BF92CF92DF92EF92FF920F931F9392
:10248000CF93DF9300D000D01F92CDB7DEB781EDA0
:1024900091E00E94C11C86E599E00E944F1D809149
:1024A000C4032AE0829FC00111240E94781D83EE9C
:1024B00091E00E94C11CF0ECEF2EF5E0FF2E00E051
:1024C00010E083E499E00E944F1D0F5F1F4FC80189
:1024D0000E94781D89EF91E00E943E1D6AE070E045
:1024E000F701819191917F010E94311D83EE91E06E
:1024F0000E94C11C0D30110521F781ED91E00E9471
:10250000C11C5CEFC52E54E0D52E6CEBA62E64E00A
:10251000B62E7BE1872E76E0972E07E010E0E12CC7
:10252000F12CEAE06E2E88E399E00E944F1DC7016E
:102530000E94781D89E493E00E943E1D8E2D0E942A
:10254000A711F701F595E795E75EF94F808190E0D7
:10255000970121703327220F331F220F331F02C030
:10256000959587952A95E2F7F82FF7707F2E21E051
:10257000F21303C083EE98E009C08EEF8F0F823014
:1025800018F487E898E002C082E398E00E944F1DAB
:102590006AE070E0F60181916F010E94101D80E2F7
:1025A00098E00E944F1DF501819191915F019C017E
:1025B000629EC001639E900D11240E94781D8CE0E4
:1025C00098E00E944F1D6AE070E0F40181914F0194
:1025D0000E94101D83EE91E00E94C11C84EC97E0E4
:1025E0000E946A1D8BE493E00E943E1DC80107977C
:1025F0000E94A90EF1E07F1205C084EB97E00E94D3
:102600006A1D04C081ED91E00E94C11C81E593E048
:102610000E943E1DC80106970E94A90E21E0721279
:1026200005C083EA97E00E946A1D04C081ED91E035
:102630000E94C11C87E593E00E943E1DC8010597DA
:102640000E94A90E31E0731205C081E997E00E9453
:102650006A1D04C081ED91E00E94C11C8DE593E0EC
:102660000E943E1DC80104970E94A90E81E07812C5
:1026700005C081E897E00E946A1D04C081ED91E0E9
:102680000E94C11C83E693E00E943E1DC80103978F
:102690000E94A90E91E0791205C080E797E00E94A0
:1026A0006A1D04C081ED91E00E94C11C89E693E09F
:1026B0000E943E1DC80102970E94A90EE1E07E1211
:1026C00005C08EE597E00E946A1D04C081ED91E08F
:1026D0000E94C11C8FE693E00E943E1DC801019735
:1026E0000E94A90EF1E07F1205C087E497E00E94E6
:1026F0006A1D04C081ED91E00E94C11C85E793E052
:102700000E943E1DC8010E94A90E21E0721205C060
:1027100080E397E00E946A1D04C081ED91E00E9471
:10272000C11C81ED91E00E94C11C3FEFE31AF30A46
:10273000085F1F4F84E0E816F10409F0F4CE8DE144
:1027400097E00E946A1D8BEF96E00E946A1D00E0F0
:1027500010E093E8692E93E0792EFE0131967F0117
:1027600027E8822E23E0922E8BE793E00E943E1D05
:102770001F930F937F926F92FF92EF920E943835D2
:10278000C7010E943E1D8FE092E00E943E1D98010D
:10279000285A3B4F59010F900F900F900F900F90B8
:1027A0000F9084E0C82ED12CF50180811F928F9369
:1027B0009F928F92FF92EF920E943835C7010E943C
:1027C0003E1D8FE092E00E943E1DF1E0CF1AD1083D
:1027D0002CE0A20EB11C0F900F900F900F900F9055
:1027E0000F90C114D10401F781ED91E00E94C11C4A
:1027F0000F5F1F4F0C30110509F0B6CF81ED91E04E
:102800000E94C11C0F900F900F900F900F90DF91BE
:10281000CF911F910F91FF90EF90DF90CF90BF90DD
:10282000AF909F908F907F906F9008952F923F92DE
:102830004F925F926F927F928F929F92AF92BF92D0
:10284000CF92DF92EF92FF920F931F93CF93DF937C
:10285000CDB7DEB72F970FB6F894DEBF0FBECDBF52
:102860006F835987488719012801A0911F06B0E09E
:10287000682F70E0AB01440F551F9A012F5F3F4F47
:10288000FD0102C0F595E7952A95E2F79F012170B9
:102890003327220F331F02C0B595A7954A95E2F75B
:1028A000A170A22B0A2E000CBB0BA450BB4F4C9165
:1028B00026EF3FEFF901E41BF109FC83EB832CE0E9
:1028C000829FF00111247F01EE0CFF1C9701285319
:1028D0003C4F3F872E87662477246E187F08890136
:1028E00080E090E01A8219829101082E02C036958C
:1028F00027950A94E2F720FF14C09C012E0F3F1F7A
:10290000285D3B4FD9012C91222359F09801260DC7
:10291000371D2E0D3F1DD9010D90BC91A02DBA83FE
:10292000A9839201082E02C0369527950A94E2F7F2
:1029300020FF0FC09C012E0F3F1F285D3B4FD90188
:102940002C91222331F0D8010D90BC91A02DBC8395
:10295000AB8301960E5F1F4F8C30910529F69F01C6
:10296000285D3B4F4901590108E514E0690120E069
:1029700030E0CB01880F991FDC01A454BB4FBB870B
:10298000AA87CB01855E994F9D878C87DF01A8556B
:10299000B440BE83AD83C101022E02C096958795D7
:1029A0000A94E2F780FF1AC06D817E81600F711F6B
:1029B000D6018C91811181C0C9018E0F9F1F845354
:1029C0009B4FDC011C92DB01A857BB4F1C92D60128
:1029D0004C9389819A81AE85BF8526C0C201022EA3
:1029E00002C0969587950A94E2F780FF20C06D811A
:1029F0007E81600F711FD5018C9181115EC0C9016C
:102A00008E0F9F1F84539B4FDC011C92DB01A85744
:102A1000BB4F1C92D5014C93AE85BF85A60DB71D4B
:102A2000AE0DBF1D8B819C818D939C9346C0C901C7
:102A30008E0F9F1F68857985022E02C07695679557
:102A40000A94E2F760FF29C0AF81AA2339F08453CA
:102A50009B4FD8015C91DC015C931AC0AA85BB85B1
:102A60006D917C91BAE0B69FC001B79F900D112483
:102A7000AC85BD856C9170E00E9405356C5965365A
:102A800008F465E6D901AE0FBF1FA453BB4F6C938A
:102A9000D401A20FB31F1C9210C0DC01A453BB4F82
:102AA0001C92D401A20FB31F1C92AE85BF85A60D48
:102AB000B71DAE0DBF1D1D921C922F5F3F4FBFEF84
:102AC000AB1ABB0A5FEFC51AD50A8E859F850296A1
:102AD0009F878E870F5F1F4F2C30310509F05BCF2A
:102AE0002F960FB6F894DEBF0FBECDBFDF91CF910A
:102AF0001F910F91FF90EF90DF90CF90BF90AF901C
:102B00009F908F907F906F905F904F903F902F900D
:102B100008952F923F924F925F926F927F928F9281
:102B20009F92AF92BF92CF92DF92EF92FF920F935C
:102B30001F93CF93DF9300D01F92CDB7DEB7782ECF
:102B40007694769476948770682E80911F0690E034
:102B5000472C512C9201220F331FA9014F5F5F4F69
:102B6000BC0102C0759567954A95E2F761707727B9
:102B7000660F771F02C0959587952A95E2F78170B9
:102B8000682B6983262C312C862F082E000C990B7C
:102B90009B838A835C0163E0AA0CBB1C6A95E1F706
:102BA00081010A0D1B1D000F111FF801E05CFA4F97
:102BB00060817181F801E050FB4FA081B1819CE000
:102BC000799EF0011124E453FB4F80E090E0C12C8A
:102BD000D12CE12CF12C812C912C41E050E0219161
:102BE000222349F09A01082E02C0220F331F0A94B3
:102BF000E2F7822A932AE62AF72ACA2ADB2A0196D2
:102C00008C30910561F7EA81FB81EE0FFF1FFB839A
:102C1000EA83EF56F94F8081918188219921F1E073
:102C2000F983892B09F01982EA81FB81E757F94F73
:102C30008081918188219921892B19F42981226031
:102C400029838DE496E00E944F1DC2018F5B9F4F48
:102C50000E94AA1C89EF91E00E943E1D8091C5034D
:102C600033E03615F0F1EA81FB81EF56F94F208110
:102C70003181209530958222932290E0072C02C06A
:102C8000959587950A94E2F780FF10C0662019F0A9
:102C900043E064120BC06A817B816757794FFB0167
:102CA000808191818095909588229922F801E05841
:102CB000FA4F20813181282939293B832A8333E047
:102CC000631651F08BE893E00E943E1D6AE070E0CD
:102CD000862D0E941E1D5AC088EE92E00E94C11CE3
:102CE00055C04A815B814757594FFA010190F081E5
:102CF000E02DE095F095E821F921FB83EA8390E04F
:102D0000072C02C0959587950A94E2F780FF20C0B2
:102D1000F501EE0FFF1FE058FA4F808191812A8163
:102D20003B8182239323892B59F4F501EE0FFF1F7A
:102D3000EA57FA4F8081918182239323892B41F0B6
:102D400037E06316E1F087E296E00E946A1D3DC01D
:102D500047E06416A1F0F801E058FA4F80819181B4
:102D60006A817B81682B792B7B836A838EE893E071
:102D70000E943E1DC10104970E94A61D26C08CE141
:102D800096E00E946A1D1B821A821FC069816170D1
:102D9000860197014A815B81872D0E9416140F904E
:102DA0000F900F90DF91CF911F910F91FF90EF90B7
:102DB000DF90CF90BF90AF909F908F907F906F905B
:102DC0005F904F903F902F90089569816695617054
:102DD000DFCFCF92DF92EF92FF920F931F93CF93AB
:102DE000DF936C017A018B01C0E0D0E0CE15DF05E6
:102DF00081F0D8016D918D01D601ED91FC9101908A
:102E0000F081E02DC6010995892B11F02196EECFB6
:102E10007E01C701DF91CF911F910F91FF90EF903D
:102E2000DF90CF900895FC01918D828D981761F00D
:102E3000828DDF01A80FB11D5D968C91928D9F5FF1
:102E40009F73928F90E008958FEF9FEF0895FC019C
:102E5000918D828D981731F0828DE80FF11D858D4F
:102E600090E008958FEF9FEF0895FC01918D228DE2
:102E7000892F90E0805C9F4F821B91098F73992767
:102E800008958DEB96E00E94351721E0892B09F417
:102E900020E0822F0895FC01848DDF01A80FB11D71
:102EA000A35ABF4F2C91848D90E001968F73992780
:102EB000848FA689B7892C93A089B1898C9180646D
:102EC0008C93938D848D981306C00288F389E02D2E
:102ED00080818F7D80830895EF92FF920F931F93DF
:102EE000CF93DF93EC0181E0888F9B8D8C8D9813BD
:102EF00005C0E889F989808185FD24C0F62E0B8DF7
:102F000010E00F5F1F4F0F731127E02E8C8DE8121A
:102F10000CC00FB607FCFACFE889F989808185FFDC
:102F2000F5CFCE010E944B17F1CF8B8DFE01E80F3C
:102F3000F11DE35AFF4FF0820B8FEA89FB898081F4
:102F4000806207C0EE89FF896083E889F989808102
:102F50008064808381E090E0DF91CF911F910F9199
:102F6000FF90EF900895CF93DF93EC01888D882335
:102F7000C9F0EA89FB89808185FD05C0A889B989E6
:102F80008C9186FD0FC00FB607FCF5CF808185FFC1
:102F9000F2CFA889B9898C9185FFEDCFCE010E942F
:102FA0004B17E7CFDF91CF91089580E090E0892B18
:102FB00021F00E94411781110DC080E090E0892B23
:102FC00071F080E090E0892B51F00E9400008111A7
:102FD00004C008950E940000F0CF0C9400000895F2
:102FE00008950E941F350C9464340C945C341F9235
:102FF0000F920FB60F9211242F933F934F935F932D
:103000006F937F938F939F93AF93BF93EF93FF93B0
:103010008DEB96E00E944B17FF91EF91BF91AF911E
:103020009F918F917F916F915F914F913F912F91E0
:103030000F900FBE0F901F9018951F920F920FB612
:103040000F9211242F938F939F93EF93FF93E0910F
:10305000CD06F091CE068081E091D306F091D406A2
:1030600082FD12C090818091D6068F5F8F73209170
:10307000D706821751F0E091D606F0E0E354F94FFD
:10308000958F8093D60601C08081FF91EF919F912B
:103090008F912F910F900FBE0F901F90189590E079
:1030A000FC013297ED30F10590F5E959FF4F0C9492
:1030B0001935809180008F7703C0809180008F7DCB
:1030C00080938000089584B58F7702C084B58F7D8A
:1030D00084BD08958091B0008F7703C08091B000C7
:1030E0008F7D8093B0000895809190008F7703C00A
:1030F000809190008F7D8093900008958091A00032
:103100008F7703C08091A0008F7D8093A0000895E9
:103110001F93CF93DF93282F30E0F901E65DFE4F38
:103120008491F901E15FFE4FD491F901EC50FF4F1A
:10313000C491CC23C1F0162F81110E944F18EC2F9F
:10314000F0E0EE0FFF1FE559F54FA591B4919FB741
:10315000F894111104C08C91D095D82302C0EC9141
:10316000DE2BDC939FBFDF91CF911F910895CF930A
:10317000DF9390E0FC01E15FFE4F2491FC01EC50F5
:10318000FF4F8491882361F190E0880F991FFC0123
:10319000E15AF54FC591D491FC01E559F54FA59140
:1031A000B491611109C09FB7F8948881209582235A
:1031B0008883EC912E230BC0623061F49FB7F894A2
:1031C0008881322F309583238883EC912E2B2C938A
:1031D0009FBF06C08FB7F894E8812E2B28838FBF3E
:1031E000DF91CF9108953FB7F8948091A306909115
:1031F000A406A091A506B091A60626B5A89B05C079
:103200002F3F19F00196A11DB11D3FBFBA2FA92F65
:10321000982F8827820F911DA11DB11DBC01CD01E2
:1032200042E0660F771F881F991F4A95D1F70895CE
:103230008F929F92AF92BF92CF92DF92EF92FF92C6
:103240006B017C010E94F3184B015C01C114D10495
:10325000E104F104F1F00E94F318DC01CB018819BC
:103260009909AA09BB09883E9340A105B10570F3ED
:1032700021E0C21AD108E108F10888EE880E83E047
:10328000981EA11CB11CC114D104E104F10419F76A
:10329000DDCFFF90EF90DF90CF90BF90AF909F90E9
:1032A0008F9008952FB7F89460919F067091A006B3
:1032B0008091A1069091A2062FBF08951F920F92B0
:1032C0000FB60F9211242F933F938F939F93AF9339
:1032D000BF9380919F069091A006A091A106B09106
:1032E000A20630919E0623E0230F2D3720F401968D
:1032F000A11DB11D05C026E8230F0296A11DB11D19
:1033000020939E0680939F069093A006A093A1060B
:10331000B093A2068091A3069091A406A091A50661
:10332000B091A6060196A11DB11D8093A3069093AE
:10333000A406A093A506B093A606BF91AF919F9156
:103340008F913F912F910F900FBE0F901F90189566
:103350001F920F920FB60F9211242F933F934F930A
:103360005F936F937F938F939F93AF93BF93EF93ED
:10337000FF93E0910201F09103010995FF91EF9114
:10338000BF91AF919F918F917F916F915F914F917D
:103390003F912F910F900FBE0F901F9018951F9285
:1033A0000F920FB60F9211242F933F934F935F9379
:1033B0006F937F938F939F93AF93BF93EF93FF93FD
:1033C000E0910001F09101010995FF91EF91BF910A
:1033D000AF919F918F917F916F915F914F913F91AD
:1033E0002F910F900FBE0F901F901895CF93C82F5D
:1033F00080E090E0892B51F08091A9068C1731F084
:1034000081E0C11101C080E00E940000C093A906C4
:10341000CC2319F00E94521903C060E070E0CB0188
:103420006093AA067093AB068093AC069093AD06AA
:1034300080E090E0892B59F08091A906C81739F0F7
:1034400081E0C11101C080E0CF910C940000CF91C8
:1034500008950E94F619E7EAF6E081E08783108676
:1034600088E0E0EBF6E0DF011D928A95E9F7089528
:103470001F93CF93DF938331910550F481319105F0
:1034800090F48130910579F08930910591F40BC069
:103490008D31910571F42091A7062F73362F307C62
:1034A000232B2093A7062FEF3FEF3093BB062093EB
:1034B000BA0620E030E0232B29F0DF91CF911F9155
:1034C0000C940000162FEC010E94F517181721F13B
:1034D000612FCE010E94F317612FCE018C5A9E4FAF
:1034E0000E94F317612FCE0188559D4F0E94F3175C
:1034F00080E090E0892B21F0612FCE010E94000036
:1035000080E090E0892B41F08091A70684FD04C003
:10351000612FCE010E940000CE01DF91CF911F915B
:103520000C94F517CF92DF92EF92FF920F931F93B7
:10353000CF93DF9320E030E0232B51F0DF91CF9148
:103540001F910F91FF90EF90DF90CF900C940000AF
:103550008C010E94F517C82F68018CEAC81A8EEFFB
:10356000D80AC6010E94F517D82F780188E5E81A15
:103570008DEFF80AC7010E94F517CD1769F0D8132F
:1035800006C06D2FC8010E94F317CD2F0BC0C813C2
:1035900009C06C2FC60104C0C81721F06C2FC701E9
:1035A0000E94F3178C2FDF91CF911F910F91FF9005
:1035B000EF90DF90CF900895DF92EF92FF920F93FC
:1035C0001F93CF93DF938B01E42E82FF24C083FFF0
:1035D00016C061E0C8010E94CC0E882309F450C0D7
:1035E0006E2DC8010E94381AE8124AC0DF91CF91AF
:1035F0001F910F91FF90EF90DF900C94B30560E066
:10360000C8010E94CC0E8823D9F1C8010E94921AE9
:103610008E1136C0EBCF842F8770C1E0D0E001C09F
:10362000CC0F8A95EAF7842F8870D82ECB010E94A0
:10363000921AF82EE4FE15C061E0C8010E94CC0E7B
:103640008823F1F0DD2011F0CF2904C08C2F809564
:10365000C82FCF216C2FC8010E94381AC81310C080
:10366000C5CF60E0C8010E94CC0E882349F0CF216D
:10367000DD2019F0C111BACF03C0CC2309F4B6CFB5
:10368000DF91CF911F910F91FF90EF90DF90089500
:10369000CF932091BA063091BB062F3F8FEF3807AA
:1036A00011F0C90148C08DE190E00E94921A87FF95
:1036B00023C086FF0CC089E090E00E94921AC82FB8
:1036C00081E090E00E94921A2C2F30E024C089E023
:1036D00090E00E94921AC82F81E090E00E94921A16
:1036E000C77090E4C99F900111248F73282B3093E9
:1036F000BB062093BA061BC085FF10C081E190E095
:103700000E94921AC82F82E190E00E94921A2C2FF8
:1037100030E0205C3109322F2227E8CF81E090E0B1
:103720000E94921A90E09093BB068093BA06809113
:10373000BA069091BB06CF910895CF92DF92EF9297
:10374000FF920F931F93CF93DF937C016B01C42FE4
:10375000122FD42FD07E8091A70687FF1CC0D03EA9
:1037600009F0EFC08091A806882309F4EAC090E030
:103770000E94921AD82F8091A80690E001960E948C
:10378000921A4D2F50E0582B8FE3F8224E155F050B
:1037900009F0D7C019C080FF09C00E94481BE81675
:1037A000F90621F0E114F10409F0CBC0D03621F183
:1037B000F0F0D03A09F48BC008F4A2C0D03C09F470
:1037C000AAC0D03E09F0BDC08C2F8370612F70E07D
:1037D000782B6F5F7F4F402F8C2FDF91CF911F9100
:1037E0000F91FF90EF90DF90CF900C94DC1AD032C5
:1037F000C1F1D03409F053C080E090E0892BF9F09A
:103800008C2F8F71813029F078F0803169F081310F
:1038100011F440E00AC04C2F4F70440FC4FB8827BE
:1038200080F9482B425001C041E0C5FB222720F916
:103830000DE110E030E0B601C7010E94000080E019
:1038400090E0892B09F47DC04C2FB601C701DF91B0
:10385000CF911F910F91FF90EF90DF90CF900C943C
:103860000000CF71CF3109F06CC080E090E0892B6F
:1038700009F467C0412F4F7721F0413019F440E03F
:1038800001C041E0612F661F6627661F262F30E0CA
:103890000FE710E0B601C7010E94000052C0D1112D
:1038A00050C08C2F8E7009F04CC080E090E0892BC6
:1038B00009F447C0C0FF45C081E0DF91CF911F915F
:1038C0000F91FF90EF90DF90CF900C94000080E07C
:1038D00090E0892BB1F12C2F2F70C4FF0EC042E075
:1038E00050E0B601C701DF91CF911F910F91FF907A
:1038F000EF90DF90CF900C94000043E050E0F1CFC8
:10390000D038F9F480E090E0892BD9F02C2F2F717A
:1039100041E050E0E6CFCF71CE3119F0CF3149F020
:1039200010C080E090E0892B61F0212F44E050E04E
:10393000D8CF80E090E0892B21F0212F45E050E0A6
:10394000D0CFDF91CF911F910F91FF90EF90DF903B
:10395000CF900895682F8DEB96E00C946C1700972C
:1039600069F0FC0101900020E9F73197AF01481B95
:10397000590BBC018DEB96E00C94E91680E090E0C9
:103980000895CF93DF930E94AF1CEC018FEC91E080
:103990000E94AF1C8C0F9D1FDF91CF9108958F92D5
:1039A0009F92AF92BF920F931F93CF93DF93CDB7A8
:1039B000DEB7A1970FB6F894DEBF0FBECDBF19A238
:1039C000423008F44AE08E010F5D1F4F842E912C87
:1039D000A12CB12CA50194010E94A434E62FB901B9
:1039E000CA0101501109EA3014F4E05D01C0E95C3C
:1039F000D801EC93232B242B252B61F7C8010E94BF
:103A0000AF1CA1960FB6F894DEBF0FBECDBFDF91FD
:103A1000CF911F910F91BF90AF909F908F9008957D
:103A2000AB01682F4115510521F48DEB96E00C9404
:103A30006C1770E080E090E00C94CF1CCF93DF9384
:103A40000E94101DEC018FEC91E00E94AF1C8C0FC6
:103A50009D1FDF91CF910895682F8DEB96E00C9418
:103A60006C17AB01672B29F4682F8DEB96E00C9453
:103A70006C17BC0180E090E00C94CF1C0C94AF1C40
:103A8000CF93DF93C7EAD6E02881206128830E9484
:103A9000381A98819F7E9883DF91CF9108950F9374
:103AA0001F93CF93DF938C01C0E0D0E0F801EC0FBF
:103AB000FD1F6491662341F08DEB96E00E946C1728
:103AC000892B11F02196F2CFCE01DF91CF911F917A
:103AD0000F910895CF93DF930E944F1DEC018FEC5F
:103AE00091E00E94AF1C8C0F9D1FDF91CF91089534
:103AF000CF92DF92EF92FF92CF93DF936C01990FF9
:103B0000EE08FF08F7FE17C08DE20E942C1DEC01A5
:103B100066277727CB016C197D098E099F094AE03A
:103B20000E94CF1C8C0F9D1FDF91CF91FF90EF90D3
:103B3000DF90CF9008954AE0C701B601DF91CF91A1
:103B4000FF90EF90DF90CF900C94CF1CCF93DF933A
:103B50000E94781DEC018FEC91E00E94AF1C8C0F4D
:103B60009D1FDF91CF910895CF93DF936AE070E0BE
:103B70000E94311DEC018FEC91E00E94AF1C8C0F74
:103B80009D1FDF91CF910895CF92DF92EF92FF9228
:103B90000F931F93CF93DF93CDB7DEB764970FB624
:103BA000F894DEBF0FBECDBFD82EC92E42E0CE01A5
:103BB00001967C01BC018D2D9C2D0E943234F701B1
:103BC00001900020E9F731978F010E191F090C3081
:103BD000110534F480E30E942C1D0F5F1F4FF7CFB7
:103BE000C7010E943E1DCF92DF9281E993E09F932F
:103BF0008F93FF92EF920E943835C7010E943E1DBD
:103C00000F900F900F900F900F900F9064960FB63B
:103C1000F894DEBF0FBECDBFDF91CF911F910F9102
:103C2000FF90EF90DF90CF9008958230F8F4E82F66
:103C3000F0E0EE0FFF1FE050FF4F29E53DE031833C
:103C40002083813041F0809169008C7F682B6093E4
:103C50006900E89A089580916900837F660F771F55
:103C6000660F771F682B60936900E99A0895CF93D8
:103C7000DF93CDB7DEB769970FB6F894DEBF0FBEFE
:103C8000CDBF789484B5826084BD84B5816084BDE5
:103C900085B5826085BD85B5816085BD80916E00EA
:103CA000816080936E00109281008091810082601B
:103CB0008093810080918100816080938100809158
:103CC00080008160809380008091B1008460809347
:103CD000B1008091B00081608093B000809191002C
:103CE0008260809391008091910081608093910027
:103CF000809190008160809390008091A10082600B
:103D00008093A1008091A10081608093A1008091A7
:103D1000A00081608093A00080917A0084608093ED
:103D20007A0080917A00826080937A0080917A0094
:103D3000816080937A0080917A00806880937A0015
:103D40001092C100E091CD06F091CE0602E0008312
:103D5000E091C906F091CA061082E091CB06F0917D
:103D6000CC0680E180831092D506E091D106F091D7
:103D7000D20686E08083E091CF06F091D006808164
:103D800080618083E091CF06F091D00680818860C9
:103D90008083E091CF06F091D00680818068808397
:103DA000E091CF06F091D00680818F7D808361E025
:103DB0008DE00E94B71881E2E0E0F0E080935700C8
:103DC0001491E2E0F0E080935700E490EB82E4E0AD
:103DD000F0E080935700F490F9822E2D253931F4CC
:103DE0003F2D363119F41E3109F455C067E3E62E34
:103DF00061E0F62E7CE1C72E71E0D72EE1E0AE2E19
:103E0000E1E0BE2EF7018491F6010491F501949052
:103E10009920A1F081110E944F18E92DF0E0EE0FDA
:103E2000FF1FE851FF4FA591B4918C91082391E0B9
:103E300080E009F490E0692F782F02C060E070E024
:103E4000F1E06F278DE00E94881884E791E00E94DE
:103E50004F1D60E170E0812F0E94101D81E192E012
:103E60000E943E1D60E170E08B810E94101D81E187
:103E700092E00E943E1D60E170E089810E94101D69
:103E800085E491E00E946A1D68EE73E080E090E0B6
:103E90000E941819B7CF61E08CE00E94B71862E069
:103EA0008AE00E94B7183E98469A8EEA91E00E94F6
:103EB0003E1D80E090E00E94A61D1092B80600937F
:103EC000B90660E082E00E94B71861E082E00E94DB
:103ED000881885E1E2E0F6E0DF011D928A95E9F7B6
:103EE00083E080939C0382E990E090939B0380930E
:103EF0009A0382E590E0909399038093980363E09E
:103F000070E08091B8060E94151E80EC8093A70691
:103F10001092A8068FEF9FEF9093BB068093BA068E
:103F20001092BC068DE190E00E94921A682F606C9E
:103F30008DE190E00E94381A6AE087E090E00E94EC
:103F4000381A6DE088E090E00E94381A80E00E9404
:103F5000291A0E94E8310E9434120E94F70E81ED66
:103F600091E00E94C11C84E690E0909389008093C8
:103F70008800F89410928000109281008091810056
:103F800083608093810080916F00826080936F00D6
:103F90001092A0038CE080939F0388E180939E039E
:103FA00084E280939D03789421E2222E26E0322E33
:103FB0003AE0732E4AEF442E512C8DEB96E00E948E
:103FC0003517181619060CF056C78DEB96E00E94AF
:103FD00013178C3349F461ED71E081E296E00E94A1
:103FE000313510922006E9CF8E3309F01FC790912A
:103FF00022069A3309F057C4809123068335D1F401
:10400000809124068836B1F480912506803339F4F6
:1040100098E49093230690E7909324060BC0813395
:1040200049F488E48093230680E78093240683E3A1
:104030008093250690912106892F8F7D81548430AD
:1040400008F012C1E92E990FFF08870101541109E8
:104050001A8309830530110554F0005211091A839F
:104060000983053011051CF084E094E04AC60981FB
:104070001A8193E0000F111F9A95E1F7980117FF3D
:1040800002C0215F3F4F84E0359527958A95E1F77F
:10409000F901E75EF94F408147706091250680ED98
:1040A000860F9091230650912406983431F45037AE
:1040B000F9F4843008F0B3C65CC0963539F4523751
:1040C000B9F4833008F0ABC60C5F53C0913481F46F
:1040D000553771F4633761F44150433008F048C0FC
:1040E00009811A8106521A4F8CE0D8018C9397C629
:1040F00050ED590F543008F040C08CEF93E00E940F
:104100004F1D809121060E942C1D8DEE93E00E9490
:104110004F1D80912306082E000C990BC0970E941A
:10412000A61DE980FA80EE0CFF1CFA82E98263E0AA
:1041300070E0098002C0660F771F0A94E2F760956D
:1041400080911F06682380912306082E000C990B8E
:10415000C097098002C0880F991F0A94E2F7682B64
:1041600060931F0684E090E00E94401D0E943B087F
:1041700087E0800F0E94C50552C6592F5F7D5154BC
:10418000543008F04BC0892F990F990B8C010154C2
:1041900011090530110514F0005211090F5F1F4F6E
:1041A00089819A8162E070E00E940535880F991F2D
:1041B000880F991F4FE050E0082E01C0440F0A9469
:1041C000EAF74095F901EA53FC4F60816423A801A6
:1041D0004F70552701C0440F8A95EAF7642B60831E
:1041E000C9010C960E94401D80EE93E00E944F1D75
:1041F000809121060E942C1D012B19F489EC93E07B
:1042000080C585EA93E00E944F1D809123060E949D
:104210002C1D8FEC91E00E94AF1C01C6442309F4D1
:10422000FEC59D3249F09B3249F09F3661F09F34C4
:1042300079F09F3299F004C080E09BCF81E099CF64
:104240009C3771F002C082E094CF933259F002C0E3
:1042500083E08FCF9A3209F48BCF8BCF84E089CF64
:1042600085E087CF86E085CF80ED890F843008F028
:10427000D6C5E92E990FFF088701005311091C8349
:104280000B838091200690E0E4E2F6E000E010E08D
:104290009F01215236402817390794F4419120EDAF
:1042A000240F2A30A8F7709E9001719E300D1124C2
:1042B000890100531109040F111D47FD1A95E8CF1C
:1042C000209123062F7D223409F054C00F3F1105A1
:1042D00019F010F00AE010E08AE993E00E944F1D07
:1042E0008B819C810E94781D86E893E00E944F1D7F
:1042F000C8010E94B41D2B813C8124503B4F7901A1
:10430000D9010C93EB81FC81EF2B21F4602F85E028
:1043100090E011C02B813C812130310521F4602FC8
:1043200086E090E008C04B815C81602F42305105EF
:1043300089F48AE090E00E94401D8CE00B811C8192
:10434000809FF001819FF00D1124E85DFB4F80E01C
:1043500090E009C08BE090E0EECF019631968C3072
:10436000910509F45CC520812223B9F3D7012C9172
:104370002083F3CF2C3409F09BC08091240685362E
:1043800009F05EC080912506982F9F7D943441F5F9
:10439000909126069F7D913419F5909127069F7D77
:1043A0009E34F1F40D30110510F005E010E08BE7BC
:1043B00093E00E944F1D8B819C810E94781D86E6B0
:1043C00093E00E944F1DC8010E94B41DEB81FC8147
:1043D000E853FB4F0083602FC70189529F4F0EC3E4
:1043E0008F7D843469F5809126068F7D8D3441F56B
:1043F00080912706813621F5809128068F7D8835AA
:10440000F9F40D30110510F00CE010E08BE593E0AD
:104410000E944F1D8B819C810E94781D85E493E052
:104420000E944F1DC8010E94B41D2B813C8128545D
:104430003B4FD9010C93602FC70185529F4FDEC2BD
:104440002091C503012B11F40C94243141E050E07C
:1044500060E070E00B8004C0440F551F661F771F9B
:104460000A94D2F7422B4093C5036091C5038EE0B6
:1044700090E00E94401D8AE393E00E944F1D8B81D3
:104480009C810E94781D88E293E00E944F1D8091DC
:10449000C50390E00B8002C0959587950A94E2F7DA
:1044A00080FF03C082ED91E00BC486ED91E008C46B
:1044B000243491F5209124062F7D2A3509F057C028
:1044C000C8016AE070E00E94F1348B016F3F710512
:1044D00019F010F00CE211E08DE193E00E944F1D05
:1044E0008B819C810E94781D8CE093E00E944F1D7F
:1044F000709EC001719E900D11240E94B41DEB812D
:10450000FC81EE0FFF1FE454FB4F11830083602FEB
:10451000C7018D529F4F72C2263439F5209124066F
:104520002F7D243521F50F3F110519F010F009E119
:1045300010E02B813C81255E394F6901D9010C9334
:1045400081E093E00E944F1D8B819C810E94781D29
:1045500081EF92E00E944F1DC8010E94B41DF60138
:104560006081C70181539F4F49C2243529F0E7E29A
:10457000F6E000E010E06AC0602F6F708B810E944F
:104580006F0886EE92E00E944F1D809121060E94E6
:104590002C1D8AED91E00E943E1D8B810E94A71187
:1045A0000E9434126AEDC62E65E0D62E72EEE72E1A
:1045B00075E0F72EF7E0F983812C912C580122E069
:1045C000A21AB108ECE06E2E80911F0690E0082C34
:1045D00002C0959587950A94E2F7837099274B81DD
:1045E0005C814817590791F40130110521F0F2E080
:1045F000AF16B10440F4D6016C92F701108211821B
:104600001282138203C089810E94C505F2E08F0ED9
:10461000911C2FEFC21AD20A34E0E30EF11C49813B
:10462000485F4983473281F6FAC3219130ED320F5A
:104630003A3060F4709EB001719E700D11248B01B0
:1046400000531109020F111D27FD1A959F012152D8
:104650003640281739074CF3011550E1150708F0CB
:10466000DEC3809126068D3331F08852823018F0F7
:1046700083ED92E046C388EC92E00E944F1D8B814F
:104680009C810E94781D8EE493E00E943E1D8091E3
:10469000250690912306983491F490912406903742
:1046A00009F0BDC350EDF52EF80E85EC92E00E94A6
:1046B0004F1D6AE070E08F2D0E94101D14C09635CA
:1046C00009F0ADC390912406923709F0A8C344EDD8
:1046D000F42EF80E82EC92E00E944F1D8F2D90E098
:1046E00004970E94781D8EED91E00E943E1D62E0CD
:1046F00070E0C8010E94311D80E192E00E943E1DE1
:104700006AE070E0C8010E94311D85EB92E00E94D2
:104710004F1D809126068D33D1F48BEA92E00E94E2
:104720006A1DEB81FC8123E0EE0FFF1F2A95E1F764
:10473000EF0DF11DEE0FFF1FE058FA4F11830083BC
:104740000E943B086EE170E0788B6F8733C088323F
:10475000C1F489E992E00E946A1DEB81FC8183E04B
:10476000EE0FFF1F8A95E1F7EF0DF11DEE0FFF1F12
:10477000E05CFA4F118300838EE790E0988B8F877F
:1047800019C08932B9F487E892E00E946A1DEB8172
:10479000FC81A3E0EE0FFF1FAA95E1F7EF0DF11DDD
:1047A000EE0FFF1FE050FB4F11830083AEEAB0E035
:1047B000B88BAF878CE0EB81FC818E9F60018F9F6F
:1047C000D00C11248F2D8695F3E08F9FC00CD11C47
:1047D00011242F853889C20ED31EF0FC19C0602F1A
:1047E000C6010E94401D3FEFC31AD30AC6010E94B2
:1047F000921A00271F70807F682F612BC6010E94CC
:10480000401DF7E0EF2E00E010E049EFF40E23C06A
:1048100056015FEFA51AB50AC5010E94921A8F7062
:10482000902F9295907F682F692BC5010E94401DA3
:10483000B801607F7F70E4E076956795EA95E1F7CF
:10484000C6010296DCCF0E5F1F4FB8E0EB0EE7E229
:10485000EE1609F4E4C280911F0690E098012F5FE4
:104860003F4FBC0102C0759567952A95E2F79B0101
:1048700021703327220F331F002E02C09595879594
:104880000A94E2F781709927822B932BAB81BC812C
:10489000A817B907C1F68E2D0E94C5058F2D8E0D64
:1048A0000E94C505D0CF30912006A2E2B6E0FD01FE
:1048B00061E070E0432F50E06417750744F4819184
:1048C0008A3311F4262F04C06F5F7F4FF5CF232F5B
:1048D00000E010E0E22FF0E0BD01615276406E177B
:1048E0007F0794F48D9160ED680F6A30A8F7709E91
:1048F000B001719E700D1124082F880F110B005309
:104900001109060F171FE8CFEE5DF94F1A821982C1
:10491000BF016152764064177507B4F4819160ED70
:10492000680F6A30A8F7E980FA807E9CD0017F9CEE
:10493000B00D1124682F880F770B605371096A0F2F
:104940007B1F7A836983E4CF50912106452F4F7DE9
:104950004235D9F4953609F032C180912306833768
:1049600009F02DC180912406853609F028C1809177
:104970002506843709F023C185E792E00E946A1D6D
:104980000E944E310E94E8314AC2443409F0B6C058
:10499000892F8F7D833409F012C180912306682FFF
:1049A0006F7D633471F5609124066F7D643449F541
:1049B000609125066F7D6A3521F587E492E00E94BB
:1049C0004F1DC8016AE070E00E94F134CB010197ED
:1049D0008E3F910510F062E370E06093C403769E11
:1049E000C001779E900D11240E94781D83EE91E006
:1049F0000E94C11C6091C4038FE091E00E94401DA1
:104A00000EC28F7D833409F0DAC0321318C01093C0
:104A1000C3030093C203602F81E090E00E94401D19
:104A20006091C30389E090E00E94401D81E0809383
:104A3000C10361E08EED90E00E94401DA3C089811A
:104A40009A8101979A8389838032910508F053C037
:104A50007C01F694E7941092C10360E08EED90E043
:104A60000E94401D6701CC0CDD1C612FC6018152E4
:104A70009F4F0E94401D602FC60180529F4F0E9491
:104A8000401DF601EF55FC4F118300838FE392E048
:104A90000E944F1DA981BA8153E0B695A7955A95FA
:104AA000E1F7BD016F5B7F4F8DEB96E00E946C17C5
:104AB00085E392E00E944F1DB3E0EB22FF24F70153
:104AC000EE0FFF1FFA83E9836AE070E0CF010196E1
:104AD0000E94311D86EE91E00E943E1D6AE070E06A
:104AE00089819A8102960E94311D88EE91E00E9490
:104AF0003E1DC80192C182E292E003C14A35F1F540
:104B00009801215031092D30310508F088C1898183
:104B10009A8183589F4FB2010E94F1344AEF469F19
:104B2000C001479F900D11247901EE0CFF1C9701E5
:104B300020543A4F3A832983D9018D939C93B20133
:104B40000E94F134C80140960E94401D8FE092E01F
:104B50000E944F1D6AE070E0C8010E94311D89EF7C
:104B600091E00E943E1D6AE070E0E981FA81808157
:104B700091810E94311D83EE91E0A2C0493429F455
:104B80000E9434120E94F70E4AC14435C1F48BEEE4
:104B900091E00E946A1DE8E5F4E080E090E0219158
:104BA000DC01A857BB4F2C93019680339105B9F7D0
:104BB00064EF71E080E090E00E94181930C1533535
:104BC00009F081C08EEF91E00E943E1D1A82198289
:104BD00089819A816CE070E00E940535892B21F46F
:104BE00086E092E00E943E1DE981FA81E857FB4F82
:104BF00080816AE070E00E94101D81E192E00E94D5
:104C00003E1D09811A810F5F1F4F1A8309830033EC
:104C10001105F1F689E092E00E94C11C8BE092E060
:104C20000E943E1D0CEC14E01A82198289819A813F
:104C30006CE070E00E940535892B21F486E092E05B
:104C40000E943E1D6AE070E0D8018D918D010E94A6
:104C5000101D81E192E00E943E1DE981FA813196AA
:104C6000FA83E983F09711F789E092E00E94C11C72
:104C700083E192E00E943E1D08E214E01A8219824C
:104C800089819A816CE070E00E940535892B21F4BE
:104C900086E092E00E943E1D6AE070E0D8018D91AE
:104CA0008D010E94101D81E192E00E943E1DE9816C
:104CB000FA813196FA83E983F09711F789E092E05F
:104CC0000E94C11CACC0892F8F7D8154843008F0B4
:104CD000A6C0892F990F990B7C01F1E4EF1AF10816
:104CE00025E0E216F10444F07C0131E6E31AF10814
:104CF00065E0E616F1041CF40C3011052CF086ED8D
:104D000091E00E946A1D8BC02CE02E9DC0012F9D5A
:104D1000900D1124080F191F5B3209F03FC0C80124
:104D2000885A9B4F6C01A981BA81AB2B19F029815C
:104D3000FC012083D6018C91853610F084E68C939B
:104D4000F6016081C801825B9F4F0E94401DF801FF
:104D5000E453FB4FD6018C918083F801E85DFB4F53
:104D6000108283EC91E00E944F1DC7018F5B9F4F23
:104D70000E94AA1CC8016CE070E00E94F1346AE055
:104D800070E00E94311D84EB91E00E944F1D6AE0AB
:104D900070E0F60180810E941E1D41C05D32B9F4B1
:104DA000F801E453FB4F1082F801E85DFB4F1082DD
:104DB00080EA91E00E944F1DC7018F5B9F4F0E94C8
:104DC000AA1CC8016CE070E00E94F13426C0423495
:104DD00031F5F801E85DFB4F29812083F801EE0FE2
:104DE000FF1FE853FC4F1182108280E991E00E947E
:104DF0004F1DC7018F5B9F4F0E94AA1CC8016CE02A
:104E000070E00E94F1346AE070E00E94311D86E893
:104E100091E00E944F1D89819A810E94B41D61ED2D
:104E200071E081E296E00E943135C7C8F10101903E
:104E30000020E9F73197E152F6403F9708F0BDC8EE
:104E4000282F082E000C330B3F938F933F922F9205
:104E50004BE152E05F934F933F922F920E9438357F
:104E6000809120068F5F809320060FB6F894DEBFF6
:104E70000FBECDBFA2C80E9452194B015C016093C6
:104E80006B0670936C0680936D0690936E0680910E
:104E90001F06E82FF0E0FA87E9870BE516E01C8390
:104EA0000B832CEC34E03E872D8708E514E048ECBA
:104EB00053E058874F833E832D83E12CF12C212C26
:104EC000312CEB81FC8180819181A281B381A5018C
:104ED0009401281B390B4A0B5B0BDA01C901E985E8
:104EE000FA85022C02C0F595E7950A94E2F7E37083
:104EF000F0E0E55EF94F408150E060E070E0481777
:104F000059076A077B0708F0F4C0EB81FC818082B7
:104F10009182A282B382EF8A6D807E8068012F81A8
:104F20003885398F288F412C512C198292012E0DF2
:104F30003F1D4CE04416510409F492C0F901E857B2
:104F4000FB4F5081D3014C91541709F45AC0808112
:104F5000481708F58081D6012C9130E0B4E68B9F8C
:104F6000C0011124B9010E9405356A507109629F80
:104F7000C001639F900D729F900D112464E670E054
:104F80000E94053560838081841708F44083E9819D
:104F9000E260E98355C0453620F0F981F460F98379
:104FA0004FC08081D6019C91692F70E07A8B698B0C
:104FB00074E6879FC001112469897A890E940535AA
:104FC000665F7F4FA989BA896A9FC0016B9F900D68
:104FD0007A9F900D112464E670E00E94053580816F
:104FE00090E06817790721F480818F5F808301C08A
:104FF0006083F901E857FB4F8081481708F540832B
:105000001FC0F901E85DFB4F80818823C9F0E88D5E
:10501000F98D208131812F5F3F4F3183208390E0D4
:10502000281739076CF0511105C0D6018C91F30196
:10503000808302C0D3011C92E88DF98D1182108209
:10504000FFEF4F1A5F0A288D398D2E5F3F4F398F42
:10505000288F3FEFC31AD30A4FEF641A740A66CF42
:10506000E981E1FD46C0E2FF44C08F896CE00E9407
:10507000E534880F29853A8502C0359527958A95AC
:10508000E2F721FB332730F93B8B1C8AB801ED8115
:10509000FE814DE050E08B899C89875E994F6C01C1
:1050A0009F012C5C34404150510919F180818636B2
:1050B000B8F0D6018C9190E021703327220F331F76
:1050C000220F331F02C0959587952A95E2F78770C6
:1050D000813019F4DB018C9180838081815004C080
:1050E000853619F4DB018C91808331966F5F7F4F99
:1050F000D7CFB2E02B0E311CEB81FC813496FC83C0
:10510000EB832D813E81245F3F4F3E832D833CE026
:10511000E30EF11C045F1F4F4F815885485E5F4FBF
:1051200058874F8358E02516310409F0CACE809184
:10513000190681110AC080911A06811106C080915A
:10514000A906882309F483C56BC561E376E07C83F7
:105150006B8382EE95E09A8389835AEDE52E55E0C4
:10516000F52EA4ECB4E0BE83AD83E1E4F0E0F88773
:10517000EF8301E010E01A870987212C312C809100
:105180001F0690E09101220F331FAC0102C055951C
:1051900047952A95E2F75A8B498B4170098402C0E2
:1051A000959587950A94E2F781709927880F991F42
:1051B000482B498BE42FE695F0E0E75EF94F8081BC
:1051C00090E041704D8B1E8A2D893E89220F331F3E
:1051D000220F331F02C0959587952A95E2F78770B5
:1051E000813009F084C280916B0690916C06A09189
:1051F0006D06B0916E06EB81FC8140815181628128
:1052000073818C019D01041B150B260B370BE98163
:10521000FA81408151816281738140175107620791
:10522000730708F0CFC4EB81FC8180839183A28354
:10523000B383F101F595E795E75EF94F808190E042
:10524000910121703327220F331F220F331F2D5F4F
:105250003F4F8C0102C0159507952A95E2F7C801CA
:105260008170992700FD10C0D7012C9127FF0CC039
:1052700006E019EF20E030E0A981BA810D931D937B
:105280002D933C93139731C0F701208131E0320F09
:10529000432F4F774A3011F0308302C029502083CA
:1052A000F7012081322F3F773B3010F021502083CF
:1052B000D7014C91E42FEF77F0E0EE0FFF1FE054A1
:1052C000FA4F20813181890120E030E0E981FA81C3
:1052D0000083118322833383892B39F4423011F008
:1052E000473019F44068D7014C9386EB95E00E9453
:1052F0004F1D8F8198850E94AA1C89EF91E00E9422
:105300003E1D6AE070E0F70180810E94101D80E27E
:1053100092E00E943E1DA981BA816D917D918D918F
:105320009C914AE00E94CF1C83E292E00E943E1DC5
:10533000D701EC91EF778E2F90E08D30910508F03A
:10534000CEC1FC01E65AFF4F0C94193584E995E073
:10535000BDC084E795E00E946A1DF98908E0F0026B
:10536000F0011124FA8BE98BCF0103969F01220FE4
:10537000331FF901E058FA4FD901A05CBA4F2081E0
:1053800031814D915C91422B532B880F991FFC0169
:10539000E058FA4F20813181422B532B29893A89D9
:1053A000220F331F2E573A4FD9012D913C91422B9A
:1053B000532BFC01E05CFA4F208131816AC182E508
:1053C00095E00E946A1DF98908E0F002F0011124BD
:1053D000FA8BE98BDF01AA0FBB1FAC57BA4FEE0F58
:1053E000FF1FEA57FA4F8D919C9140815181482BC4
:1053F000592BE989FA89EE0FFF1FE05CFA4F2081F3
:105400003181422B532BE989FA89EE0FFF1FE65BAE
:10541000FA4F208131812BC080E395E00E946A1D04
:10542000F98908E0F002F0011124FA8BE98BCF0131
:105430000396EE0FFF1FEC57FA4F880F991FDC0100
:10544000A058BA4F208131814D915C91422B532B52
:10545000E989FA89EE0FFF1FE05CFA4F2081318164
:10546000242B352BFC01E05CFA4F40815181422B0B
:10547000532B29893A89220F331F225F3A4FD8C014
:105480008EE095E00E946A1DF98908E0F002F001C3
:105490001124FA8BE98BCF010396DF01AA0FBB1F02
:1054A000AE57BA4F880F991FFC01E058FA4F4D9143
:1054B0005C9120813181242B352B49895A89440FF5
:1054C000551F405C5A4F52C08CEE94E00E946A1DFA
:1054D000F98908E0F002F0011124CF010396EE0FE4
:1054E000FF1FFA8BE98BE058FA4F29893A89205C33
:1054F0003A4F3A8B298B20813181A989BA894D9104
:105500005C91422B532B880F991FFC01E058FA4FF6
:10551000208131814CCF8CEC94E00E946A1DF98986
:1055200008E0F002F0011124FA8BE98BCF01039619
:105530009F01220F331FF901E058FA4FD901A05CF7
:10554000BA4F208131814D915C91242B352B880FEE
:10555000991FFC01E058FA4F40815181242B352BD3
:1055600049895A89440F551F48575A4FDA014D91BE
:105570005C911DCF8AEA94E00E946A1DF98908E0D7
:10558000F002F0011124FA8BE98BDF01AA0FBB1F97
:10559000A657BA4FEE0FFF1FEA5BFA4F8D919C9111
:1055A00040815181482B592BE989FA89EE0FFF1F61
:1055B000E058FA4F20813181422B532BE989FA8937
:1055C000EE0FFF1FEC5BFA4F20813181422B532BF2
:1055D00029893A89220F331F29C088E894E00E9464
:1055E0006A1DF98908E0F002F0011124FA8BE98BB9
:1055F000CF01880F991FFC01E058FA4FDC01A05C35
:10560000BA4F208131814D915C91422B532BFC018B
:10561000E657FA4F20813181422B532BFC01EA5B84
:10562000FA4F20813181422B532B9C01245F3A4F4A
:10563000D9012D913C9157C086E694E00E946A1DE5
:10564000F98908E0F002F0011124FA8BE98BCF010F
:10565000880F991FFC01E058FA4FDC01A05CBA4F9B
:10566000808191814D915C91482B592BE989FA8970
:10567000EE0FFF1FE857FA4F80819181482B592B7D
:1056800029893A89220F331F2A5B3A4FD9012D917C
:105690003C91422B532B20E030E025C085E494E080
:1056A0000E946A1DF98900E1F002F0011124EE5F09
:1056B000FA4F2081318115C084E294E00E946A1D76
:1056C000398940E1340290011124285F3A4FD90111
:1056D0002D913C9106C086ED91E00E94C11C20E016
:1056E00030E040E050E000E010E060E068C282306E
:1056F00009F011C180916B0690916C06A0916D0626
:10570000B0916E06EB81FC81408151816281738191
:105710008C019D01041B150B260B370BE981FA81C7
:10572000408151816281738140175107620773077D
:1057300008F048C2EB81FC8180839183A283B3830C
:10574000D7014C914C3071F406E019EF2FEF3FEF89
:10575000A981BA810D931D932D933C931397E0E09B
:10576000F0E0D3C00989002E000C110B1A8B098BB5
:10577000F801E450FB4F8081082F10E025E0829F64
:10578000C0011124092E000CAA0BBB0BE981FA8180
:1057900080839183A283B383AD85BE85E0E0F0E092
:1057A00080E090E02D91222351F021E030E0082E9E
:1057B00002C0220F331F0A94E2F7E22BF32B01966B
:1057C0008C30910579F7A989BA89A853BB4FDC9031
:1057D0002BE02D1508F445C0AD81BE812C9130E041
:1057E000A989BA89AA0FBB1FA454BB4F8D919C9164
:1057F000B8010E9405352617370711F420E030E084
:10580000A989BA89A854BB4F6C9170E0842F8F7717
:10581000DB01A80FB11DCD018D199109820F931FD6
:105820000E94053529893A8953E0220F331F5A9582
:10583000E1F78830910544F4D901A80FB91FAA0FE8
:10584000BB1FA058BA4F07C0DC01A20FB31FAA0F9D
:10585000BB1FA05DBA4F8D919C9180959095E823D8
:10586000F923AD81BE81DC902D2D30E0A989BA8964
:10587000AA0FBB1FA454BB4F8D919C91B8010E94ED
:1058800005352617370759F5842F8F77282F30E0F5
:10589000883078F489899A8973E0880F991F7A95FE
:1058A000E1F7DC01A20FB31FAA0FBB1FA058BA4F2C
:1058B0000EC089899A8953E0880F991F5A95E1F79C
:1058C000D901A80FB91FAA0FBB1FA05DBA4F8D91B8
:1058D0009C91E82BF92B4F5FD7014C9304C0D394D4
:1058E000AD81BE81DC92D7018C91982F9F77098979
:1058F0001A8908541B4FD8012C91921306C0891B9A
:10590000D7018C93AD81BE811C9200E010E020E0B5
:1059100030E0AF0153C1833009F054C180916B0670
:1059200090916C06A0916D06B0916E06EB81FC81A2
:1059300040815181628173818C019D01041B150B93
:10594000260B370BE981FA81408151816281738195
:10595000401751076207730708F034C1EB81FC81DF
:1059600080839183A283B383D7018C918C3071F4AF
:1059700006E019EF2FEF3FEFA981BA810D931D9338
:105980002D933C9313971A8A198A12C10E945219B7
:105990002FEF3FEF40E050E00E94A4346115710505
:1059A0008105910511F00E9429340989002E000C0F
:1059B000110B1A8B098BF801E853FB4FD080D701EC
:1059C0004C91442371F0F801E854FB4FD0802D2D09
:1059D00030E0842F90E08217930714F0DA9401C02E
:1059E000D42EE989FA89E450FB4F8080912CA12CB8
:1059F000B12C0E94DB3328E730E040E050E00E9409
:105A000072349B01AC0128583F4F4F4F5F4FC50187
:105A1000B4010E94D534E981FA8160837183828365
:105A200093838D2C912CA12CB12C81149104A10471
:105A3000B10441F00E94DB33A50194010E9472344D
:105A4000862F01C080E0ED85FE8500E010E0C12CCE
:105A500020E030E09191992381F08C1561F041E0D4
:105A600050E0022E02C0440F551F0A94E2F7042BA7
:105A7000152BC39402C0C82E80582F5F3F4F2C3087
:105A8000310541F762E10E94E534892EE989FA89FE
:105A9000E854FB4F9080492C512C612C712C4114FF
:105AA00051046104710441F00E94DB33A3019201AF
:105AB0000E947234862F01C080E0A988BA8833E042
:105AC000AA0CBB1C3A95E1F729893A8928543B4F27
:105AD0003A8B298B992009F450C0CD1408F04DC0A1
