:100000000C9471050C94CB190C94A4190C949905BB
:100010000C9499050C9499050C9499050C949905E8
:100020000C9499050C9499050C9499050C94410B2A
:100030000C9499050C9499050C9499050C949905C8
:100040000C945A190C9499050C9419180C94F317E4
:100050000C9499050C9499050C9499050C949905A8
:100060000C9499050C9499050C9499050C94990598
:100070000C9499050C9499050C9499050C94990588
:100080000C9499050C9499050C9499050C94990578
:100090000C9499050C9499050C9499050C94990568
:1000A0000C9499050C9499050C9499050C94990558
:1000B0000C9499051E2A212A542A7E2AAF2AD02A76
:1000C000F12A1A2B482B762BA42BB12BC12B5F18AE
:1000D0006218551859188318831866186A1870180A
:1000E000741883187A187E18000000002300260078
:1000F00029002C0004040404040404040202020283
:1001000002020303030303030202030505050501BD
:10011000020408102040800102040810200102049B
:10012000081020408040010204080A0D0E09000357
:1001300002000004050800000000000000000000AC
:1001400000000000004C65747A74656E2053746181
:100150007475732077696564657268657273746518
:100160006C6C656E00202042697474652065696E50
:10017000656E2041744D65676133323850422050BE
:10018000726F7A6573736F722076657277656E64CD
:10019000656E210050726F7A6573736F7266656861
:1001A0006C65723A2000202044617565723A200027
:1001B000426C696E6B656E204C45442D4E6F2E006F
:1001C000417573736368616C74656E204C45442D92
:1001D0004E6F2E00202048656C6C69676B656974F2
:1001E0003A2000416E736368616C74656E204C4503
:1001F000442D4E6F2E0046616C7363686520536911
:10020000676E616C6E756D6D657200416C6C65201A
:100210004C454473206175662D20756E64207769A6
:1002200065646572206162626C656E64656E004C27
:1002300065747A65746E20537461747573206E6191
:100240006368205374726F6D61757320776965649C
:1002500065726865727374656C6C656E202D3E20E6
:1002600000416D70656C7A656974205A75737461AC
:100270006E6420004E6963687420756E74657273D5
:10028000747565747A7400202042656665686C2018
:10029000005369676E616C200049676E6F72696513
:1002A000726520646F7070656C7465204443432DE3
:1002B00042656665686C6520696E6E657268616C22
:1002C0006220766F6E2000526573657420617573CD
:1002D00067656675656872740020426C696E6B654F
:1002E0006E2047727570706520320020426C696E16
:1002F0006B656E20477275707065203100204C650B
:1003000075636874656E00206665737467656C65F7
:10031000677420616C73204C454473206675657268
:1003200000417573202D3E20420056720048700037
:100330005369676E616C7479702000556E62656BED
:10034000616E6E7465722042656665686C00536903
:10035000676E616C74797020003A20426C656E643F
:100360007A656974202D3E20005369676E616C7454
:10037000797020003A2044756E6B656C7A656974FB
:10038000202D3E20005369676E616C7479702000E7
:100390003A202D3E205369676E616C6C6F67696B04
:1003A00020005369676E616C74797020003A2041B7
:1003B0006E7A61686C204C454473206D6178202D05
:1003C0003E20005369676E616C74797020003A209A
:1003D000416E7A61686C204C45447320616E202D1B
:1003E0003E20005369676E616C74797020003A207A
:1003F000426C696E6B6672657175656E7A202D3E12
:1004000020005369676E616C7479702000207374EA
:10041000656C6C74206175746F6D61746973636869
:10042000206175636820566F727369676E616C2016
:1004300000207374656C6C74206B65696E20566F58
:10044000727369676E616C00486175707473696777
:100450006E616C2000202D3E205369676E616C74C4
:10046000797020005369676E616C200046616C737F
:10047000636865205369676E616C6E756D6D65723A
:1004800000486175736C6963687420004175746F0E
:100490003A2D2F67656C625F626C696E6B2020205D
:1004A000202020467573733A202D2F2D004175743E
:1004B0006F3A67656C625F626C696E6B2F2D2020EE
:1004C0002020202020467573733A2D2F2D00417572
:1004D000746F3A726F742F67656C62202020202041
:1004E000202020467573733A726F742F726F7400F8
:1004F0004175746F3A726F742F677275656E202044
:100500002020202020467573733A726F742F726F0B
:1005100074004175746F3A726F742F677275656EEF
:100520002020202020467573733A677275656E2F00
:10053000726F74004175746F3A726F742F726F74BA
:100540002B67656C622020467573733A726F742F47
:10055000726F74004175746F3A726F742F726F749A
:10056000202020202020202020467573733A726FAF
:10057000742F726F74004175746F3A67656C622FE7
:10058000726F742020202020202020467573733A3B
:10059000726F742F726F74004175746F3A67727561
:1005A000656E2F726F7420202020202020467573E6
:1005B000733A726F742F726F74004175746F3A677B
:1005C0007275656E2F726F7420202020204675731F
:1005D000733A726F742F677275656E004175746F30
:1005E0003A726F742B67656C622F726F74202046AD
:1005F0007573733A726F742F726F74004175746FF4
:100600003A726F742F726F742020202020202020D7
:1006100020467573733A726F742F726F7400416D58
:1006200070656C20004443432D53746172742D41F6
:10063000647265737365206665737467656C65675E
:1006400074206175663A20004765776165686C744F
:10065000657220416E7363686C757373206973747F
:10066000206B65696E205369676E616C00202D3EBA
:10067000204C6175666C6963687420005369676E0D
:10068000616C20005369676E616C20617573005660
:100690006F727369676E616C206E69636874206D38
:1006A0006F65676C6963682C206461204870302F27
:1006B00053683121005369676E616C200020676CBC
:1006C000656963687A656974696720616E004C4585
:1006D00044732C206461766F6E206D61782E004823
:1006E0006175736C69636874206D6974200020679C
:1006F0006C656963687A656974696720616E004C2E
:100700004544732C206461766F6E206D61782E00F5
:100710004C6175666C69636874206D697420004172
:100720006D70656C206D6974206175746F6D617496
:1007300069736368656D20556D736368616C74657A
:100740006E00206D6974205369676E616C6C6F6711
:10075000696B004D756C7469706C65787369676E50
:10076000616C00416E7363686C7573732020202088
:100770002041202020202042202020202043202013
:1007800020202044004C45442D48656C6C69676B03
:10079000656974205B255D0020202020416D706517
:1007A0006C20322067656C6220426C696E6B0020A1
:1007B000202020416D70656C20312067656C6220BF
:1007C000426C696E6B0020202020416D70656C20AA
:1007D0003220677275656E0020202020416D7065A3
:1007E0006C20322067656C620020202020416D70F3
:1007F000656C203220726F740020202020416D70C3
:10080000656C203120677275656E002020202041C4
:100810006D70656C20312067656C6200202020209F
:10082000416D70656C203120726F74002020202093
:1008300020313039383736353433323130203D20AD
:100840002020444543202020313039383736353494
:1008500033323130203D20202044454320202031B8
:100860003039383736353433323130203D2020208E
:10087000444543002020202020202020426C656E2B
:10088000647A6569743A2000202020202020447575
:100890006E6B656C7A6569743A00202020202070A8
:1008A00065726D616E656E742020202020202020EE
:1008B000202020202020626C696E6B656E204772BC
:1008C00075707065203120202020202020626C6906
:1008D0006E6B656E20477275707065203220202027
:1008E00020202020204672657175656E7A3A0020BE
:1008F000202020204C616D70656E20312D38202025
:1009000020202020202020202020204C616D706598
:100910006E20392D31322020202020202020202040
:1009200020206E2E612E202020202020202020201C
:100930002020202020202020202047657363687716
:10094000696E6469676B6569743A00202020202015
:100950004175746F7665726B656872202020202067
:1009600020202020202020467573736761656E6704
:100970006572202020202020202020202020626C52
:10098000696E6B656E2020202020202020202020F2
:100990002020202020204672657175656E7A3A000D
:1009A0005369676E616C7479702000416D70656C7D
:1009B0007A656974205A757374616E6420004967A2
:1009C0006E6F726965726520646F7070656C7465B6
:1009D000204443432D42656665686C6520696E6EF0
:1009E000657268616C6220766F6E20005369676E75
:1009F000616C2061757300206772C3BC6E3A200081
:100A000065696E6520416D70656C7374656C6C759D
:100A10006E672077656974657200677275656E2010
:100A200053747261737365203100426C696E6B2080
:100A30003200426C696E6B20310065696E20416E38
:100A40007A61686C204C4544732067656D616573FD
:100A50007320566F7265696E7374656C6C756E6722
:100A6000205369676E616C747970004469657365C1
:100A7000732048617570747369676E616C2073745C
:100A8000656C6C74206175746F6D617469736368F3
:100A9000206175636820566F727369676E616C20A0
:100AA000002020285369676E616C7479703A2000C9
:100AB000444343202D20416472657373656E205357
:100AC00069676E616C200000000000240027002A86
:100AD000002D0000000000250028002B002E000043
:100AE000AF3311241FBECFEFD8E0DEBFCDBF13E080
:100AF000A0E0B1E0E0EEF0E702C005900D92AE3963
:100B0000B107D9F727E0AEE9B3E001C01D92A137E4
:100B1000B207E1F715E0C1E7D5E004C02197FE0177
:100B20000E946535C037D107C9F70E94331E0C9467
:100B30006E380C94000082E08093220608950F9393
:100B40001F93CF938C01C62F87E492E00E943A1D39
:100B50006AE070E0C8010E942D1D8CE20E94281DF1
:100B600060E170E08C2FCF911F910F910C941A1DB2
:100B7000EF92FF921F93CF93DF937C01162FD42F18
:100B8000C22F81E692E00E943A1D6AE070E0C70140
:100B90000E942D1D8CE20E94281D6AE070E0812FCA
:100BA0000E940C1D8CE20E94281D6AE070E08D2FCF
:100BB0000E940C1D8CE20E94281D60E170E08C2FC9
:100BC000DF91CF911F91FF90EF900C941A1D8CE74D
:100BD00092E00E94BD1C61E08CE00E94841866E0F7
:100BE00070E080E090E00E94141960E08CE00C94CA
:100BF00084186F927F928F929F92AF92BF92CF9202
:100C0000DF92EF92FF920F931F93CF93DF93682EA3
:100C100066946694669464E0661508F46DC1D82FF6
:100C2000C82FC77000912A0610E0E62CF12C67014E
:100C3000CC0CDD1CC8010C2C02C0959587950A943C
:100C4000E2F7782F7170772E81FB222720F930E0B0
:100C5000F901EC5DF94F808190E0272F30E0220F01
:100C6000331F220F331F02C0959587952A95E2F70F
:100C70008770813009F059C0F701EE0FFF1FEE0FAA
:100C8000FF1FE351FA4F1082118212821382F70183
:100C9000E751FA4FC43090F11082C43079F4F70173
:100CA000EF51FA4F8081823011F08F7780838081FD
:100CB0008F778A3008F408C182E835C0C53079F4EE
:100CC000F701EF51FA4F8081873011F08F778083E1
:100CD00080818F778A3008F4F7C087E824C0C63057
:100CE00009F0F2C0F701EF51FA4F908190689F5FD1
:100CF000292F2F772A30B8F49083E6C08083F7013C
:100D0000EF51FA4FC11102C08CE00DC0C13031F477
:100D100080818F778A3038F0C083D6C0C23011F41A
:100D20008AE001C08BE08083CFC0823009F056C0DA
:100D3000C7018F519A4F5C01C11104C08CE0F501CD
:100D4000808303C0C150FC01C083F701EE0FFF1F79
:100D5000EE0FFF1FE351FA4F1082118212821382AD
:100D60008CE796E00E944B1DC7018F5B9F4F0E944E
:100D7000A61C8DE696E00E944B1DF50180818C300B
:100D800041F584ED91E00E94BD1CFFEFCF1ADF0A10
:100D900002C015950795CA94E2F701701127000F5C
:100DA000111F0729002E000C110B970129533B4FEF
:100DB000F801EE0FFF1FE154FB4FD801AD5FBA4FB2
:100DC0006C9170E0808191810E945135F9016083BE
:100DD0007BC080E092E00E94BD1C76C08330B1F4FD
:100DE000F701EF51FA4FC11103C08CE0808302C0BC
:100DF000C150C083F701EE0FFF1FEE0FFF1FE3513D
:100E0000FA4F10821182128213825EC08D2F0E94CF
:100E10008515C43008F058C0ED2FE295EF70F0E072
:100E2000E353FC4F808190E060FA882480F8912C95
:100E3000880C991C880C991C02C0959587958A94FA
:100E4000E2F78F7009F440C040912A0650E0960105
:100E50002F5F3F4FBA0102C0759567952A95E2F75B
:100E60009B0121703327220F331F02C055954795F0
:100E7000CA94E2F74170242BE22FE695F0E0EC5D96
:100E8000F94F408150E020FBAA24A0F8B12CAA0C15
:100E9000BB1CAA0CBB1C9A0102C035952795AA94CD
:100EA000E2F72770213061F4C33009F4C0E078E044
:100EB000879FC00D11248C2F84500E94851504C07B
:100EC00088E496E00E94661D8091A7038823A1F024
:100ED0006D2FC7018F5E9E4FDF91CF911F910F91B4
:100EE000FF90EF90DF90CF90BF90AF909F908F904A
:100EF0007F906F900C943C1DDF91CF911F910F91CB
:100F0000FF90EF90DF90CF90BF90AF909F908F9029
:100F10007F906F9008958F929F92AF92BF92EF92C1
:100F2000FF920F931F93CF93DF937C01C62FD42F93
:100F300088E892E00E943A1D6AE070E0C7010E94D2
:100F40002D1D8CE20E94281D6AE070E08C2F0E940B
:100F50000C1D8CE20E94281D60E170E08D2F0E9424
:100F60001A1D8091230680FF27C00E94441B909386
:100F7000CA038093C903809123068E7F8093230642
:100F800081E08093C80361E08EED90E00E943C1DFB
:100F900085E296E00E944B1D8091C9039091CA039F
:100FA000DF91CF911F910F91FF90EF90BF90AF9085
:100FB0009F908F900C94B01D8260809323060E94B6
:100FC0004E192091C9033091CA038701021B130BEC
:100FD000000F111F0C0F111D2091960630919706DE
:100FE00002171307E9F42091CB03809092069090AA
:100FF0009306A0909406B0909506AB01BC014819E9
:1010000059096A097B093AE0239FC0011124092E7E
:10101000000CAA0BBB0B84179507A607B70780F532
:101020000E944E19609392067093930680939406E3
:101030009093950610939706009396068091C803A7
:10104000882369F0802FDF91CF911F910F91FF903E
:10105000EF90BF90AF909F908F900C94F90508EAA5
:1010600013E0D0E2DC0FF801819191918F01E81635
:10107000F90619F48C2F0E94F905CE5FCD13F3CF3A
:10108000DF91CF911F910F91FF90EF90BF90AF90A4
:101090009F908F9008950F931F93CF93DF93A0EAB3
:1010A000B6E0E7E8F5E008E916E0AF0180E090E09F
:1010B00020E030E0EA0169917991AE01862B972B0F
:1010C0002F5F3F4F24303105A9F78D939D932085E5
:1010D000318582859385822B932B24853585822BC0
:1010E000932BE801899399938E017096D6E0A83AE4
:1010F000BD07D9F6DF91CF911F910F9108952F92DF
:101100003F924F925F926F927F928F929F92AF9297
:10111000BF92CF92DF92EF92FF920F931F93CF93E4
:10112000DF93CDB7DEB7E6970FB6F894DEBF0FBEFC
:10113000CDBFA82EB62EE82EE694F12C67012FE045
:10114000C20ED11CC6010E948E1A0A2D017010E039
:10115000000F111F000F111F2FE030E0002E01C003
:10116000220F0A94EAF7209582239B2D9F70292F46
:1011700001C0220F0A95EAF7182F122B612FC60122
:101180000E943C1DF701EC5DF94F10830A2D10E021
:10119000C8018D5F9A4F7C018AE0F7018083680166
:1011A000CC0CDD1C98012A5D394F490131E0B312A6
:1011B0000AC0F601E154FB4F11821082F4018083D2
:1011C00084E6F70130C09EEF9B0D923018F524E6BF
:1011D00030E0F601E154FB4F31832083F40180833A
:1011E00085E0F801E153FB4F80838CE0F801E55383
:1011F000FB4F808388E2F701808365E0C801895F47
:101200009E4F0E943C1D6CE0C801855F9E4F0E946E
:101210003C1D0AC08EE190E0F601E154FB4F918342
:10122000808389E1F4018083F601E154FB4F608102
:10123000C8018D5F9E4F0E943C1DF4016081C80172
:1012400081509F4F0E943C1DA11005C0F701608195
:1012500085E090E017C0F1E0AF1205C0F7016081B2
:1012600086E090E00FC0F2E0AF1205C0F7016081A8
:101270008AE090E007C0F3E0AF1206C0F70160819A
:101280008BE090E00E943C1DF1E0BF1249C080E07D
:1012900091E09A83898320E038E03C832B8384E0CB
:1012A00090E09E838D8388E090E098878F8380E034
:1012B00092E09A87898740E450E05C874B871E86DE
:1012C0001D86188A1F8640E850E05A8B498B1C8A7D
:1012D0001B8A40E150E05E8B4D8B41E050E0588F1F
:1012E0004F8B1A8E198E40E250E05C8F4B8F1E8E12
:1012F0001D8E18A21F8E1AA219A23CA32BA31EA2F8
:101300001DA218A61FA29AA789A71CA61BA682E049
:1013100090E09EA78DA780E094E098AB8FA773C064
:101320008EEF8B0D823088F580E098E09A83898378
:1013300080E094E09C838B8380E092E09E838D83A9
:1013400080E091E098878F8380E890E09A87898792
:1013500080E490E09C878B8780E290E09E878D8779
:1013600080E190E0988B8F8788E090E09A8B898B62
:1013700084E090E09C8B8B8B82E090E09E8B8D8B49
:1013800081E090E0988F8F8B26C088E890E09A8368
:10139000898381E090E09C838B8381E190E09E8350
:1013A0008D8388E096E098878F8382E098E09A8723
:1013B000898784E091E09C878B8782E091E09E871B
:1013C0008D87188A1F861A8A198A1C8A1B8A1E8A88
:1013D0001D8A188E1F8A1A8E198E1C8E1B8E1E8EC9
:1013E0001D8E18A21F8E1AA219A21CA21BA21EA239
:1013F0001DA218A61FA21AA619A61CA61BA61EA6E9
:101400001DA618AA1FA6000F111F000F111F98017B
:101410002C5F3F4F3AAB29AB7801EE0CFF1C270144
:10142000400E511E62013EE1C30ED11CC801880F5F
:10143000991F880F991F9EAB8DAB89579A4F3C011E
:1014400057014801E9A9FAA98E169F060CF04DC074
:10145000F501E770FF27EE0FFF1F21E030E02C0FB2
:101460003D1FE20FF31F808191819CAB8BAB6BA979
:10147000C6010E943C1DF5013196E770FF27EE0F73
:10148000FF1F21E030E02C0F3D1FE20FF31F2080F3
:1014900031808BA99CA988279F70622D6295607FFF
:1014A000692BC60101960E943C1DB101607F7F70CF
:1014B000E4E076956795EA95E1F7C60102960E9409
:1014C0003C1D2BA93CA9F301318320833382228266
:1014D0003FEF831A930A82E0A80EB11C93E0C90E75
:1014E000D11CE4E06E0E711CADCF6201FEE7CF0EA1
:1014F000D11C2DA93EA9295B3A4F3901570148015A
:1015000089A99AA9881699060CF04DC0F501E770D3
:10151000FF27EE0FFF1F21E030E02C0F3D1FE20FF1
:10152000F31F808991899CAB8BAB6BA9C6010E948C
:101530003C1DF5013196E770FF27EE0FFF1F21E0FC
:1015400030E02C0F3D1FE20FF31F208831888BA95C
:101550009CA988279F70622D6295607F692BC601C8
:1015600001960E943C1DB101607F7F7054E076952A
:1015700067955A95E1F7C60102960E943C1D2BA97A
:101580003CA9F30131832083338222823FEF831A07
:10159000930A82E0A80EB11C93E0C90ED11CE4E0CE
:1015A0006E0E711CADCFFEEA4F0E511C2DA93EA947
:1015B000295F3A4F190189A99AA9081719070CF050
:1015C00047C0F701E770FF27EE0FFF1F21E030E073
:1015D0002C0F3D1FE20FF31FC0A0D1A06C2DC20144
:1015E0000E943C1DF7013196E770FF27EE0FFF1FA9
:1015F00081E090E08C0F9D1FE80FF91FA0A0B1A023
:10160000C60188279F706A2D6295607F692BC20191
:1016100001960E943C1DB501607F7F7024E07695A5
:1016200067952A95E1F7C20102960E943C1DF101DF
:10163000D182C082B382A2820F5F1F4FF2E0EF0E11
:10164000F11C23E0420E511C34E0230E311CB3CFB9
:10165000E6960FB6F894DEBF0FBECDBFDF91CF91F7
:101660001F910F91FF90EF90DF90CF90BF90AF90C0
:101670009F908F907F906F905F904F903F902F90B2
:1016800008951F920F920FB60F9211242F933F933C
:101690008F939F93EF93FF9380918800909189009F
:1016A00006969093890080938800809184009091A1
:1016B00085002091900630919106821B930B20911A
:1016C0008E0630918F062817390708F07CC080916C
:1016D000840090918500909391068093900690915C
:1016E0008D0681E0892780938D0680918D06882361
:1016F00009F450C08091A5038F5F8093A50380916A
:10170000A503883119F48CE08093A50384B1847F0C
:1017100084B985B1847F85B953985B98E091A5031E
:10172000F0E0E157FB4F8081882361F1E091A50350
:1017300094B1F0E0EE0FFF1FE259FE4F8081892B3C
:1017400084B9E091A50395B1F0E0EE0FFF1FE259D7
:10175000FE4F8181892B85B9E091A5039AB1F0E014
:10176000EE0FFF1FEA5AFE4F8081892B8AB9E09164
:10177000A5039BB1F0E0EE0FFF1FEA5AFE4F8181F7
:10178000892B8BB9E091A503F0E0E157FB4F8081F5
:1017900090E012C084B1847F84B985B1847F85B91B
:1017A00053985B98E091A503F0E0E157FB4F20814F
:1017B00084E690E0821B9109880F991F059690930B
:1017C0008F0680938E0680918400909185002091F1
:1017D0008B0630918C06821B930B209189063091E9
:1017E0008A062817390708F084C0809184009091F8
:1017F000850090938C0680938B069091880681E0FB
:1018000089278093880680918806882309F454C02C
:101810008091A3038F5F8093A3038091A303803300
:1018200019F484E28093A30387B18F7C87B988B1D0
:101830008F7C88B98DB1837F8DB98EB1837F8EB94E
:10184000E091A303F0E0E157FB4F8081882361F131
:10185000E091A30397B1F0E0EE0FFF1FE25FFE4FB0
:101860008081892B87B9E091A30398B1F0E0EE0F56
:10187000FF1FE25FFE4F8181892B88B9E091A303AE
:101880009DB1F0E0EE0FFF1FEA50FF4F8081892BE2
:101890008DB9E091A3039EB1F0E0EE0FFF1FEA5077
:1018A000FF4F8181892B8EB9E091A303F0E0E157CE
:1018B000FB4F808190E016C087B18F7C87B988B1DB
:1018C0008F7C88B98DB1837F8DB98EB1837F8EB9BE
:1018D000E091A303F0E0E157FB4F208184E690E024
:1018E000821B9109880F991F059690938A06809311
:1018F0008906809184009091850020918606309120
:101900008706821B930B2091840630918506281749
:10191000390708F060C08091840090918500909311
:101920008706809386069091830681E089278093BD
:101930008306809183068823B9F18091A6038F5F87
:101940008093A6038091A6038C3011F41092A60315
:1019500087B1807F87B988B1807F88B9E091A6037D
:10196000F0E0E157FB4F80818823B1F0E091A603BE
:1019700097B1F0E0EE0FFF1FEA5DFE4F8081892BEB
:1019800087B9E091A60398B1F0E0EE0FFF1FEA5D82
:10199000FE4F8181892B88B9E091A603F0E0E157E1
:1019A000FB4F808190E010C087B1807F87B988B1FC
:1019B000807F88B9E091A603F0E0E157FB4F2081DA
:1019C00084E690E0821B9109880F991F05969093F9
:1019D00085068093840680918400909185002091F3
:1019E000810630918206821B930B20917F063091F5
:1019F00080062817390708F061C080918400909113
:101A00008500909382068093810690917E0681E006
:101A1000892780937E0680917E068823C1F180917C
:101A2000A4038F5F8093A4038091A403843219F4EC
:101A300088E18093A4038AB18F708AB98BB18F70CB
:101A40008BB9E091A403F0E0E157FB4F808188233C
:101A5000B1F0E091A4039AB1F0E0EE0FFF1FE25263
:101A6000FF4F8081892B8AB9E091A4039BB1F0E0FC
:101A7000EE0FFF1FE252FF4F8181892B8BB9E0915E
:101A8000A403F0E0E157FB4F808190E010C08AB1E1
:101A90008F708AB98BB18F708BB9E091A403F0E09D
:101AA000E157FB4F208184E690E0821B9109880F6B
:101AB000991F05969093800680937F06FF91EF9182
:101AC0009F918F913F912F910F900FBE0F901F907C
:101AD00018958091AC0681114BC10E94EF1820919E
:101AE000AA063091AB06FB01E21BF30B20919E038B
:101AF00030919F03E217F30708F43AC12091A00345
:101B00003091A1037093AB066093AA0661E06093E5
:101B1000AC06789440910D0650910E064130510567
:101B200089F148F04230510509F4B4C04330510501
:101B300009F4E9C01BC1E217F30708F0D0C0809197
:101B400010068F5F809310068B3008F40FC181E080
:101B500090E090930E0680930D0661E070E0809116
:101B6000C7060E94111E1092A90682E590E090938C
:101B7000A1038093A00383E290E090939F0380935E
:101B80009E03F4C04091A906413081F028F0433013
:101B900069F14430C9F1EAC0E217F30728F4609311
:101BA000A906E093A806E2C084E01DC0E217F3078F
:101BB000C8F41092A906909110069F5F90931006AA
:101BC0008E2FEE0F990B2091A806821B910927FDFD
:101BD000939597FF03C091958195910943970CF4D4
:101BE000C5C015C083E08093A906C0C0E217F30703
:101BF00070F08091A203833021F482E08093A203ED
:101C000019C04093A20316C0E217F30798F410928C
:101C10000E0610920D0682E990E09093A103809346
:101C2000A00382E590E090939F0380939E0310921F
:101C3000100628C082E090E090930E0680930D0677
:101C400082E990E09093A1038093A00382E590E065
:101C500090939F0380939E03109212061092140695
:101C6000109215061092160610921706109218067A
:101C70001092190680911006809313061092100698
:101C8000109211066091A20370E08091C7060E9435
:101C9000111E6CC0509110065F5F5093100640916A
:101CA0001106440FE217F30708F441604093110650
:101CB000583009F05BC0E0911206E63099F41092BA
:101CC0000E0610920D0682E990E09093A103809396
:101CD000A00382E590E090939F0380939E0310926F
:101CE000100644C083E090E090930E0680930D06AA
:101CF00081E08E0F80931206F0E0E35FF94F809150
:101D00001106878333C0409110064F5F4093100641
:101D1000E217F307E0F410920E0610920D0682E926
:101D200090E09093A1038093A00382E590E09093CC
:101D30009F0380939E0388E0E2E1F6E0AAE1B6E02B
:101D400001900D928A95E1F760930F060FC0809184
:101D50001206863009F4B3CF82E090E090930E062D
:101D600080930D0610921006109211061092AC0688
:101D70000895CF93DF93EC01CC0FDD1FFE01E957EF
:101D8000FA4F808191810E94C01D85E192E00E94FE
:101D90003A1DFE01E95BFA4F808191810E94C01DCE
:101DA00085E192E00E943A1DC95FDA4F88819981EE
:101DB000DF91CF910C94C01D8830910559F46623B2
:101DC000F9F022E02093220620E030E0232B79F086
:101DD0000C94000020E030E0232BD1F741E0811586
:101DE00024E0920708F040E0611102C00EC041E01B
:101DF0009C01275031092230310538F440E005C0FC
:101E000020E030E0232B21F741E0842F08952F922A
:101E10003F925F926F927F928F929F92AF92BF920A
:101E2000CF92DF92EF92FF920F931F93CF93DF93A6
:101E3000CDB7DEB72B970FB6F894DEBF0FBECDBF80
:101E4000F8EACF2EF3E0DF2EA12CB12C66246394A8
:101E5000712C812C912C9E012F5F3F4F790106EA56
:101E600012E080EB9AE00E944B1DC4018F5B9F4FF4
:101E70000E94A61C81EA9AE00E944B1D20912A062E
:101E800030E0C401880F991FA90102C055954795FC
:101E90008A95E2F7CA018170062C02C03595279514
:101EA0000A94E2F721703327220F331F582E522A4B
:101EB0006AE070E0852D0E940C1D84EA92E00E9489
:101EC000BD1C140151E025223324220C331C220CAA
:101ED000331CC40195958795FC01E353FC4FF987AA
:101EE000E887808190E0022C02C0959587950A943E
:101EF000E2F78F709927892BB9F08BE69AE00E9460
:101F00004B1DE885F985808190E002C09595879505
:101F10002A94E2F78F709927805C9F4F0E94A61C3D
:101F200083ED91E00E94BD1CE52DE695F0E0EC5DAF
:101F3000F94F808190E0F52DF170FA871B862A8594
:101F40003B85220F331F220F331F02C095958795C3
:101F50002A95E2F7282F2770522E8091C8038823F4
:101F600041F08091C9039091CA038A0D9B1D9F93F4
:101F700004C0F60181818F9380818F931F930F930B
:101F8000FF92EF920E9484350F900F900F900F9068
:101F90000F900F90C7010E943A1D8DEA92E00E94B7
:101FA0003A1DF1E05F1203C085EB92E009C08EEFAD
:101FB000850D823018F484ED91E002C089EB92E047
:101FC0000E94BD1C8091C803882341F08091C90301
:101FD0009091CA038A0D9B1D9F9304C0F6018181D5
:101FE0008F9380818F931F930F93FF92EF920E94A4
:101FF00084350F900F900F900F900F900F90C701A6
:102000000E943A1D8DEB92E00E943A1DF1E05F12B2
:1020100003C086EC92E010C022E0521205C08AE3B1
:102020009AE00E94661D0AC033E0531203C080E0AC
:1020300092E002C089EC92E00E94BD1C8091C8032E
:10204000882349F08091C9039091CA0301968A0DB3
:102050009B1D9F9304C0F60183818F9382818F9390
:102060001F930F93FF92EF920E9484350F900F9071
:102070000F900F900F900F90C7010E943A1D8DEAAC
:1020800092E00E943A1DF1E05F1205C082E39AE0FF
:102090000E94661D10C022E0521203C080E092E050
:1020A00008C033E0531203C08DEC92E002C08BED08
:1020B00092E00E94BD1C8091C803882349F0809162
:1020C000C9039091CA0301968A0D9B1D9F9304C07A
:1020D000F60183818F9382818F931F930F93FF92D9
:1020E000EF920E9484350F900F900F900F900F90F9
:1020F0000F90C7010E943A1D8DEB92E00E943A1D9D
:10210000F1E05F1205C08AE29AE00E94661D10C0ED
:1021100022E0521203C080E092E008C033E0531284
:1021200003C08FED92E002C08EEE92E00E94BD1CD3
:102130008091C803882349F08091C9039091CA0314
:1021400002968A0D9B1D9F9304C0F60185818F9393
:1021500084818F931F930F93FF92EF920E94843597
:102160000F900F900F900F900F900F90C7010E944B
:102170003A1D8DEA92E00E943A1DF1E05F1205C01F
:102180008AE19AE00E94661D10C022E0521203C04C
:1021900080E092E008C033E0531203C082EF92E087
:1021A00002C081E093E00E94BD1C8091C803882397
:1021B00049F08091C9039091CA0302968A0D9B1D34
:1021C0009F9304C0F60185818F9384818F931F9321
:1021D0000F93FF92EF920E9484350F900F900F9013
:1021E0000F900F900F90C7010E943A1D8DEB92E067
:1021F0000E943A1DF1E05F1203C085E093E00EC03B
:1022000022E0521203C080E092E008C033E0531293
:1022100003C085E193E002C084E293E00E94BD1C0C
:102220008091C803882349F08091C9039091CA0323
:1022300003968A0D9B1D9F9304C0F60187818F939F
:1022400086818F931F930F93FF92EF920E948435A4
:102250000F900F900F900F900F900F90C7010E945A
:102260003A1D8DEA92E00E943A1DF1E05F1205C02E
:1022700080E09AE00E94661D10C022E0521203C066
:1022800080E092E008C033E0531203C088E293E09C
:1022900002C087E393E00E94BD1C8091C80388239D
:1022A00049F08091C9039091CA0303968A0D9B1D42
:1022B0009F9304C0F60187818F9386818F931F932C
:1022C0000F93FF92EF920E9484350F900F900F9022
:1022D0000F900F900F90C7010E943A1D87EF99E071
:1022E0000E944B1DF1E05F1203C08BE393E005C039
:1022F00022E0521205C080E092E00E94BD1C0AC09C
:1023000033E0531203C080E493E0F7CF8CEE99E002
:102310000E94661D83ED91E00E94BD1C4FEF841A60
:10232000940A52E0650E711C84E0A80EB11C98E07E
:10233000C90ED11CE4E08E16910409F092CD2B96C3
:102340000FB6F894DEBF0FBECDBFDF91CF911F91C6
:102350000F91FF90EF90DF90CF90BF90AF909F9044
:102360008F907F906F905F903F902F9008950F9384
:102370001F93CF93DF93D82F86E292E00E943A1DFD
:10238000ED2FE695F0E0EC5DF94F808190E00D2FA8
:10239000017010E0000F111F000F111F02C0959572
:1023A00087950A95E2F7C82FC7706AE070E08C2F16
:1023B0000E940C1D89E292E00E943A1DC11119C0D1
:1023C00083E597E00E944B1D8091CC0390E002C012
:1023D00095958795DA95E2F780FF03C082E497E050
:1023E00048C083ED91E0DF91CF911F910F910C9444
:1023F000BD1CC13019F48FE197E03BC0C230E1F45D
:1024000080E197E00E944B1DCD2FD0E0FE01E55307
:10241000FB4F6AE070E080810E940C1D8FEF96E018
:102420000E944B1DC153DB4F6AE070E088810E941F
:102430000C1D8EEE96E01DC0C33009F58FED96E0C1
:102440000E944B1DCD2FD0E0FE01E553FB4F6AE00B
:1024500070E080810E940C1D8EEC96E00E944B1D66
:10246000C153DB4F6AE070E088810E940C1D8DEB48
:1024700096E0DF91CF911F910F910C94661DDF9133
:10248000CF911F910F9108956F927F928F929F929B
:10249000AF92BF92CF92DF92EF92FF920F931F9372
:1024A000CF93DF9300D000D01F92CDB7DEB783ED7E
:1024B00091E00E94BD1C8EEB99E00E944B1D809123
:1024C000CB032AE0829FC00111240E94741D81EE7B
:1024D00091E00E94BD1CF7ECEF2EF5E0FF2E00E02E
:1024E00010E08BEA99E00E944B1D0F5F1F4FC8015F
:1024F0000E94741D87EF91E00E943A1D6AE070E02F
:10250000F701819191917F010E942D1D81EE91E053
:102510000E94BD1C0D30110521F783ED91E00E9452
:10252000BD1C53E0C52E55E0D52E6FEBA62E64E002
:10253000B62E76E2872E76E0972E07E010E0E12CAB
:10254000F12CEAE06E2E80EA99E00E944B1DC70153
:102550000E94741D8FE493E00E943A1D8E2D0E940C
:10256000B711F701F595E795EC5DF94F808190E0A3
:10257000970121703327220F331F220F331F02C010
:10258000959587952A95E2F7F82FF7707F2E21E031
:10259000F21303C08BE499E009C08EEF8F0F8230F5
:1025A00018F48FEE98E002C08AE998E00E944B1D73
:1025B0006AE070E0F60181916F010E940C1D88E8CD
:1025C00098E00E944B1DF501819191915F019C0162
:1025D000629EC001639E900D11240E94741D84E7C9
:1025E00098E00E944B1D6AE070E0F40181914F0178
:1025F0000E940C1D81EE91E00E94BD1C8CE298E0CF
:102600000E94661D81E593E00E943A1DC80107976C
:102610000E94B90EF1E07F1205C08CE198E00E94A3
:10262000661D04C083ED91E00E94BD1C87E593E028
:102630000E943A1DC80106970E94B90E21E072124D
:1026400005C08BE098E00E94661D04C083ED91E018
:102650000E94BD1C8DE593E00E943A1DC8010597BC
:102660000E94B90E31E0731205C089EF97E00E9415
:10267000661D04C083ED91E00E94BD1C83E693E0DB
:102680000E943A1DC80104970E94B90E81E0781299
:1026900005C089EE97E00E94661D04C083ED91E0BD
:1026A0000E94BD1C89E693E00E943A1DC801039771
:1026B0000E94B90E91E0791205C088ED97E00E9462
:1026C000661D04C083ED91E00E94BD1C8FE693E07F
:1026D0000E943A1DC80102970E94B90EE1E07E12E5
:1026E00005C086EC97E00E94661D04C083ED91E072
:1026F0000E94BD1C85E793E00E943A1DC801019726
:102700000E94B90EF1E07F1205C08FEA97E00E94A7
:10271000661D04C083ED91E00E94BD1C8BE793E031
:102720000E943A1DC8010E94B90E21E0721205C034
:1027300088E997E00E94661D04C083ED91E00E9445
:10274000BD1C83ED91E00E94BD1C3FEFE31AF30A2C
:10275000085F1F4F84E0E816F10409F0F4CE85E825
:1027600097E00E94661D83E697E00E94661D00E0E8
:1027700010E099E8692E93E0792EFE0131967F01F1
:102780002DE8822E23E0922E81E893E00E943A1DEC
:102790001F930F937F926F92FF92EF920E94843566
:1027A000C7010E943A1D85E192E00E943A1D9801FE
:1027B000215A3B4F59010F900F900F900F900F909F
:1027C0000F9084E0C82ED12CF50180811F928F9349
:1027D0009F928F92FF92EF920E948435C7010E94D0
:1027E0003A1D85E192E00E943A1DF1E0CF1AD1082E
:1027F0002CE0A20EB11C0F900F900F900F900F9035
:102800000F90C114D10401F783ED91E00E94BD1C2B
:102810000F5F1F4F0C30110509F0B6CF83ED91E02B
:102820000E94BD1C0F900F900F900F900F90DF91A2
:10283000CF911F910F91FF90EF90DF90CF90BF90BD
:10284000AF909F908F907F906F9008952F923F92BE
:102850004F925F926F927F928F929F92AF92BF92B0
:10286000CF92DF92EF92FF920F931F93CF93DF935C
:10287000CDB7DEB72C970FB6F894DEBF0FBECDBF35
:10288000762E5E834D83290120912A0630E0482F61
:1028900050E0440F551FBA016F5F7F4FD90102C04E
:1028A000B595A7956A95E2F7BD0161707727660F28
:1028B000771F02C0359527954A95E2F7422F417060
:1028C000462B042E000C550BFA01ED5FFA4F608089
:1028D00026EF3FEFF901E619F109FC83EB832CE0C9
:1028E000829FF00111247F01EE0CFF1C9701215300
:1028F0003C4F3C872B87222433242E183F08690144
:1029000080E090E01A8219829201082E02C036956A
:1029100027950A94E2F720FF14C09C012E0F3F1F59
:10292000215D3B4FD9012C91222359F09601220DB4
:10293000331D2E0D3F1DD9010D90BC91A02DBA83E2
:10294000A9839801082E02C0369527950A94E2F7CC
:1029500020FF0FC09C012E0F3F1F215D3B4FD9016F
:102960002C91222331F0D6010D90BC91A02DBC8377
:10297000AB830196B2E0CB0ED11C8C30910521F6D1
:102980009F01215D3B4F49015901690120E030E081
:10299000CA01880F991FBC0161547B4F78876F83F0
:1029A000CA018A5D994F9A878987CF01820F931F49
:1029B000A201022E02C0569547950A94E2F740FF05
:1029C00013C0D6014C91411176C0DC01AD52BB4F12
:1029D0001C92DC01A157BB4F1C92D6016C926981FD
:1029E0007A81AB85BC851FC0A801022E02C0569516
:1029F00047950A94E2F740FF19C0D5014C91411167
:102A00005AC0DC01AD52BB4F1C92DC01A157BB4F39
:102A10001C92D5016C92AB85BC85A20DB31DAE0D89
:102A2000BF1D6B817C816D937C9345C04D815E8120
:102A3000022E02C0569547950A94E2F740FF2BC03C
:102A4000772051F0AC014D525B4F815A9B4FDC0116
:102A50008C91DA018C931AC0AF81B8854D915C914D
:102A6000BAE0B49FC001B59F900D1124A985BA8525
:102A70006C9170E00E9451356C59653608F465E63A
:102A8000D901AE0FBF1FAD52BB4F6C93D401A20F43
:102A9000B31F1C9210C0DC01AD52BB4F1C92D4017D
:102AA000A20FB31F1C92AB85BC85A20DB31DAE0D4A
:102AB000BF1D1D921C922F5F3F4FBFEFAB1ABB0A89
:102AC0006FEFC61AD60A8B859C8502969C878B87EA
:102AD0002C30310509F069CF2C960FB6F894DEBF83
:102AE0000FBECDBFDF91CF911F910F91FF90EF905F
:102AF000DF90CF90BF90AF909F908F907F906F901E
:102B00005F904F903F902F9008952F923F924F9259
:102B10005F926F927F928F929F92AF92BF92CF926D
:102B2000DF92EF92FF920F931F93CF93DF9300D02A
:102B30001F92CDB7DEB7782E769476947694877010
:102B4000682E80912A0690E0472C512C9201220F8A
:102B5000331FA9014F5F5F4FBC0102C07595679598
:102B60004A95E2F761707727660F771F02C0959547
:102B700087952A95E2F78170682B6983262C312C82
:102B8000862F082E000C990B9B838A835C0163E0DF
:102B9000AA0CBB1C6A95E1F781010A0D1B1D000FF1
:102BA000111FF801E95BFA4F60817181F801E95F5B
:102BB000FA4FA081B1819CE0799EF0011124ED5281
:102BC000FB4F80E090E0C12CD12CE12CF12C812C2A
:102BD000912C41E050E02191222349F09A01082EE6
:102BE00002C0220F331F0A94E2F7822A932AE62AB0
:102BF000F72ACA2ADB2A01968C30910561F7EA810F
:102C0000FB81EE0FFF1FFB83EA83E056F94F8081C3
:102C1000918188219921F1E0F983892B09F01982AA
:102C2000EA81FB81E856F94F8081918188219921C1
:102C3000892B19F429812260298385EB96E00E9473
:102C40004B1DC2018F5B9F4F0E94A61C87EF91E036
:102C50000E943A1D8091CC0333E03615F0F1EA81F1
:102C6000FB81E056F94F20813181209530958222F9
:102C7000932290E0072C02C0959587950A94E2F77D
:102C800080FF10C0662019F043E064120BC06A8117
:102C90007B816856794FFB01808191818095909569
:102CA00088229922F801E957FA4F20813181282999
:102CB00039293B832A8333E0631651F081E993E09D
:102CC0000E943A1D6AE070E0862D0E941A1D5AC0CB
:102CD0008EEE92E00E94BD1C55C04A815B81485631
:102CE000594FFA010190F081E02DE095F095E8212F
:102CF000F921FB83EA8390E0072C02C09595879524
:102D00000A94E2F780FF20C0F501EE0FFF1FE9579C
:102D1000FA4F808191812A813B8182239323892BE1
:102D200059F4F501EE0FFF1FE357FA4F80819181AF
:102D300082239323892B41F037E06316E1F08FE87B
:102D400096E00E94661D3DC047E06416A1F0F801C0
:102D5000E957FA4F808191816A817B81682B792BB9
:102D60007B836A8384E993E00E943A1DC101049742
:102D70000E94A21D26C084E896E00E94661D1B8268
:102D80001A821FC069816170860197014A815B8147
:102D9000872D0E9426140F900F900F90DF91CF91F6
:102DA0001F910F91FF90EF90DF90CF90BF90AF9069
:102DB0009F908F907F906F905F904F903F902F905B
:102DC0000895698166956170DFCFCF92DF92EF92AF
:102DD000FF920F931F93CF93DF936C017A018B01C6
:102DE000C0E0D0E0CE15DF0581F0D8016D918D01F6
:102DF000D601ED91FC910190F081E02DC60109957D
:102E0000892B11F02196EECF7E01C701DF91CF9182
:102E10001F910F91FF90EF90DF90CF900895FC01EC
:102E2000918D828D981761F0828DDF01A80FB11D01
:102E30005D968C91928D9F5F9F73928F90E0089525
:102E40008FEF9FEF0895FC01918D828D981731F0DF
:102E5000828DE80FF11D858D90E008958FEF9FEF33
:102E60000895FC01918D228D892F90E0805C9F4F09
:102E7000821B91098F73992708958CEC96E00E942C
:102E8000311721E0892B09F420E0822F0895FC01FD
:102E9000848DDF01A80FB11DA35ABF4F2C91848DE3
:102EA00090E001968F739927848FA689B7892C9318
:102EB000A089B1898C9180648C93938D848D9813B3
:102EC00006C00288F389E02D80818F7D808308957C
:102ED000EF92FF920F931F93CF93DF93EC0181E06A
:102EE000888F9B8D8C8D981305C0E889F989808126
:102EF00085FD24C0F62E0B8D10E00F5F1F4F0F7362
:102F00001127E02E8C8DE8120CC00FB607FCFACF0B
:102F1000E889F989808185FFF5CFCE010E944717A6
:102F2000F1CF8B8DFE01E80FF11DE35AFF4FF082C8
:102F30000B8FEA89FB898081806207C0EE89FF8957
:102F40006083E889F98980818064808381E090E0F2
:102F5000DF91CF911F910F91FF90EF900895CF9344
:102F6000DF93EC01888D8823C9F0EA89FB89808191
:102F700085FD05C0A889B9898C9186FD0FC00FB663
:102F800007FCF5CF808185FFF2CFA889B9898C91A4
:102F900085FFEDCFCE010E944717E7CFDF91CF919C
:102FA000089580E090E0892B21F00E943D17811167
:102FB0000DC080E090E0892B71F080E090E0892BDB
:102FC00051F00E940000811104C008950E94000089
:102FD000F0CF0C940000089508950E946B350C9476
:102FE000B0340C94A8341F920F920FB60F92112494
:102FF0002F933F934F935F936F937F938F939F9301
:10300000AF93BF93EF93FF938CEC96E00E9447172A
:10301000FF91EF91BF91AF919F918F917F916F91B0
:103020005F914F913F912F910F900FBE0F901F9086
:1030300018951F920F920FB60F9211242F938F9312
:103040009F93EF93FF93E091DC06F091DD06808182
:10305000E091E206F091E30682FD12C0908180913A
:10306000E5068F5F8F732091E606821751F0E0919D
:10307000E506F0E0E453F94F958F8093E50601C033
:103080008081FF91EF919F918F912F910F900FBEB3
:103090000F901F90189590E0FC013297ED30F105EC
:1030A00090F5E959FF4F0C946535809180008F773A
:1030B00003C0809180008F7D80938000089584B547
:1030C0008F7702C084B58F7D84BD08958091B00054
:1030D0008F7703C08091B0008F7D8093B0000895FA
:1030E000809190008F7703C0809190008F7D8093B6
:1030F000900008958091A0008F7703C08091A00078
:103100008F7D8093A00008951F93CF93DF93282F86
:1031100030E0F901E65DFE4F8491F901E15FFE4F79
:10312000D491F901EC50FF4FC491CC23C1F0162F7C
:1031300081110E944B18EC2FF0E0EE0FFF1FED52B3
:10314000F54FA591B4919FB7F894111104C08C91DB
:10315000D095D82302C0EC91DE2BDC939FBFDF918A
:10316000CF911F910895CF93DF9390E0FC01E15F31
:10317000FE4F2491FC01EC50FF4F8491882361F1B4
:1031800090E0880F991FFC01E953F54FC591D49148
:10319000FC01ED52F54FA591B491611109C09FB7A3
:1031A000F8948881209582238883EC912E230BC08C
:1031B000623061F49FB7F8948881322F3095832371
:1031C0008883EC912E2B2C939FBF06C08FB7F89469
:1031D000E8812E2B28838FBFDF91CF9108953FB7D1
:1031E000F8948091B2069091B306A091B406B09184
:1031F000B50626B5A89B05C02F3F19F00196A11D65
:10320000B11D3FBFBA2FA92F982F8827820F911D7C
:10321000A11DB11DBC01CD0142E0660F771F881FC3
:10322000991F4A95D1F708958F929F92AF92BF92BE
:10323000CF92DF92EF92FF926B017C010E94EF1818
:103240004B015C01C114D104E104F104F1F00E94CE
:10325000EF18DC01CB0188199909AA09BB09883E3E
:103260009340A105B10570F321E0C21AD108E1082D
:10327000F10888EE880E83E0981EA11CB11CC114D1
:10328000D104E104F10419F7DDCFFF90EF90DF9056
:10329000CF90BF90AF909F908F9008952FB7F894E4
:1032A0006091AE067091AF068091B0069091B10624
:1032B0002FBF08951F920F920FB60F9211242F93D4
:1032C0003F938F939F93AF93BF938091AE0690915E
:1032D000AF06A091B006B091B1063091AD0623E0E3
:1032E000230F2D3720F40196A11DB11D05C026E83E
:1032F000230F0296A11DB11D2093AD068093AE064B
:103300009093AF06A093B006B093B1068091B20639
:103310009091B306A091B406B091B5060196A11D97
:10332000B11D8093B2069093B306A093B406B093F8
:10333000B506BF91AF919F918F913F912F910F90C3
:103340000FBE0F901F9018951F920F920FB60F92FD
:1033500011242F933F934F935F936F937F938F939A
:103360009F93AF93BF93EF93FF93E0910201F0918E
:1033700003010995FF91EF91BF91AF919F918F91BB
:103380007F916F915F914F913F912F910F900FBE61
:103390000F901F9018951F920F920FB60F92112445
:1033A0002F933F934F935F936F937F938F939F934D
:1033B000AF93BF93EF93FF93E0910001F091010170
:1033C0000995FF91EF91BF91AF919F918F917F915F
:1033D0006F915F914F913F912F910F900FBE0F9082
:1033E0001F901895CF93C82F80E090E0892B51F063
:1033F0008091B8068C1731F081E0C11101C080E0E6
:103400000E940000C093B806CC2319F00E944E1908
:1034100003C060E070E0CB016093B9067093BA0618
:103420008093BB069093BC0680E090E0892B59F016
:103430008091B806C81739F081E0C11101C080E061
:10344000CF910C940000CF9108950E94F219E6EB01
:10345000F6E081E08783108688E0EFEBF6E0DF019D
:103460001D928A95E9F708951F93CF93DF938331D7
:10347000910550F48131910590F48130910579F0F6
:103480008930910591F40BC08D31910571F4209133
:10349000B6062F73362F307C232B2093B6062FEFE2
:1034A0003FEF3093CA062093C90620E030E0232B7B
:1034B00029F0DF91CF911F910C940000162FEC01A1
:1034C0000E94F117181721F1612FCE010E94EF170A
:1034D000612FCE018C5A9E4F0E94EF17612FCE01B3
:1034E00088559D4F0E94EF1780E090E0892B21F0D6
:1034F000612FCE010E94000080E090E0892B41F016
:103500008091B60684FD04C0612FCE010E940000A8
:10351000CE01DF91CF911F910C94F117CF92DF92E2
:10352000EF92FF920F931F93CF93DF9320E030E051
:10353000232B51F0DF91CF911F910F91FF90EF90CE
:10354000DF90CF900C9400008C010E94F117C82FDF
:1035500068018CEAC81A8EEFD80AC6010E94F117DA
:10356000D82F780188E5E81A8DEFF80AC7010E9484
:10357000F117CD1769F0D81306C06D2FC8010E944E
:10358000EF17CD2F0BC0C81309C06C2FC60104C0A4
:10359000C81721F06C2FC7010E94EF178C2FDF9105
:1035A000CF911F910F91FF90EF90DF90CF900895F2
:1035B000DF92EF92FF920F931F93CF93DF938B01D4
:1035C000E42E82FF24C083FF16C061E0C8010E9480
:1035D000DC0E882309F450C06E2DC8010E94341AF5
:1035E000E8124AC0DF91CF911F910F91FF90EF90A9
:1035F000DF900C94E70560E0C8010E94DC0E882390
:10360000D9F1C8010E948E1A8E1136C0EBCF842FDB
:103610008770C1E0D0E001C0CC0F8A95EAF7842F13
:103620008870D82ECB010E948E1AF82EE4FE15C0A9
:1036300061E0C8010E94DC0E8823F1F0DD2011F06A
:10364000CF2904C08C2F8095C82FCF216C2FC801A3
:103650000E94341AC81310C0C5CF60E0C8010E9490
:10366000DC0E882349F0CF21DD2019F0C111BACF3B
:1036700003C0CC2309F4B6CFDF91CF911F910F91F6
:10368000FF90EF90DF900895CF932091C90630917D
:10369000CA062F3F8FEF380711F0C90148C08DE1EE
:1036A00090E00E948E1A87FF23C086FF0CC089E03D
:1036B00090E00E948E1AC82F81E090E00E948E1A3E
:1036C0002C2F30E024C089E090E00E948E1AC82F91
:1036D00081E090E00E948E1AC77090E4C99F90012B
:1036E00011248F73282B3093CA062093C9061BC060
:1036F00085FF10C081E190E00E948E1AC82F82E100
:1037000090E00E948E1A2C2F30E0205C3109322F7D
:103710002227E8CF81E090E00E948E1A90E09093FB
:10372000CA068093C9068091C9069091CA06CF91B6
:103730000895CF92DF92EF92FF920F931F93CF9352
:10374000DF937C016B01C42F122FD42FD07E809188
:10375000B60687FF1CC0D03E09F0EFC08091B706C7
:10376000882309F4EAC090E00E948E1AD82F809135
:10377000B70690E001960E948E1A4D2F50E0582B0C
:103780008FE3F8224E155F0509F0D7C019C080FFFE
:1037900009C00E94441BE816F90621F0E114F10467
:1037A00009F0CBC0D03621F1F0F0D03A09F48BC04B
:1037B00008F4A2C0D03C09F4AAC0D03E09F0BDC0B4
:1037C0008C2F8370612F70E0782B6F5F7F4F402FBD
:1037D0008C2FDF91CF911F910F91FF90EF90DF9091
:1037E000CF900C94D81AD032C1F1D03409F053C024
:1037F00080E090E0892BF9F08C2F8F71813029F0D7
:1038000078F0803169F0813111F440E00AC04C2F2A
:103810004F70440FC4FB882780F9482B425001C0E9
:1038200041E0C5FB222720F90DE110E030E0B601B0
:10383000C7010E94000080E090E0892B09F47DC060
:103840004C2FB601C701DF91CF911F910F91FF90CF
:10385000EF90DF90CF900C940000CF71CF3109F042
:103860006CC080E090E0892B09F467C0412F4F774E
:1038700021F0413019F440E001C041E0612F661FA2
:103880006627661F262F30E00FE710E0B601C7015C
:103890000E94000052C0D11150C08C2F8E7009F0D0
:1038A0004CC080E090E0892B09F447C0C0FF45C0C0
:1038B00081E0DF91CF911F910F91FF90EF90DF900A
:1038C000CF900C94000080E090E0892BB1F12C2F78
:1038D0002F70C4FF0EC042E050E0B601C701DF9177
:1038E000CF911F910F91FF90EF90DF90CF900C94AC
:1038F000000043E050E0F1CFD038F9F480E090E0F0
:10390000892BD9F02C2F2F7141E050E0E6CFCF71F9
:10391000CE3119F0CF3149F010C080E090E0892B12
:1039200061F0212F44E050E0D8CF80E090E0892B77
:1039300021F0212F45E050E0D0CFDF91CF911F91B2
:103940000F91FF90EF90DF90CF900895682F8CEC4F
:1039500096E00C946817009769F0FC010190002034
:10396000E9F73197AF01481B590BBC018CEC96E08D
:103970000C94E51680E090E00895CF93DF930E94C9
:10398000AB1CEC0181ED91E00E94AB1C8C0F9D1FE4
:10399000DF91CF9108958F929F92AF92BF920F9334
:1039A0001F93CF93DF93CDB7DEB7A1970FB6F894EF
:1039B000DEBF0FBECDBF19A2423008F44AE08E012F
:1039C0000F5D1F4F842E912CA12CB12CA5019401C9
:1039D0000E94F034E62FB901CA0101501109EA3002
:1039E00014F4E05D01C0E95CD801EC93232B242B97
:1039F000252B61F7C8010E94AB1CA1960FB6F89465
:103A0000DEBF0FBECDBFDF91CF911F910F91BF9051
:103A1000AF909F908F900895AB01682F411551058D
:103A200021F48CEC96E00C94681770E080E090E054
:103A30000C94CB1CCF93DF930E940C1DEC0181ED05
:103A400091E00E94AB1C8C0F9D1FDF91CF910895D8
:103A5000682F8CEC96E00C946817AB01672B29F467
:103A6000682F8CEC96E00C946817BC0180E090E025
:103A70000C94CB1C0C94AB1CCF93DF93C6EBD6E01D
:103A80002881206128830E94341A98819F7E988320
:103A9000DF91CF9108950F931F93CF93DF938C0104
:103AA000C0E0D0E0F801EC0FFD1F6491662341F007
:103AB0008CEC96E00E946817892B11F02196F2CFCA
:103AC000CE01DF91CF911F910F910895CF93DF9396
:103AD0000E944B1DEC0181ED91E00E94AB1C8C0F0C
:103AE0009D1FDF91CF910895CF92DF92EF92FF92C9
:103AF000CF93DF936C01990FEE08FF08F7FE17C014
:103B00008DE20E94281DEC0166277727CB016C19F6
:103B10007D098E099F094AE00E94CB1C8C0F9D1FD6
:103B2000DF91CF91FF90EF90DF90CF9008954AE022
:103B3000C701B601DF91CF91FF90EF90DF90CF905A
:103B40000C94CB1CCF93DF930E94741DEC0181ED8C
:103B500091E00E94AB1C8C0F9D1FDF91CF910895C7
:103B6000CF93DF936AE070E00E942D1DEC0181EDA0
:103B700091E00E94AB1C8C0F9D1FDF91CF910895A7
:103B8000CF92DF92EF92FF920F931F93CF93DF9329
:103B9000CDB7DEB764970FB6F894DEBF0FBECDBFCA
:103BA000D82EC92E42E0CE0101967C01BC018D2D9C
:103BB0009C2D0E947E34F70101900020E9F7319797
:103BC0008F010E191F090C30110534F480E30E9497
:103BD000281D0F5F1F4FF7CFC7010E943A1DCF92DC
:103BE000DF9287E993E09F938F93FF92EF920E9479
:103BF0008435C7010E943A1D0F900F900F900F90CF
:103C00000F900F9064960FB6F894DEBF0FBECDBF35
:103C1000DF91CF911F910F91FF90EF90DF90CF90A8
:103C200008958230F8F4E82FF0E0EE0FFF1FE05027
:103C3000FF4F29E63DE031832083813041F08091C0
:103C400069008C7F682B60936900E89A08958091E1
:103C50006900837F660F771F660F771F682B60935D
:103C60006900E99A0895CF93DF93CDB7DEB76E97D9
:103C70000FB6F894DEBF0FBECDBF789484B58260D6
:103C800084BD84B5816084BD85B5826085BD85B500
:103C9000816085BD80916E00816080936E0010927E
:103CA00081008091810082608093810080918100F9
:103CB000816080938100809180008160809380008A
:103CC0008091B10084608093B1008091B0008160E8
:103CD0008093B000809191008260809391008091E8
:103CE0009100816080939100809190008160809329
:103CF00090008091A10082608093A1008091A1003A
:103D000081608093A1008091A00081608093A000D9
:103D100080917A00846080937A0080917A0082603A
:103D200080937A0080917A00816080937A008091FC
:103D30007A00806880937A001092C100E091DC06DE
:103D4000F091DD0602E00083E091D806F091D906FB
:103D50001082E091DA06F091DB0680E18083109218
:103D6000E406E091E006F091E10686E08083E091D0
:103D7000DE06F091DF06808180618083E091DE06BF
:103D8000F091DF06808188608083E091DE06F0910B
:103D9000DF06808180688083E091DE06F091DF0697
:103DA00080818F7D808361E08DE00E94B31881E285
:103DB000E0E0F0E0809357001491E2E0F0E08093BF
:103DC0005700E490EB82E4E0F0E080935700F49039
:103DD000F9822E2D253931F43F2D363119F41E315B
:103DE00009F455C097E3E92E91E0F92E2CE1C22E9B
:103DF00021E0D22E31E0A32E31E0B32EF7018491E1
:103E0000F6010491F50194909920A1F081110E948E
:103E10004B18E92DF0E0EE0FFF1FE851FF4FA59181
:103E2000B4918C91082391E080E009F490E0692F2F
:103E3000782F02C060E070E0F1E06F278DE00E9413
:103E4000841884E991E00E944B1D60E170E0812FAD
:103E50000E940C1D87E192E00E943A1D60E170E033
:103E60008B810E940C1D87E192E00E943A1D60E167
:103E700070E089810E940C1D85E691E00E94661D1C
:103E800068EE73E080E090E00E941419B7CF61E023
:103E90008CE00E94B31862E08AE00E94B3183E985A
:103EA000469A8EEA91E00E943A1D80E090E00E94DE
:103EB000A21D1092C7060093C80660E082E00E942F
:103EC000B31861E082E00E94841885E1EDE0F6E03D
:103ED000DF011D928A95E9F783E08093A20382E9CE
:103EE00090E09093A1038093A00382E590E09093EB
:103EF0009F0380939E0363E070E08091C7060E9459
:103F0000111E80EC8093B6061092B7068FEF9FEFDC
:103F10009093CA068093C9061092CB068DE190E07B
:103F20000E948E1A682F606C8DE190E00E94341A16
:103F30006AE087E090E00E94341A6DE088E090E04B
:103F40000E94341A80E00E94251A0E942E320E949C
:103F500044120E94070F83ED91E00E94BD1C84E68D
:103F600090E09093890080938800F89410928000EC
:103F70001092810080918100836080938100809104
:103F80006F00826080936F001092A6038CE0809394
:103F9000A50388E18093A40384E28093A30378942B
:103FA0008091A7038823B9F085E491E00E94661D03
:103FB00001E111E01A83098389819A810E948E1A96
:103FC0000E94F90509811A810F5F1F4F1A83098327
:103FD0000531114089F7FCE22F2EF6E03F2EAAE0D2
:103FE0007A2EBAEF4B2E512C8CEC96E00E943117B2
:103FF000181619060CF0CBC78CEC96E00E940F1730
:104000008C3349F463ED71E08CE296E00E947D35DB
:1040100010922B06E9CF8E3309F094C78FEC91E014
:104020000E943A1D8CE296E00E943A1D8AED91E0D2
:104030000E94BD1C90912D069A3309F0A3C4809173
:104040002E068335D1F480912F068836B1F4809105
:104050003006803339F498E490932E0690E79093DD
:104060002F060BC0813349F488E480932E0680E745
:1040700080932F0683E38093300690912C06892F3E
:104080008F7D8154843008F03AC1E92E990FFF08E2
:104090009701215431092530310544F0205231096E
:1040A000253031051CF08CE694E0B7C680912A06D5
:1040B00090E08901000F111FA8014F5F5F4FBC0105
:1040C00002C0759567954A95E2F7AB014170552797
:1040D000440F551F002E02C0959587950A94E2F76C
:1040E0008170842BE82FE695F0E0EC5DF94F40817C
:1040F00050E081708F8B188E8F89988D880F991F53
:10410000880F991F02C0559547958A95E2F7477029
:104110007901E3E0EE0CFF1CEA95E1F7FA82E9820F
:104120006091300680ED860F90912E0650912F06FB
:10413000983439F45037F9F4843008F0FCC68E0D09
:1041400052C0963549F45237B1F4833008F0F3C6C3
:1041500009810C5F800F47C0913469F4553759F4D9
:10416000633749F441504330E0F5F901EF51FA4F1C
:104170008CE08083E0C650ED590F5430B8F584E6EA
:1041800094E00E944B1D80912C060E94281D85E51D
:1041900094E00E944B1D80912E06082E000C990B76
:1041A000C0970E94A21D63E070E0002E01C0660F60
:1041B0000A94EAF7609580912A06682380912E067A
:1041C000082E000C990BC09701C0880F0A95EAF7DA
:1041D000682B60932A0684E090E00E943C1D0E94B8
:1041E0004B088981895F0E94F905A5C6592F5F7D1B
:1041F0005154543008F05BC0892F990F990B8C01F2
:10420000015411090530110514F0005211090F5F16
:104210001F4F49815A8157FF04C0415F5F4F5A8346
:104220004983E981FA81B4E0F595E795BA95E1F71C
:10423000FA83E983C90162E070E00E945135880F7A
:10424000991F880F991F2FE030E0082E01C0220F20
:104250000A94EAF72095E353FC4F608162239801AA
:104260002F70332701C0220F8A95EAF7622B6083F3
:1042700089819A810C960E943C1D88E494E00E94FA
:104280004B1D80912C060E94281D012B19F481E3FF
:1042900094E0C3C58DE094E00E944B1D80912E06F2
:1042A0000E94281D81ED91E00E94AB1C44C644236E
:1042B00009F441C69D3249F09B3249F09F3661F0C6
:1042C0009F3479F09F3299F004C080E015C081E0FE
:1042D00013C09C3771F002C082E00EC0933259F0D7
:1042E00002C083E009C09A3239F487E005C084E057
:1042F00003C085E001C086E0F9818F0F74CF80EDA7
:10430000890F843008F017C6E92E990FFF0887013E
:10431000005311091C830B8380912B0690E0EFE280
:10432000F6E000E010E09F012C52364028173907D4
:1043300094F4419120ED240F2A30A8F7709E90014B
:10434000719E300D1124890100531109040F111DB4
:1043500047FD1A95E8CF20912E062F7D223409F0D3
:1043600054C00F3F110519F010F00AE010E082E090
:1043700094E00E944B1D8B819C810E94741D8EEEE7
:1043800093E00E944B1DC8010E94B01D2B813C810F
:104390002D5F3A4F7901D9010C93EB81FC81EF2B12
:1043A00021F4602F85E090E011C02B813C81213009
:1043B000310521F4602F86E090E008C04B815C81DC
:1043C000602F4230510589F48AE090E00E943C1D44
:1043D0008CE00B811C81809FF001819FF00D1124E6
:1043E000E15DFB4F80E090E009C08BE090E0EECF14
:1043F000019631968C30910509F49DC520812223C8
:10440000B9F3D7012C912083F3CF2C3409F09BC052
:1044100080912F06853609F05EC080913006982F76
:104420009F7D943441F5909131069F7D913419F52B
:10443000909132069F7D9E34F1F40D30110510F0FD
:1044400005E010E083EE93E00E944B1D8B819C8180
:104450000E94741D8EEC93E00E944B1DC8010E94C7
:10446000B01DEB81FC81E153FB4F0083602FC7013E
:1044700089529F4F0CC48F7D843469F58091310639
:104480008F7D8D3441F580913206813621F5809102
:1044900033068F7D8835F9F40D30110510F00CE0EE
:1044A00010E083EC93E00E944B1D8B819C810E9465
:1044B000741D8DEA93E00E944B1DC8010E94B01D3F
:1044C0002B813C8125533B4FD9010C93602FC701B1
:1044D00085529F4FDCC32091CC03012B11F40C9427
:1044E000603141E050E060E070E00B8004C0440FB8
:1044F000551F661F771F0A94D2F7422B4093CC03B7
:104500006091CC038EE090E00E943C1D82EA93E033
:104510000E944B1D8B819C810E94741D80E993E059
:104520000E944B1D8091CC0390E00B8002C09595BA
:1045300087950A94E2F780FF03C080E092E04CC4C4
:1045400084ED91E049C42434B9F520912F062F7DE4
:104550002A3509F05BC0C8016AE070E00E943D3571
:104560006F3F710519F010F06EE170E00B811C8156
:10457000000F111F01541B4FF8017183608385E800
:1045800093E00E944B1D8B819C810E94741D84E7E7
:1045900093E00E944B1DD8018D919C91FC017E9E61
:1045A000C0017F9E900D11240E94A21DD8016C9124
:1045B000C7018D529F4F6BC3263431F520912F06D2
:1045C0002F7D243519F50F3F110519F010F009E181
:1045D00010E0EB81FC81EA5DF94F6F01008389E611
:1045E00093E00E944B1D8B819C810E94741D89E584
:1045F00093E00E944B1DC8010E94B01DD6016C9132
:10460000C70181539F4F43C3243529F0E2E3F6E00D
:1046100000E010E06AC0602F6F708B810E947F08FD
:104620008EE493E00E944B1D80912C060E94281D71
:1046300088ED91E00E943A1D8B810E94B7110E9483
:10464000441271EEC72E75E0D72EEDEEEE2EE5E0AA
:10465000FE2EB7E0B983812C912C5801E2E0AE1A0E
:10466000B108FCE06F2E80912A0690E0082C02C071
:10467000959587950A94E2F7837099272B813C8161
:104680002817390791F40130110521F0F2E0AF1637
:10469000B10440F4D6016C92F701108211821282AB
:1046A000138203C089810E94F905F2E08F0E911CEC
:1046B0002FEFC21AD20A34E0E30EF11C4981485FA1
:1046C0004983473281F637C4219130ED320F3A30B9
:1046D00060F4709EB001719E700D11248B01005327
:1046E0001109020F111D27FD1A959F012C5236400A
:1046F000281739074CF3011550E1150708F01BC4C2
:10470000809131068D3331F08852823018F08BE37E
:1047100093E083C380E393E00E944B1D8B819C81D7
:104720000E94741D84E593E00E943A1D809130063A
:1047300090912E06983491F490912F06903709F0BD
:10474000FAC360EDF62EF80E8DE293E00E944B1D49
:104750006AE070E08F2D0E940C1D13C0963521F584
:1047600090912F06923709F0E6C354EDF52EF80E1E
:104770008AE293E00E944B1D8F2D90E004970E94E7
:10478000741D8CED91E00E943A1D62E070E0C8015A
:104790000E942D1D86E192E00E943A1D6AE070E0C1
:1047A000C8010E942D1D1FC0913409F0C4C390910F
:1047B0002F06953709F0BFC3833709F0BCC381E2E8
:1047C00093E00E944B1D62E070E0C8010E942D1D25
:1047D00086E192E00E943A1D6AE070E0C8010E9402
:1047E0002D1D47E0F42E87E093E00E944B1D809141
:1047F00031068D33D1F48DEF92E00E94661DEB817E
:10480000FC8123E0EE0FFF1F2A95E1F7EF0DF11D6C
:10481000EE0FFF1FE957FA4F118300830E944B08E8
:104820006EE170E07C8B6B8B33C08832C1F48BEE11
:1048300092E00E94661DEB81FC8183E0EE0FFF1F7A
:104840008A95E1F7EF0DF11DEE0FFF1FE95BFA4FBF
:10485000118300838EE790E09C8B8B8B19C089328B
:10486000B9F489ED92E00E94661DEB81FC81A3E022
:10487000EE0FFF1FAA95E1F7EF0DF11DEE0FFF1FE1
:10488000E95FFA4F11830083AEEAB0E0BC8BAB8BDB
:104890008CE0EB81FC818E9F60018F9FD00C1124F6
:1048A0008F2D8695F3E08F9FC00CD11C11242B898E
:1048B0003C89C20ED31EF0FC16C0602FC6010E94B8
:1048C0003C1D3FEFC31AD30AC6010E948E1A00276F
:1048D0001F70807F682F612BC6010E943C1DE12C58
:1048E00000E010E02EC056014FEFA41AB40AC50133
:1048F0000E948E1A8F70902F9295907F682F692B4F
:10490000C5010E943C1DB801607F7F70E4E0769590
:104910006795EA95E1F7C6010296DFCFB7E0FB168F
:1049200021F087E08E0D0E94F9058F2D8E0D0E94DB
:10493000F9050E5F1F4FE8E0EE0EF0E2EF1609F406
:10494000FAC280912A0690E098012F5F3F4FBC0188
:1049500002C0759567952A95E2F79B012170332770
:10496000220F331F002E02C0959587950A94E2F717
:1049700081709927822B932BAB81BC81A817B90733
:10498000C1F6CCCF30912B06ADE2B6E0FD0161E07F
:1049900070E0432F50E06417750744F481918A3327
:1049A00011F4262F04C06F5F7F4FF5CF232F00E057
:1049B00010E0E22FF0E0BD016C5276406E177F07E9
:1049C00094F48D9160ED680F6A30A8F7709EB00185
:1049D000719E700D1124082F880F110B00531109BF
:1049E000060F171FE8CFE35DF94F1A821982BF0146
:1049F0006C52764064177507B4F4819160ED680FCE
:104A00006A30A8F7E980FA807E9CD0017F9CB00DC7
:104A10001124682F880F770B605371096A0F7B1F71
:104A20007A836983E4CF50912C06452F4F7D423520
:104A3000D9F4953609F04FC180912E06833709F0DD
:104A40004AC180912F06853609F045C18091300614
:104A5000843709F040C187EC92E00E94661D0E94F5
:104A60008A310E942E3267C2443409F0B4C0892FC3
:104A70008F7D833409F02FC180912E06682F6F7DC2
:104A8000633461F560912F066F7D643439F5609170
:104A900030066F7D6A3511F589E992E00E944B1D61
:104AA000C8016AE070E00E943D35CB0101978E3F5E
:104AB000910510F062E370E06093CB03769EC00135
:104AC000779E900D11240E94741D81EE91E00E944A
:104AD000BD1C6091CB038FE091E0D9C08F7D833402
:104AE00009F0F9C0321318C01093CA030093C90328
:104AF000602F81E090E00E943C1D6091CA0389E034
:104B000090E00E943C1D81E08093C80361E08EED3F
:104B100090E00E943C1DC2C089819A8101979A83CE
:104B200089838032910508F053C07C01F694E794A4
:104B30001092C80360E08EED90E00E943C1D67017A
:104B4000CC0CDD1C612FC60181529F4F0E943C1D81
:104B5000602FC60180529F4F0E943C1DF601E85510
:104B6000FC4F1183008381E992E00E944B1DA981D3
:104B7000BA8153E0B695A7955A95E1F7BD016F5BF1
:104B80007F4F8CEC96E00E94681787E892E00E94C5
:104B90004B1DB3E0EB22FF24F701EE0FFF1FFA835A
:104BA000E9836AE070E0CF0101960E942D1D84EE3A
:104BB00091E00E943A1D6AE070E089819A81029634
:104BC0000E942D1D86EE91E00E943A1DC801B1C1E0
:104BD00084E792E022C14A35F1F59801215031096C
:104BE0002D30310508F0A7C189819A8183589F4FE4
:104BF000B2010E943D354AEF469FC001479F900D8C
:104C000011247901EE0CFF1C970129533A4F3A8386
:104C10002983D9018D939C93B2010E943D35C8012F
:104C200040960E943C1D81E692E00E944B1D6AE086
:104C300070E0C8010E942D1D87EF91E00E943A1D8F
:104C40006AE070E0E981FA81808191810E942D1DE6
:104C500081EE91E0C1C04134E9F48FE292E00E941C
:104C60004B1D80912D06813341F48CEF91E00E9421
:104C7000BD1C8FEF8093A70306C08FEF91E00E94C9
:104C8000BD1C1092A7036091A70380E191E00E94F0
:104C90003C1D51C1493429F40E9444120E94070F5F
:104CA0004AC14435C1F48BE092E00E94661DEFE5F5
:104CB000F4E080E090E02191DC01A157BB4F2C9300
:104CC000019680339105B9F764EF71E080E090E0E0
:104CD0000E94141930C1533509F081C084E092E07C
:104CE0000E943A1D1A82198289819A816CE070E0D3
:104CF0000E945135892B21F48CE092E00E943A1DEC
:104D0000E981FA81E157FB4F80816AE070E00E94FF
:104D10000C1D87E192E00E943A1D09811A810F5F04
:104D20001F4F1A83098300331105F1F68FE092E0DB
:104D30000E94BD1C81E192E00E943A1D03ED14E047
:104D40001A82198289819A816CE070E00E94513543
:104D5000892B21F48CE092E00E943A1D6AE070E019
:104D6000D8018D918D010E940C1D87E192E00E9477
:104D70003A1DE981FA813196FA83E983F09711F7B8
:104D80008FE092E00E94BD1C89E192E00E943A1DF2
:104D90000FE214E01A82198289819A816CE070E036
:104DA0000E945135892B21F48CE092E00E943A1D3B
:104DB0006AE070E0D8018D918D010E940C1D87E1A1
:104DC00092E00E943A1DE981FA813196FA83E983E3
:104DD000F09711F78FE092E00E94BD1CACC0892FC4
:104DE0008F7D8154843008F0A6C0892F990F990BCC
:104DF0007C01F1E4EF1AF10825E0E216F10444F039
:104E00007C0131E6E31AF10865E0E616F1041CF4D2
:104E10000C3011052CF086EF91E00E94661D8BC0CE
:104E20002CE02E9DC0012F9D900D1124080F191FFD
:104E30005B3209F03FC0C801815A9B4F6C01A981C8
:104E4000BA81AB2B19F02981FC012083D6018C910A
:104E5000853610F084E68C93F6016081C801825B90
:104E60009F4F0E943C1DF801ED52FB4FD6018C91E3
:104E70008083F801E15DFB4F108283EE91E00E9498
:104E80004B1DC7018F5B9F4F0E94A61CC8016CE0A1
:104E900070E00E943D356AE070E00E942D1D84EDB7
:104EA00091E00E944B1D6AE070E0F60180810E9453
:104EB0001A1D41C05D32B9F4F801ED52FB4F10826A
:104EC000F801E15DFB4F108280EC91E00E944B1DE8
:104ED000C7018F5B9F4F0E94A61CC8016CE070E069
:104EE0000E943D3526C0423431F5F801E15DFB4FAB
:104EF00029812083F801EE0FFF1FE153FC4F11823F
:104F0000108280EB91E00E944B1DC7018F5B9F4F89
:104F10000E94A61CC8016CE070E00E943D356AE06A
:104F200070E00E942D1D86EA91E00E944B1D898150
:104F30009A810E94B01D63ED71E08CE296E00E94C0
:104F40007D3552C8F10101900020E9F73197EC520C
:104F5000F6403F9708F048C8282F082E000C330B66
:104F60003F938F933F922F9241E252E05F934F9392
:104F70003F922F920E94843580912B068F5F809301
:104F80002B060FB6F894DEBF0FBECDBF2DC80E9412
:104F90004E194B015C0160937A0670937B068093F7
:104FA0007C0690937D0680912A06E82FF0E0FA8730
:104FB000E9870AE616E01E830D8323ED34E03A8B81
:104FC000298B0FE514E04FEC53E058874F833C8367
:104FD0002B83E12CF12C212C312CED81FE81808161
:104FE0009181A281B381A5019401281B390B4A0B41
:104FF0005B0BDA01C901E985FA85022C02C0F5953F
:10500000E7950A94E2F7E370F0E0EA5DF94F40813A
:1050100050E060E070E0481759076A077B0708F026
:10502000F4C0ED81FE8180829182A282B382EF86FC
:105030006B807C8068012F8138853C8F2B8F412CC1
:10504000512C198292012E0D3F1D4CE04416510443
:1050500009F492C0F901E157FB4F5081D3014C9103
:10506000541709F45AC08081481708F58081D60189
:105070002C9130E0B4E68B9FC0011124B9010E944D
:1050800051356A507109629FC001639F900D729FF4
:10509000900D112464E670E00E9451356083808198
:1050A000841708F44083E981E260E98355C04536FE
:1050B00020F0F981F460F9834FC08081D6019C9182
:1050C000692F70E07C876B8774E6879FC00111248D
:1050D0006B857C850E945135665F7F4FAB85BC85B3
:1050E0006A9FC0016B9F900D7A9F900D112464E61A
:1050F00070E00E945135808190E06817790721F4B3
:1051000080818F5F808301C06083F901E157FB4F8D
:105110008081481708F540831FC0F901E15DFB4F0E
:1051200080818823C9F0EB8DFC8D208131812F5F38
:105130003F4F3183208390E0281739076CF05111DD
:1051400005C0D6018C91F301808302C0D3011C926B
:10515000EB8DFC8D11821082FFEF4F1A5F0A2B8DB1
:105160003C8D2E5F3F4F3C8F2B8F3FEFC31AD30AEE
:105170004FEF641A740A66CFE981E1FD46C0E2FF91
:1051800044C08F856CE00E943135880F29853A85AF
:1051900002C0359527958A95E2F721FB332730F930
:1051A0003D8B1E8AB801EB81FC814DE050E08D897A
:1051B0009E898C5D994F6C019F01235D3440415065
:1051C000510919F180818636B8F0D6018C9190E0B2
:1051D00021703327220F331F220F331F02C09595F2
:1051E00087952A95E2F78770813019F4DB018C915D
:1051F00080838081815004C0853619F4DB018C9155
:10520000808331966F5F7F4FD7CFB2E02B0E311C7A
:10521000ED81FE813496FE83ED832B813C81245FFA
:105220003F4F3C832B833CE0E30EF11C045F1F4F98
:105230004F815885485E5F4F58874F8358E0251649
:10524000310409F0CACE8091240681110AC08091F0
:105250002506811106C08091B806882309F434C55B
:105260001CC560E476E07A8369830DEE202E05E0AC
:10527000302E81EEE82E85E0F82E87EC94E09E83B8
:105280008D83ACE3B6E0BC83AB83E9EEF5E0F88B4D
:10529000EF8701E410E01C870B871F821A861986AE
:1052A00080912A0690E029853A852F5F3F4FAC0117
:1052B00002C0559547952A95E2F79A012170332748
:1052C000A901440F551F9C01098402C035952795FB
:1052D0000A94E2F72170242B2B8FE22FE695F0E061
:1052E000EC5DF94F808190E02170298F1A8E298D15
:1052F0003A8D220F331F220F331F02C095958795D9
:105300002A95E2F78770813009F047C280917A06CA
:1053100090917B06A0917C06B0917D06E981FA818F
:1053200040815181628173818C019D01041B150BA9
:10533000260B370BF1014081518162817381401747
:1053400051076207730708F071C4E981FA8180830D
:105350009183A283B383AF85B8893C9131110FC08B
:10536000F701808187FF0BC006E019EF20E030E0F5
:10537000D1010D931D932D933C9313972FC0F701EB
:10538000808191E0980F292F2F772A3011F0908398
:1053900002C089508083F7018081982F9F779B30CE
:1053A00010F081508083D7012C91E22FEF77F0E04D
:1053B000EE0FFF1FE953FA4F80819181A0E0B0E02A
:1053C000F10180839183A283B383311107C022301E
:1053D00011F0273019F42068D7012C938EE196E064
:1053E0000E944B1D8B859C850E94A61C87EF91E037
:1053F0000E943A1D6AE070E0F70180810E940C1D56
:1054000086E292E00E943A1DD1016D917D918D91CD
:105410009C914AE00E94CB1C89E292E00E943A1DD6
:10542000D701EC91EF778E2F90E08D30910508F049
:10543000ACC1FC01E65AFF4F0C9465358CEF95E04A
:10544000B1C08CED95E00E94661D0B8D18E0010245
:1054500090011124C9010396A901440F551FFA01B7
:10546000E957FA4FDA01A95BBA4F408151816D913A
:105470007C91462B572B880F991FFC01E957FA4F57
:1054800060817181462B572B220F331FB90167575B
:105490007A4FDB016D917C91462B572BFC01E95B28
:1054A000FA4F608171814BC18AEB95E00E94661DC5
:1054B0000B8D18E0010290011124D901AA0FBB1F26
:1054C000A557BA4FF901EE0FFF1FE357FA4F8D9121
:1054D0009C9140815181482B592BF901EE0FFF1F00
:1054E000E95BFA4F60817181462B572BF901EE0F72
:1054F000FF1FEF5AFA4F6081718129C088E995E05A
:105500000E94661D0B8D18E0010290011124C90153
:105510000396F901EE0FFF1FE557FA4F880F991F09
:10552000DC01A957BA4F408151816D917C91462B86
:10553000572BF901EE0FFF1FE95BFA4F6081718174
:10554000642B752BFC01E95BFA4F40815181462B9E
:10555000572B220F331FB9016B5E7A4FC3C086E70A
:1055600095E00E94661D0B8D18E001029001112448
:10557000C9010396D901AA0FBB1FA757BA4F880FBD
:10558000991FFC01E957FA4F6D917C91408151813F
:10559000462B572B220F331FB901695B7A4F79CF06
:1055A00084E595E00E94661D0B8D18E001029001D4
:1055B0001124C9010396220F331FF901E957FA4F4D
:1055C000D901A95BBA4F408151816D917C91462BE5
:1055D000572B880F991FFC01E957FA4F60817181A1
:1055E0005BCF84E395E00E94661D0B8D18E00102FD
:1055F00090011124C9010396A901440F551FFA0116
:10560000E957FA4FDA01A95BBA4F408151816D9198
:105610007C91462B572B880F991FFC01E957FA4FB5
:1056200060817181462B572B220F331FB9016157BF
:105630007A4F2FCF82E195E00E94661D0B8D18E016
:10564000010290011124D901AA0FBB1FAF56BA4F16
:10565000F901EE0FFF1FE35BFA4F8D919C914081A2
:105660005181482B592BF901EE0FFF1FE957FA4FD3
:1056700060817181462B572BF901EE0FFF1FE55B0F
:10568000FA4F60817181462B572B220F331F27C0A1
:1056900080EF94E00E94661D0B8D18E001029001DE
:1056A0001124C901880F991FFC01E957FA4FDC0149
:1056B000A95BBA4F408151816D917C91462B572B4C
:1056C000FC01EF56FA4F60817181462B572BFC018C
:1056D000E35BFA4F60817181462B572B9C01B90126
:1056E0006D5E7A4FDB012D913C9153C08EEC94E0BE
:1056F0000E94661D0B8D18E0010290011124C90162
:10570000880F991FFC01E957FA4FDC01A95BBA4FDA
:10571000808191814D915C91482B592BF901EE0FBD
:10572000FF1FE157FA4F80819181482B592B220F9F
:10573000331FB901635B7A4FDB016D917C91462B7E
:10574000572B20E030E025C08DEA94E00E94661DD2
:105750000B8D10E1010290011124A901475F5A4FFE
:105760000CC08CE894E00E94661D0B8D10E10102D4
:1057700090011124A901415F5A4FDA012D913C910A
:1057800006C084ED91E00E94BD1C20E030E040E0C6
:1057900050E000E010E060E046C2823009F0F2C064
:1057A00080917A0690917B06A0917C06B0917D064F
:1057B000E981FA8140815181628173818C019D016F
:1057C000041B150B260B370BF101408151816281BF
:1057D0007381401751076207730708F027C2E981F8
:1057E000FA8180839183A283B383D7014C914C309B
:1057F00069F406E019EF2FEF3FEFD1010D931D93F0
:105800002D933C931397E0E0F0E0B6C00B8D202F72
:10581000000F330BF901ED5FFA4F8081A82EB12CF8
:1058200015E0819FC0011124092E000CAA0BBB0BAF
:10583000F10180839183A283B383A989BA89E0E0CF
:10584000F0E080E090E05D91552351F061E070E080
:10585000082E02C0660F771F0A94E2F7E62BF72B9B
:1058600001968C30910579F7D901A153BB4F8C90EB
:105870000BE00815E8F0AB81BC815C91852F90E0CE
:10588000B901A3E0660F771FAA95E1F7DB01A80F26
:10589000B91FAA0FBB1F583018F4A957BA4F02C03E
:1058A000A95CBA4F8D919C9180959095E823F9233E
:1058B000D901A553BB4F0C910B8F10E0AB81BC817C
:1058C0008C9190E00196B8010E945135982EAB81E1
:1058D000BC818C93AD81BE81BC91BD8FCB2ED12C70
:1058E000D901AA0FBB1FA154BB4F8D919C91B5014B
:1058F0000E945135C616D70654F40D8D0F5FAD8149
:10590000BE810C9391102CC08B8D815026C0542FDA
:105910005F77852F90E063E0220F331F6A95E1F7F0
:10592000280F391FD901AA0FBB1F583018F4A957E7
:10593000BA4F02C0A95CBA4F8D919C91E82BF92B0C
:105940004F5FD7014C93C801840F911D88199109AD
:10595000B8010E945135981618F4AB81BC818C9324
:10596000D7018C91982F9F770B8D091305C0801B51
:105970008C93AD81BE811C9200E010E020E030E00D
:10598000AF0150C1833009F051C180917A069091E6
:105990007B06A0917C06B0917D06E981FA81408169
:1059A0005181628173818C019D01041B150B260BB3
:1059B000370BF1014081518162817381401751079A
:1059C0006207730708F032C1E981FA81808391830D
:1059D000A283B383D7018C918C3069F406E019EF70
:1059E0002FEF3FEFD1010D931D932D933C93139710
:1059F0001C8E1B8E11C10E944E192FEF3FEF40E00D
:105A000050E00E94F034611571058105910511F097
:105A10000E9475340B8D002E000C110B1C8F0B8F08
:105A2000F801E153FB4FD080D7014C91442371F032
:105A3000F801E553FB4FD0802D2D30E0842F90E00E
:105A40008217930714F0DA9401C0D42EEB8DFC8DED
:105A5000ED5FFA4F8080912CA12CB12C0E9427344D
:105A600028E730E040E050E00E94BE349B01AC01EA
:105A700028583F4F4F4F5F4FC501B4010E94213559
:105A8000F10160837183828393838D2C912CA12CEF
:105A9000B12C81149104A104B10441F00E94273477
:105AA000A50194010E94BE34862F01C080E0E989DF
:105AB000FA8900E010E0C12C20E030E091919923B8
:105AC00081F08C1561F041E050E0022E02C0440FDD
:105AD000551F0A94E2F7042B152BC39402C0C82E5D
